:020000040800F2
:10000000008002203D3300084D30000859300008C0
:1000100061300008693000087130000800000000FD
:10002000000000000000000000000000C11D0108E9
:100030007930000800000000112001088730000816
:100040008D3300088D3300088D330008A13000087F
:100050008D3300088D3300088D3300088D33000880
:100060008D3300088D3300088D3300088D33000870
:10007000B5300008C9300008DD300008F130000854
:100080008D3300088D3300088D3300088D33000850
:100090008D3300088D3300088D3300088D33000840
:1000A0008D330008053100088D3300088D330008BA
:1000B0008D3300088D330008000000008D330008E8
:1000C0008D3300088D3300088D3300081931000886
:1000D0002D3100088D3300088D3300088D33000862
:1000E00041310008793100080000000000000000E4
:1000F0000000000000000000000000000000000000
:10010000000000008D330008000000008D3300085F
:100110008D330008000000008D330008000000004F
:100120008D3300088D3300088D3300088D330008AF
:100130008D3300088D3300088D3300080000000067
:100140008D3300088D3300088D33000851310008CD
:10015000653100088D3300088D3300088D330008A9
:100160008D3300088D3300088D3300080000000037
:10017000000000008D3300080000000000000000B7
:100180008D3300088D3300088D3300088D3300084F
:040190008D330008A3
:1001A00010B5054C237833B9044B13B10448AFF3B1
:1001B00000800123237010BD100300200000000008
:1001C00080B0010808B5034B1BB103490348AFF3E6
:1001D000008008BD000000001403002080B001086A
:1001E00001F0FF01102A2BDB10F0070F08D010F8E8
:1001F000013B013A8B422DD010F0070F42B3F6D1EC
:10020000F0B441EA012141EA014122F007047FF004
:1002100000070023F0E80256083C85EA010586EA5B
:10022000010685FA47F5A3FA87F586FA47F6A5FA97
:1002300087F68EB9EED1F0BC01F0FF0102F00702A3
:1002400032B110F8013B013A83EA010313B1F8D14E
:100250000020704701387047002D06BF354603382F
:10026000073815F0010F07D1013015F4807F02BF68
:10027000013015F4C03F0130F0BC0138704700BFB9
:10028000034613F8012B002AFBD1181A01387047D6
:1002900081F0004102E000BF83F0004330B54FEA37
:1002A00041044FEA430594EA050F08BF90EA020FA4
:1002B0001FBF54EA000C55EA020C7FEA645C7FEA37
:1002C000655C00F0E2804FEA5454D4EB5555B8BF5A
:1002D0006D420CDD2C4480EA020281EA030382EACB
:1002E000000083EA010180EA020281EA0303362D5D
:1002F00088BF30BD11F0004F4FEA01314FF4801C30
:100300004CEA113102D0404261EB410113F0004F41
:100310004FEA03334CEA133302D0524263EB4303F8
:1003200094EA050F00F0A780A4F10104D5F1200E96
:100330000DDB02FA0EFC22FA05F2801841F10001F1
:1003400003FA0EF2801843FA05F359410EE0A5F1C5
:1003500020050EF1200E012A03FA0EFC28BF4CF0F6
:10036000020C43FA05F3C01851EBE37101F00045AC
:1003700007D54FF0000EDCF1000C7EEB00006EEBB9
:100380000101B1F5801F1BD3B1F5001F0CD3490843
:100390005FEA30004FEA3C0C04F101044FEA44529A
:1003A00012F5800F80F09A80BCF1004F08BF5FEA21
:1003B000500C50F1000041EB045141EA050130BD01
:1003C0005FEA4C0C404141EB0101013C28BFB1F513
:1003D000801FE9D291F0000F04BF01460020B1FA5E
:1003E00081F308BF2033A3F10B03B3F120020CDA31
:1003F0000C3208DD02F1140CC2F10C0201FA0CF00F
:1004000021FA02F10CE002F11402D8BFC2F1200C73
:1004100001FA02F120FA0CFCDCBF41EA0C01904029
:10042000E41AA2BF01EB0451294330BD6FEA040472
:100430001F3C1CDA0C340EDC04F11404C4F120025D
:1004400020FA04F001FA02F340EA030021FA04F36F
:1004500045EA030130BDC4F10C04C4F1200220FAC6
:1004600002F001FA04F340EA0300294630BD21FA04
:1004700004F0294630BD94F0000F83F4801306BFCA
:1004800081F480110134013D4EE77FEA645C18BFBE
:100490007FEA655C29D094EA050F08BF90EA020F55
:1004A00005D054EA000C04BF1946104630BD91EA4D
:1004B000030F1EBF0021002030BD5FEA545C05D150
:1004C0004000494128BF41F0004130BD14F580048F
:1004D0003CBF01F5801130BD01F0004545F0FE4103
:1004E00041F470014FF0000030BD7FEA645C1ABF38
:1004F000194610467FEA655C1CBF0B46024650EA6F
:10050000013406BF52EA033591EA030F41F400219A
:1005100030BD00BF90F0000F04BF0021704730B520
:100520004FF4806404F132044FF000054FF00001F5
:1005300050E700BF90F0000F04BF0021704730B5B6
:100540004FF4806404F1320410F0004548BF40428B
:100550004FF000013EE700BF42004FEAE2014FEAE0
:1005600031014FEA02701FBF12F07F4393F07F4FBB
:1005700081F06051704732F07F4208BF704793F0BE
:100580007F4F04BF41F40021704730B54FF46074D1
:1005900001F0004521F000411CE700BF50EA0102D4
:1005A00008BF704730B54FF000050AE050EA01027D
:1005B00008BF704730B511F0004502D5404261EBED
:1005C00041014FF4806404F132045FEA915C3FF42E
:1005D000D8AE4FF003025FEADC0C18BF03325FEACB
:1005E000DC0C18BF033202EBDC02C2F1200300FA7C
:1005F00003FC20FA02F001FA03FE40EA0E0021FAA1
:1006000002F11444BDE600BF70B54FF0FF0C4CF48E
:10061000E06C1CEA11541DBF1CEA135594EA0C0F40
:1006200095EA0C0F00F0DEF82C4481EA030621EA7B
:100630004C5123EA4C5350EA013518BF52EA0335B6
:1006400041F4801143F4801338D0A0FB02CE4FF068
:100650000005E1FB02E506F00042E0FB03E54FF098
:100660000006E1FB03569CF0000F18BF4EF0010E90
:10067000A4F1FF04B6F5007F64F5407404D25FEA8C
:100680004E0E6D4146EB060642EAC62141EA55513F
:100690004FEAC52040EA5E504FEACE2EB4F1FD0C81
:1006A00088BFBCF5E06F1ED8BEF1004F08BF5FEAFF
:1006B000500E50F1000041EB045170BD06F00046B1
:1006C00046EA010140EA020081EA0301B4EB5C045E
:1006D000C2BFD4EB0C0541EA045170BD41F4801156
:1006E0004FF0000E013C00F3AB8014F1360FDEBF7B
:1006F000002001F0004170BDC4F10004203C35DA57
:100700000C341BDC04F11404C4F1200500FA05F3D9
:1007100020FA04F001FA05F240EA020001F000427A
:1007200021F0004110EBD37021FA04F642EB0601F0
:100730005EEA430E08BF20EAD37070BDC4F10C041A
:10074000C4F1200500FA04F320FA05F001FA04F2DE
:1007500040EA020001F0004110EBD37041F10001CA
:100760005EEA430E08BF20EAD37070BDC4F12005D5
:1007700000FA05F24EEA020E20FA04F301FA05F23D
:1007800043EA020321FA04F001F0004121FA04F2E5
:1007900020EA020000EBD3705EEA430E08BF20EAB5
:1007A000D37070BD94F0000F0FD101F000464000EF
:1007B00041EB010111F4801F08BF013CF7D041EA71
:1007C000060195F0000F18BF704703F00046520075
:1007D00043EB030313F4801F08BF013DF7D043EA46
:1007E0000603704794EA0C0F0CEA135518BF95EAFC
:1007F0000C0F0CD050EA410618BF52EA4306D1D183
:1008000081EA030101F000414FF0000070BD50EAA1
:10081000410606BF1046194652EA430619D094EA2B
:100820000C0F02D150EA013613D195EA0C0F05D115
:1008300052EA03361CBF104619460AD181EA030169
:1008400001F0004141F0FE4141F470014FF0000021
:1008500070BD41F0FE4141F4780170BD70B54FF0BC
:10086000FF0C4CF4E06C1CEA11541DBF1CEA13553C
:1008700094EA0C0F95EA0C0F00F0A7F8A4EB05041E
:1008800081EA030E52EA03354FEA013100F0888015
:100890004FEA03334FF0805545EA131343EA1263DE
:1008A0004FEA022245EA111545EA10654FEA002693
:1008B0000EF000419D4208BF964244F1FD0404F54C
:1008C000407402D25B084FEA3202B61A65EB0305A8
:1008D0005B084FEA32024FF480104FF4002CB6EB65
:1008E000020E75EB030E22BFB61A754640EA0C00E5
:1008F0005B084FEA3202B6EB020E75EB030E22BF25
:10090000B61A754640EA5C005B084FEA3202B6EB65
:10091000020E75EB030E22BFB61A754640EA9C0024
:100920005B084FEA3202B6EB020E75EB030E22BFF4
:10093000B61A754640EADC0055EA060E18D04FEAB2
:10094000051545EA16754FEA06164FEAC30343EA52
:1009500052734FEAC2025FEA1C1CC0D111F4801F1F
:100960000BD141EA00014FF000004FF0004CB6E718
:1009700011F4801F04BF01430020B4F1FD0C88BFB7
:10098000BCF5E06F3FF6AFAEB5EB030C04BFB6EBC2
:10099000020C5FEA500C50F1000041EB045170BDB5
:1009A0000EF0004E4EEA113114EB5C04C2BFD4EBE2
:1009B0000C0541EA045170BD41F480114FF0000E66
:1009C000013C90E645EA060E8DE60CEA135594EAE2
:1009D0000C0F08BF95EA0C0F3FF43BAF94EA0C0FE5
:1009E0000AD150EA01347FF434AF95EA0C0F7FF45A
:1009F00025AF104619462CE795EA0C0F06D152EAAE
:100A000003353FF4FDAE1046194622E750EA410691
:100A100018BF52EA43067FF4C5AE50EA41047FF4A2
:100A20000DAF52EA43057FF4EBAE12E74FF0FF3C07
:100A300006E000BF4FF0010C02E000BF4FF0010CD8
:100A40004DF804CD4FEA410C7FEA6C5C4FEA430C51
:100A500018BF7FEA6C5C1BD001B050EA410C0CBFA0
:100A600052EA430C91EA030F02BF90EA020F002002
:100A7000704710F1000F91EA030F58BF994208BF69
:100A800090422CBFD8176FEAE37040F00100704726
:100A90004FEA410C7FEA6C5C02D150EA013C07D17D
:100AA0004FEA430C7FEA6C5CD6D152EA033CD3D0C8
:100AB0005DF8040B704700BF8446104662468C46C2
:100AC0001946634600E000BF01B5FFF7B7FF0028F5
:100AD00048BF10F1000F01BD4DF808EDFFF7F4FF1E
:100AE0000CBF012000205DF808FB00BF4DF808EDA9
:100AF000FFF7EAFF34BF012000205DF808FB00BFCC
:100B00004DF808EDFFF7E0FF94BF012000205DF8ED
:100B100008FB00BF4DF808EDFFF7CEFF94BF0120A2
:100B200000205DF808FB00BF4DF808EDFFF7C4FF9B
:100B300034BF012000205DF808FB00BF4FEA410CE4
:100B40007FEA6C5C02D150EA013C0AD14FEA430CC7
:100B50007FEA6C5C02D152EA033C02D14FF0000004
:100B600070474FF0010070474FEA410212F5001242
:100B700015D211D56FF47873B3EB625212D94FEAE4
:100B8000C12343F0004343EA505311F0004F23FACE
:100B900002F018BF404270474FF00000704750EA23
:100BA000013005D111F0004008BF6FF000407047E0
:100BB0004FF00000704700BF4A0011D212F500123A
:100BC00011D20DD56FF47873B3EB62520ED44FEAA5
:100BD000C12343F0004343EA505323FA02F0704725
:100BE0004FF00000704750EA013002D14FF0FF3063
:100BF00070474FF0000070474FEA4102B2F1E04306
:100C000024BFB3F5001CDCF1FE5C0DD901F0004CF3
:100C10004FEAC0024CEA5070B2F1004F40EB830043
:100C200008BF20F00100704711F0804F21D113F16F
:100C30003872BCBF01F00040704741F480114FEAA8
:100C40005252C2F11802C2F1200C10FA0CF320FA31
:100C500002F018BF40F001004FEAC1234FEAD3234E
:100C600003FA0CFC40EA0C0023FA02F34FEA4303B8
:100C7000CCE77FEA625307D150EA01331EBF4FF041
:100C8000FE4040F44000704701F0004040F0FE405C
:100C900040F40000704700BF53B94AB9002908BFAB
:100CA00000281CBF4FF0FF314FF0FF3000F0A0B91B
:100CB000ADF1080C6DE904CE00F03CF8DDF804E07D
:100CC000DDE9022304B0704738B500220023044652
:100CD0000D46FFF70BFF28B920462946BDE83840EE
:100CE00000F00AB8204605F1004100F005F8404246
:100CF00061EB410138BD00BFD0B50C4B0022064668
:100D00000F46FFF781FCFFF757FF0446FFF702FC91
:100D1000074B0022FFF778FC02460B463046394667
:100D2000FFF7BAFAFFF748FF2146D0BD0000F03DBB
:100D30000000F0412DE9F047089D0C46002B4ED1F4
:100D400094468C458646B2FA82F262D94AB1C2F123
:100D50002003914020FA03F30CFA02FC194300FA35
:100D600002FE4FEA1C471FFA8CF6B1FBF7F44FEA7C
:100D70001E4307FB141143EA014304FB06F19942A9
:100D80000AD91CEB030304F1FF3080F01281994271
:100D900040F20F81023C6344591A1FFA8EF3B1FBF3
:100DA000F7F007FB101143EA014300FB06F69E42F1
:100DB0000AD91CEB030300F1FF3180F0FC809E4256
:100DC00040F2F980634402389B1B40EA0440002152
:100DD0001DB1D3400022C5E90032BDE8F0878B4247
:100DE00005D90DB1C5E9000100210846F5E7B3FAC0
:100DF00083F1002946D1A34202D39042C0F0F08093
:100E0000861A64EB03030120002DE6D0C5E90063D8
:100E1000E3E7002A40F09080A1EB0C044FEA1C4865
:100E20001FFA8CF70121B4FBF8F64FEA1E4308FBCA
:100E3000164443EA044307FB06F0984208D91CEB2A
:100E4000030306F1FF3402D2984200F2CD80264619
:100E50001C1A1FFA8EF3B4FBF8F008FB104443EAA7
:100E6000044300FB07F79F4208D91CEB030300F182
:100E7000FF3402D29F4200F2B0802046DB1B40EAE2
:100E80000640A5E7C1F120068B4022FA06F71F4372
:100E900020FA06FC04FA01F343EA0C03F44000FADA
:100EA00001F8380C4FEA1349B4FBF0FE1FFA87FC37
:100EB00000FB1E4449EA04440EFB0CF9A14502FA6A
:100EC00001F20AD93C190EF1FF3A80F08480A14565
:100ED00040F28180AEF1020E3C44A4EB09041FFAFB
:100EE00083F9B4FBF0F300FB134449EA044403FB29
:100EF0000CFCA44507D93C1903F1FF3067D2A44587
:100F000065D9023B3C4443EA0E40A0FB0293A4EBAC
:100F10000C049C42CE469C4651D34ED055B1B8EB02
:100F20000E0364EB0C0404FA06F6CB401E43CC40DF
:100F3000C5E90064002150E7C2F1200320FA03F163
:100F40000CFA02FC24FA03F394400C434FEA1C48C9
:100F500000FA02FE1FFA8CF7B3FBF8F008FB103121
:100F6000230C43EA014300FB07F1994208D91CEB2B
:100F7000030300F1FF362CD299422AD90238634488
:100F80005B1AA4B2B3FBF8F108FB113344EA034443
:100F900001FB07F3A34208D91CEB040401F1FF365F
:100FA00013D2A34211D902396444E41A41EA004140
:100FB00039E70446F0E6084606E7C845AED2B9EB85
:100FC000020E63EB070C0138A8E73146EDE7034654
:100FD00099E73046D4E7D6467FE7634402384DE7C9
:100FE0000646234608460FE7023E634430E700BF4B
:100FF000704700BF80B584B000AF002001F026F834
:101000000346FB60012001F021F80346BB6002208B
:1010100001F01CF803467B60032001F017F803463B
:101020003B60FB68AD2B11D1BB681D2B0ED17B68DB
:10103000ED2B0BD13B68012B08D1084800F0CCF90F
:10104000012252212F2001F03FF803E0044800F074
:10105000C3F900BF00BF1037BD4680BD98B001087E
:10106000B4B0010880B582B000AF2D2000F0EEFFD3
:101070000346FB71FB7923F00103FB71FB7901222D
:1010800019462D2001F020F8034800F0A5F900BF13
:101090000837BD4680BD00BFCCB0010880B485B024
:1010A00000AF78600023FB607B681B097B607B6876
:1010B000C3F313037B607B6803F40023002B06D08B
:1010C0007B686FEA03336FEA1333FB6001E07B68F0
:1010D000FB60FB6818461437BD465DF8047B70471B
:1010E00080B584B000AF0023FB810023BB600FE01C
:1010F000BB685902FB1D0122184600F0DBF8FB79A2
:10110000FF2B02D0FB890133FB81BB680133BB603D
:10111000BB6841F6FE729342EADDFB891846103740
:10112000BD4680BD80B483B000AF786000BF0C378F
:10113000BD465DF8047B704780B500AF01221021E9
:101140004FF0904003F038F900BF80BD80B500AF8C
:10115000002210214FF0904003F02EF900BF80BD17
:1011600080B582B000AF1E4B05221A70FFF7EEFF6C
:1011700001221B491B4807F055FA0346FB711A4B25
:101180001B684FF0FF3118460DF058FFFB79002B1C
:1011900001D001F009FD154B01221A7014E0012263
:1011A0001249104807F02EFB0346FB71104B1B68D9
:1011B0004FF0FF3118460DF041FFFB79002B03D0B3
:1011C000FFF7BAFF01F0F0FC084B1B7803F00103B6
:1011D000002BE4D1FFF7B0FF00BF0837BD4680BD4C
:1011E0002C030020B4070020C80A0020900500202E
:1011F000CC0A002080B582B000AF0023FB70002332
:101200007B60FFF7A3FF104B06221A7001220E49E4
:101210000E4807F007FA0346FB700D4B1B684FF0B2
:10122000FF3118460DF00AFFFFF786FFFB78002B11
:1012300003D04FF0FF337B6001E000237B607B68CD
:1012400018460837BD4680BD2C030020B407002097
:10125000C80A002080B582B000AF0023FB700023D5
:101260007B60FFF773FF114B04221A704FF6FF7378
:1012700001220E490E4806F006FD0346FB70FFF7FB
:101280005BFF40F262220021084814F01DFAFB784F
:10129000002B03D04FF0FF337B6001E000237B6025
:1012A0007B6818460837BD4680BD00BF2C03002070
:1012B000B407002080B586B000AFF860B9607A60EE
:1012C0000023FB7500233B61264B03221A70BB6889
:1012D0001B0CDAB2234B5A70BB681B0ADAB2214BE3
:1012E0009A70BB68DAB21F4BDA70FFF72FFF042247
:1012F0001C491D4807F096F90346FB751B4B1B68FC
:101300004FF0FF3118460DF099FEFB7D002B02D007
:10131000FFF712FF11E07B689BB21A46F96812488A
:1013200007F070FA0346FB75114B1B684FF0FF3155
:1013300018460DF083FEFFF7FFFE40F26222002107
:10134000084814F0C1F9FB7D002B03D04FF0FF33A8
:101350003B6101E000233B613B6918461837BD46FD
:1013600080BD00BF2C030020B4070020C80A002065
:10137000CC0A002080B582B000AF0023FB700023B0
:101380007B60134BC7221A70FFF7E0FE4FF6FF7326
:1013900001220F490F4806F076FC0346FB70FFF769
:1013A000CBFEFFF7DDFE40F262220021084814F078
:1013B0008BF9FB78002B03D04FF0FF337B6001E00B
:1013C00000237B607B6818460837BD4680BD00BFA0
:1013D0002C030020B40700200FB480B582B000AF0A
:1013E00007F114033B603B683A694FF480710B4886
:1013F00014F0C8F80948FEF743FF03467B607B689A
:101400009AB24FF0FF330549054808F0B7FB00BF1B
:101410000837BD46BDE8804004B07047948901207C
:10142000E809002080B500AF01F0B1FF00F0A4F89A
:1014300000F05CFA00F010FA00F000F900F0DCF9BE
:1014400000F038F9354B5B68344A43F010035360C1
:101450004FF4FA7002F010F8304B5B6903F48053DC
:10146000B3F5805F01D011F087F800F061F900F06A
:101470009DF90DF0F7FB2A480DF0D0FC0346294AF0
:101480001360294A002101200DF04EFD0346274A32
:101490001360274A002101200DF046FD0346254A2E
:1014A0001360254A002101200DF03EFD0346234A2A
:1014B0001360234A002101200DF036FD0346214A26
:1014C0001360214A002101200DF02EFD03461F4A22
:1014D00013601F4A002101200DF026FD03461D4A1E
:1014E00013601D4A01211E200DF03EFE03461B4ADB
:1014F00013601B4A00211B480DF0FEFB03461A4AED
:1015000013601A4A00211A480DF0F6FB0346194AE7
:1015100013600DF0CBFB00BFFDE700BF0070004083
:1015200014B50108C40A002024B50108C80A002027
:1015300034B50108CC0A002044B50108D00A0020C7
:1015400054B50108D40A002064B50108D80A002067
:1015500074B50108DC0A0020FCB40108C00A0020B0
:10156000B4B401087D2A0008B80A0020D8B40108E4
:10157000592B0008BC0A002080B596B000AF07F1D7
:10158000140344220021184614F09EF83B46002222
:101590001A605A609A60DA601A614FF4007004F0C1
:1015A00025FD0346002B01D001F0FEFA04F0CCFC2F
:1015B000214BD3F89030204A23F01803C2F8903022
:1015C00005237B614FF48033BB610123FB61002362
:1015D000BB630223FB6303233B6402237B640E2370
:1015E000BB641323FB6408233B6508237B6507F179
:1015F0001403184604F0A8FD0346002B01D001F0A7
:10160000D3FA0F233B6003237B608023BB6000235E
:10161000FB6000233B613B460021184605F0ACF916
:101620000346002B01D001F0BFFA05F069FB00BFB3
:101630005837BD4680BD00BF0010024080B500AFE6
:10164000194B1A4A1A60184B00225A60164B7F2217
:101650009A60154BFF22DA60134B00221A61124B7D
:1016600000225A61104B00229A610F4B0022DA616E
:101670000D4805F02FFF0346002B01D001F094FA2E
:101680000B4B00229A600A4B00225A60084B002242
:101690001A60074B0122DA60054B01221A61044BE4
:1016A00022225A6100BF80BD900700200028004020
:1016B000E40A002080B500AF1B4B1C4A1A601A4B8D
:1016C0004FF482725A60184B00229A60164B4FF406
:1016D000E062DA60144B00221A61134B00225A6157
:1016E000114B4FF400729A610F4B1022DA610E4BCE
:1016F00000221A620C4B00225A620B4B00229A62A3
:10170000094B0722DA62084B00221A63064B0822B3
:101710005A63054806F014FA0346002B01D001F085
:1017200043FA00BF80BD00BFB40700200030014075
:1017300080B500AF1B4B1C4A1A601A4B4FF48272E3
:101740005A60184B00229A60164B4FF4E062DA6040
:10175000144B00221A61134B00225A61114B4FF4B3
:1017600000729A610F4B2822DA610E4B00221A6236
:101770000C4B00225A620B4B00229A62094B072243
:10178000DA62084B00221A63064B08225A630548A6
:1017900006F0D6F90346002B01D001F005FA00BF90
:1017A00080BD00BF180800200038004080B500AFA1
:1017B0000F4B104A1A600E4B00225A600C4B00224D
:1017C0009A600B4B4FF47A42DA60094B00221A619F
:1017D000074B00225A61064B80229A61044807F0A9
:1017E000E5FE0346002B01D001F0DEF900BF80BD0D
:1017F0009C0900200044014080B500AF134B144AFF
:101800001A60124B134A5A60104B00229A600F4B19
:101810000022DA600D4B00221A610C4B0C225A6137
:101820000A4B00229A61094B0022DA61074B002221
:101830001A62064B00225A62044808F051F9034626
:10184000002B01D001F0B0F900BF80BDE8090020F5
:1018500000380140801A060080B582B000AF224BEC
:101860009B6C214A43F0010393641F4B9B6C03F074
:1018700001037B607B681C4B9B6C1B4A43F002039B
:101880009364194B9B6C03F002033B603B6800229E
:1018900005210C2001F023FF0C2001F03CFF002269
:1018A00005210D2001F01BFF0D2001F034FF002267
:1018B00005210E2001F013FF0E2001F02CFF002265
:1018C00005210F2001F00BFF0F2001F024FF002263
:1018D0000521442001F003FF442001F01CFF00BF5C
:1018E0000837BD4680BD00BF0010024080B58AB0F9
:1018F00000AF07F1140300221A605A609A60DA60A0
:101900001A614A4BDB6C494A43F00403D364474BEA
:10191000DB6C03F004033B613B69444BDB6C434AE3
:1019200043F08003D364414BDB6C03F08003FB6026
:10193000FB683E4BDB6C3D4A43F00103D3643B4BF9
:10194000DB6C03F00103BB60BB68384BDB6C374AD0
:1019500043F00203D364354BDB6C03F002037B607E
:101960007B68002210214FF0904002F025FD0022FC
:101970004FF480512E4802F01FFD0022C0212D4857
:1019800002F01AFD10237B610123BB610023FB6180
:1019900003233B6207F1140319464FF0904002F015
:1019A00091FB4FF480537B610123BB610023FB61FA
:1019B00000233B6207F1140319461D4802F082FB25
:1019C0004FF400537B614FF40413BB610123FB61AF
:1019D00007F114031946164802F074FB40237B619B
:1019E0000123BB610023FB6103233B6207F1140366
:1019F0001946104802F066FB80237B610123BB611E
:101A00000223FB6100233B6207F1140319460948D6
:101A100002F058FB00220521282001F060FE28205A
:101A200001F079FE00BF2837BD4680BD001002409E
:101A3000000400480008004880B582B000AF78601C
:101A40000348FFF7C9FC00BF0837BD4680BD00BF93
:101A500014B2010880B584B000AFF860B9601346D5
:101A6000FB71FB681B880A2B05D11C48FFF7B4FCEF
:101A70004FF0FF332DE0FB685B881946FA6864235A
:101A800001FB03F313440633FA791A70FB685B8891
:101A90001A46642302FB03F30133FA681344063346
:101AA000FA79B968184613F0E4FEFB681B88013325
:101AB0009AB2FB681A80FB685B8801339AB2FB68B4
:101AC0005A80FB685B880A2B02D1FB6800225A808F
:101AD000002318461037BD4680BD00BF20B2010864
:101AE00080B582B000AF786039607B681B88002BBE
:101AF00005D11B48FFF770FC4FF0FF332BE07B68EC
:101B00009B881A46642302FB03F37A681344991DE9
:101B10007B689B8818467A68642300FB03F31344B0
:101B200006331B7801331A46386813F0A2FE7B682F
:101B30001B88013B9AB27B681A807B689B880133C3
:101B40009AB27B689A807B689B880A2B02D17B685B
:101B500000229A80002318460837BD4680BD00BF8A
:101B600034B20108B0B590B002AF786000237B8634
:101B700064233B864FF000024FF00003C7E90823BF
:101B8000644B1B684FF0FF3118460DF057FA624B5B
:101B90001B8819466148FFF71FFC17E060495E4843
:101BA000FFF79EFF00237B630AE07B6B01335C4AF7
:101BB000D35C19465B48FFF70FFC7B6B01337B63FB
:101BC000574B1B781A467B6B9342EEDB524B1B88BC
:101BD000002BE3D1524B5B78082B19DC002B40F330
:101BE0009380013B072B00F28F8001A252F823F073
:101BF000231C0008391C00085B1C0008631C00083B
:101C00007B1C0008B31C0008FB1C0008111D000809
:101C1000FF2B79D1424B1B781946434810F0A4FDA5
:101C200077E0FFF75DFA03467B8607F13203022176
:101C3000184610F099FD6CE0394B5B887B867B8EF3
:101C40005B024FF4F67219463848FFF733FB4FF446
:101C5000F671364810F088FD5BE0314B5B883B86BF
:101C600057E0334BD3E90023C7E90A2307F12803E0
:101C70000821184610F078FD4BE0294B02331C6810
:101C80005D6822462B46C7E90823D7E9082310469A
:101C9000194600F05FF864200EF0F8FD254B019323
:101CA000254B0093254B264A2649274800F0FCF88F
:101CB0002FE01B4B9B783B73194BDB787B73184BE6
:101CC0001B79BB73164B5B793B72154B9B79FB728F
:101CD000134BDB797B72124B1B7ABB7207F10C033F
:101CE00001221946194805F07DFC07F1080301227D
:101CF0001946164805F013FD0BE0FFF77BFAFFF7D6
:101D000039FBFFF7A7FA04E01148FFF765FB00E095
:101D100000BF35E7D00A0020900B002074B2010804
:101D2000200B002088B20108210B0020948701209D
:101D300000E00708000000208C0B002002000020BB
:101D4000860B0020850B0020880B002090070020C8
:101D50008CB2010880B584B000AFC7E90001002350
:101D6000FB730023BB7301F0A3FF0346002B03D0DA
:101D70004248FFF731FB02E04148FFF72DFB414BA2
:101D80004FF400421A61404B00221A603E4B012280
:101D9000DA603D4BFC229A603B4B01225A60962050
:101DA0000EF074FD3949384802F066F80346BB73FB
:101DB0000EE03748FFF710FBFB7B0133FB739620E7
:101DC0000EF064FD3149304802F056F80346BB730B
:101DD000BB7B002B14BF01230023DAB2FB7B022B59
:101DE00094BF01230023DBB21340DBB2002BE0D110
:101DF000BB7B002B02D12748FFF7EEFA96200EF0AE
:101E000045FD0023FB73D7E900232349002001F09F
:101E1000E3FE0346BB7312E0BB7B19461F48FFF786
:101E2000DBFAFB7B0133FB7396200EF02FFDD7E925
:101E300000231949002001F0CFFE0346BB73BB7B92
:101E4000002B14BF01230023DAB2FB7B022B94BFCB
:101E500001230023DBB21340DBB2002BDCD1BB7BC0
:101E6000002B02D10E48FFF7B7FA01F043FF0D48EF
:101E7000FFF7B2FA00BF1037BD4680BDA0B201081F
:101E8000BCB2010800200240100B00200C0B002007
:101E9000D0B20108ECB2010800E0070800B3010865
:101EA00020B3010834B3010880B489B000AFF860F2
:101EB000B9607A603B60224B224A1A60214BFB6179
:101EC000FB69D3E900014FF000024FF000030A0064
:101ED000002313467B61FB69D3E900231346BB61F2
:101EE00007F114031A68FB681A60BB69DB0FDAB2EA
:101EF000BB681A70BB699B0FDBB203F00103DAB257
:101F00007B681A70BB695B0FDBB203F00103DAB2C6
:101F10003B681A70BB691B0C9BB2C3F30C039AB2EB
:101F2000BB6A1A80BB691B099BB2C3F30B039AB24D
:101F3000FB6A1A8000BF2437BD465DF8047B7047FA
:101F4000080B002000E0070880B582B000AF786081
:101F50000648FFF741FA282001F0DDFB786805F01C
:101F600061FD00BF0837BD4680BD00BF50B301080A
:101F700080B582B000AF7860044B1B6818460DF046
:101F8000AFF800BF0837BD4680BD00BFD40A0020AF
:101F900080B582B000AF7860044B1B6818460DF026
:101FA0009FF800BF0837BD4680BD00BFD40A00209F
:101FB00080B584B000AF0346FB71FB795B005BB278
:101FC00043F001035BB2DBB27B7300224FF480511C
:101FD0001A4802F0F1F907F10D03012219461848D9
:101FE00006F020FB0346FB73164B1B684FF0FF31D6
:101FF00018460DF023F807F10E0301221946104888
:1020000006F000FC0346FB730E4B1B684FF0FF31DC
:1020100018460DF013F801224FF48051074802F0E2
:10202000CBF9FB7B002B01D1BB7B03E0064813F00F
:1020300013FAFF2318461037BD4680BD0004004840
:1020400018080020D40A002060B3010880B584B0CD
:1020500000AF0346FB71FB795B005BB243F0010309
:102060005BB2DBB27B7300224FF48051134802F065
:10207000A3F907F10D0164230122114805F003FEC5
:102080000346FB7307F10E01642301220C4805F09F
:102090006FFF0346FB7301224FF48051074802F0A3
:1020A0008BF9FB7B002B01D1BB7B03E00548FFF7DD
:1020B00093F9FF2318461037BD4680BD0004004841
:1020C0001808002088B3010880B584B000AF03462B
:1020D000FB710B46BB7113467B71FB795B00DBB276
:1020E000BB7300224FF48051114802F065F907F1EB
:1020F0000E01642301220F4805F0C5FD0346FB7362
:10210000B91D642301220B4805F0BDFD0346FB7396
:1021100001224FF48051064802F04EF9FB7B002B60
:1021200002D0054813F098F900BF1037BD4680BDB6
:102130000004004818080020B0B3010880B586B03C
:1021400000AF0346FB7100237B6100233B6100234A
:10215000FB600023BB60FB79022B20D0022B2BDC21
:10216000002B02D0012B0DD026E00820FFF720FF26
:1021700078610920FFF71CFF38610A20FFF718FF7C
:10218000F86019E00B20FFF713FF78610C20FFF7D0
:102190000FFF38610D20FFF70BFFF8600CE00E20F9
:1021A000FFF706FF78610F20FFF702FF386110206C
:1021B000FFF7FEFEF86000BF7B691B0403F47F029B
:1021C0003B691B029BB21A43FB68DBB21343184600
:1021D000FEF764FFB860BB6818461837BD4680BD7F
:1021E00080B582B000AF0346FB80FB88B3F5005F8B
:1021F0000BD1282001F09DFA064B00221A600648F8
:1022000007F02CFA0548FFF7E7F800BF0837BD468E
:1022100080BD00BF800F00209C090020D8B30108BA
:1022200080B582B000AF78600B4B1B68B3F5007FC0
:1022300005D20A4B1B6818460CF052FF07E008480D
:1022400007F068FA074B1B6818460CF049FF00BFFF
:102250000837BD4680BD00BF800F0020DC0A00208B
:102260009C090020D80A00202DE9B04FA6B000AF8D
:102270000023C7F8943030E06F4AD7F8943052F812
:1022800023301846FEF756F967A3D3E90023FEF77B
:10229000E5FA02460B461046194665A3D3E900232A
:1022A000FDF7FAFF02460B46104619464FF00002B2
:1022B000624BFEF7A9F902460B4610461946FEF797
:1022C0009BFC02465E49D7F894309B000B441A6091
:1022D000D7F894300133C7F89430D7F89430B3F579
:1022E000007FC9DB07F134034FF40061184611F099
:1022F00089F807F134000023524A514911F066F978
:102300000023C7F890303CE04E4AD7F890309B004D
:102310001344D3ED007AF5EEC07AF1EE10FA10DB3B
:10232000494AD7F890309B0013444FF07E521A6010
:10233000D7F890300133444A9B0013444FF07E524B
:102340001A60404AD7F890309B001344D3ED007ACE
:10235000F5EEC07AF1EE10FA0ED53B4AD7F8903080
:102360009B001344394A1A60D7F890300133364A3B
:102370009B001344354A1A60D7F890300233C7F8EF
:102380009030D7F89030B3F5006FBDDB0023C7F86D
:102390008C300023C7F8883031E0D7F88C30013317
:1023A000284A9B00134493ED007A264AD7F88C30D4
:1023B0009B001344D3ED007AC7EE276A16EE900A0D
:1023C000FEF7CAF802460B4643EC102B16F0B4FD9C
:1023D00053EC102B10461946FEF70EFC02461C4922
:1023E000D7F888309B000B441A60D7F88C30023342
:1023F000C7F88C30D7F888300133C7F88830D7F861
:102400008C30B3F5006F04DAD7F88830B3F5806FFD
:10241000C3DB4FF480620B490A4811F0B5FC00237E
:10242000C7F8843048E100BF9A9999999999D940A1
:102430008B6CE7FBA9712340840F002000408F4084
:10244000841700208437002084770020000080BF9C
:1024500084570020D7F88400FEF76CF84FF0000294
:102460004FF07F53FEF7D0F802460B461046194650
:10247000FEF7C2FB0246D049D7F884309B000B44DC
:102480001A60CE4BCE4A1A60CE4BCF4A1A60CF4B61
:10249000CF4A1A60C84AD7F884309B0013441B689F
:1024A0001846FEF759F802460B469FEDBF1B43EC5A
:1024B000102B16F0A3FC55EC104BBF4AD7F8843014
:1024C0009B0013441B681846FEF746F802460B466D
:1024D0009FEDB51B43EC102B16F090FC59EC108BC4
:1024E000B64B1B681846FEF737F802460B469FEDC1
:1024F000AE1B43EC102B16F081FC53EC102B404626
:102500004946FDF7CBFE02460B4620462946FEF71C
:10251000A5F902460B4643EC172BB0EE470AF0EE46
:10252000670A16F0DBFC55EC104BA64B1B681846EF
:10253000FEF712F802460B469FED9B1B43EC102B57
:1025400016F05CFC59EC108B9B4AD7F884309B004A
:1025500013441B681846FDF7FFFF02460B469FED2C
:10256000921B43EC102B16F049FC5BEC10AB954B27
:102570001B681846FDF7F0FF02460B469FED8A1BCD
:1025800043EC102B16F03AFC53EC102B50465946F6
:10259000FDF784FE02460B4640464946FEF75EF9CB
:1025A00002460B4643EC172BB0EE470AF0EE670AE3
:1025B00016F094FC53EC102B20462946FEF724F825
:1025C00002460B4614461D46804B1B681846FDF715
:1025D000C3FF02460B469FED761B43EC102B16F013
:1025E0000DFC59EC108B744AD7F884309B001344CF
:1025F0001B681846FDF7B0FF02460B469FED6C1BAB
:1026000043EC102B16F0FAFB5BEC10AB6F4B1B6826
:102610001846FDF7A1FF02460B469FED651B43ECF4
:10262000102B16F0EBFB53EC102B50465946FDF7E0
:1026300035FE02460B4640464946FEF70FF9024674
:102640000B4643EC172BB0EE470AF0EE670A16F084
:1026500045FC53EC102B20462946FDF7D5FF0246DA
:102660000B4610461946FEF7C7FA02465949D7F8F5
:1026700084309B000B441A60574AD7F884309B0083
:10268000134493ED007A534AD7F884309B001344E7
:10269000D3ED007A27EE277ADFED506AC7EE267A6F
:1026A0004D4AD7F884309B001344C3ED007AD7F825
:1026B00084300133C7F88430D7F88430B3F5806FA5
:1026C000FFF6C8AE0023C7F880300023FB675EE04A
:1026D000434AFB6F9B0013441B681846FDF73CFF01
:1026E00002460B4643EC102B16F0BEFD55EC104B8A
:1026F000394AFB6F9B0013441B681846FDF72CFFFB
:1027000002460B4620462946FDF77EFF02460B4651
:1027100010461946FEF770FA02463249D7F8803063
:102720009B000B441A602E4AFB6F9B0013441B68EE
:102730001846FDF711FF02460B4643EC102B16F02E
:10274000EFFD55EC104B244AFB6F9B0013441B68B4
:102750001846FDF701FF02460B4620462946FDF7C5
:1027600053FF02460B4610461946D7F880305C1CD2
:10277000FEF742FA02461B49A3000B441A60D7F841
:1027800080300233C7F88030FB6F0133FB67D7F826
:102790008030B3F5006F03DAFB6FB3F5806F97DB22
:1027A0000023BB6737E000BF0000000000001040BE
:1027B00000000000000000408837012088570120F9
:1027C00018594B3F8C5701200000C84290570120F8
:1027D00030E4B54088170120843700200000804491
:1027E0008457002084970020984ABB6F9B001344B5
:1027F00093ED007A964ABB6F9B001344D3ED007AA9
:1028000067EE277A934ABB6F9B001344C3ED007AAF
:10281000BB6F0133BB67BB6FB3F5006FE4DB07F140
:102820001C034FF40061184610F0ECFD07F11C008A
:102830000123894A874910F0C9FE00237B678AE09B
:102840007B6FB3F5FC6F3DDC4FF000033B677B6FA4
:10285000FB6616E0804AFB6E9B00134493ED007A02
:102860007D4AFB6E9B001344D3ED007A67EE277A16
:1028700097ED1C7A77EE277AC7ED1C7AFB6E013351
:10288000FB667B6F1F33FA6E9A42E3DDD7ED1C7A4D
:102890009FED727AC7EE876A16EE900AFDF75CFE2E
:1028A00002460B4643EC102B16F018FB53EC102B92
:1028B00010461946FEF7A0F9024669497B6F9B0056
:1028C0000B441A607B6FB3F5FC6F41DD4FF00003E2
:1028D000BB667B6F7B6616E05F4A7B6E9B00134492
:1028E00093ED007A5C4A7B6E9B001344D3ED007A33
:1028F00067EE277A97ED1A7A77EE277AC7ED1A7A7C
:102900007B6E01337B667B6EB3F5006FE4DB7B6F20
:10291000C3F5006307EE903AF8EEE77A97ED1A7A7E
:10292000C7EE276A16EE900AFDF716FE02460B4622
:1029300043EC102B16F0D2FA53EC102B104619462C
:10294000FEF75AF9024646497B6F9B000B441A601A
:102950007B6F01337B677B6FB3F5006FFFF670AF62
:102960003B1D4FF40061184610F04CFD381D00234C
:102970003C4A3B4910F02AFE4FF480623A493948FC
:1029800011F002FA00233B6647E0384A3B6E9B0099
:102990001344D3ED007AFDEEE77A17EE903A3B65EB
:1029A000334A3B6E9B001344D3ED007AFDEEE77A89
:1029B00017EE903AFB644FF00003FB650023BB6504
:1029C00010E03A6DBB6D1344274A9B001344D3EDCE
:1029D000007A97ED177A77EE277AC7ED177ABB6DF5
:1029E0000133BB65BA6DFB6C9A42EADB204A3B6E51
:1029F0009B00134493ED007AD7ED177A67EE277AA0
:102A0000B4EE007A67EE877A1A4A3B6E9B00134455
:102A1000C3ED007A3B6E01333B663B6E172BB4DD92
:102A200000237B6509E0104B134A4FF400610E4808
:102A300010F0B4FB7B6D01337B657B6D002BF2DD09
:102A400000BF00BF9837BD46BDE8B08F8497002017
:102A5000847700208417002084B700200000004203
:102A60009457012084D7002084F700200CB6010879
:102A7000A8B50108947701208417012080B582B0A1
:102A800000AF78602748FEF7A7FC274B93F89C32ED
:102A9000DBB2032B15D1244BD3F89432224A92F89F
:102AA0009C22D2B219462148FEF796FC204A00210A
:102AB00020480CF021F903461F4A13601F4B0122E6
:102AC0001A704FF47A700DF0E1FE1D48FEF784FC99
:102AD000FEF790FA64200DF0D9FEFEF7C3FA19480C
:102AE000FEF77AFC184B1B684FF0FF3118460CF0CC
:102AF000A5FA1648FEF770FCFFF7B6FB1448FEF780
:102B00006BFC144B4FF400525A61282000F003FE76
:102B100000F0D6FC01214FF4804003F025FA00BFFD
:102B2000E0E700BFE4B3010888180220FCB3010805
:102B300084B50108651B0008E00A0020840B002012
:102B40000CB4010820B40108D80A002034B40108EC
:102B500048B401080004014090B583B000AF78602C
:102B60000D4B1B684FF0FF3118460CF067FA4021FF
:102B70000A4801F039FC0A4B1C680220FFF7DEFA14
:102B80000346084A42F82430054B1B680133044AC7
:102B9000136000BFE4E700BFDC0A00200008004823
:102BA000800F0020840F002080B400AF72B600BFF9
:102BB00000BFFDE780B582B000AF114B1B6E104A1D
:102BC00043F0010313660E4B1B6E03F001037B60A1
:102BD0007B680B4B9B6D0A4A43F080539365084B0F
:102BE0009B6D03F080533B603B6800220F216FF028
:102BF000010000F074FD00BF0837BD4680BD00BF76
:102C00000010024080B59CB000AF786007F1080367
:102C100068220021184612F057FD7B681B68134A92
:102C200093421FD14FF40033BB604FF48073FB66B7
:102C300007F10803184604F0EFF80346002B01D013
:102C4000FFF7B2FF0A4BD3F89030094A43F4004330
:102C5000C2F8903000220521032000F040FD03203F
:102C600000F059FD00BF7037BD4680BD0028004010
:102C70000010024080B58CB000AF786007F11C03F3
:102C800000221A605A609A60DA601A617B681B68D9
:102C90008A4A934240F08480894B1B6E884A43F4F1
:102CA00080531366864B1B6E03F48053BB61BB6974
:102CB000834BDB6C824A43F00103D364804BDB6CB3
:102CC00003F001037B617B69E023FB6102233B622C
:102CD00000237B620323BB620523FB6207F11C0315
:102CE00019464FF0904001F0EDF9764B764A1A60A4
:102CF000744B01225A60734B00229A60714B002280
:102D0000DA60704B80221A616E4B00225A616D4B63
:102D100000229A616B4B0022DA616A4B00221A6230
:102D2000684800F021FD0346002B01D0FFF73CFF6F
:102D30007B68644A9A65634A7B689362634B644A22
:102D40001A60624B01225A60604B10229A605F4BFE
:102D50000022DA605D4B80221A615C4B00225A61CE
:102D60005A4B00229A61594B0022DA61574B0022DC
:102D70001A62564800F0F8FC0346002B01D0FFF71A
:102D800013FF7B68514A5A65504A7B689362002260
:102D90000521232000F0A3FC232000F0BCFC88E0E8
:102DA0007B681B684B4A934240F08380444B9B6D89
:102DB000434A43F480439365414B9B6D03F4804346
:102DC0003B613B693E4BDB6C3D4A43F00203D364FD
:102DD0003B4BDB6C03F00203FB60FB684FF44443A6
:102DE000FB6102233B6200237B620323BB6205235A
:102DF000FB6207F11C031946374801F063F9374BB2
:102E0000374A1A60354B01225A60344B00229A60CF
:102E1000324B0022DA60314B80221A612F4B0022A4
:102E20005A612E4B00229A612C4B0022DA612B4B07
:102E300000221A62294800F097FC0346002B01D0BB
:102E4000FFF7B2FE7B68254A9A65244A7B68936245
:102E5000244B254A1A60234B01225A60214B102231
:102E60009A60204B0022DA601E4B80221A611D4BB3
:102E700000225A611B4B00229A611A4B0022DA6130
:102E8000184B00221A62174800F06EFC0346002B14
:102E900001D0FFF789FE7B68124A5A65114A7B68A8
:102EA000936200220521242000F019FC242000F068
:102EB00032FC00BF3037BD4680BD00BF003001404E
:102EC000001002407C0800201C000240C4080020C2
:102ED0003000024000380040000400480C09002087
:102EE00044000240540900205800024080B584B0DC
:102EF00000AF78607B681B680D4A934213D10D4B7D
:102F00001B6E0C4A43F4003313660A4B1B6E03F42A
:102F10000033FB60FB6800220521192000F0DFFB75
:102F2000192000F0F8FB00BF1037BD4680BD00BF80
:102F3000004401400010024080B5A4B000AF7860AA
:102F400007F17C0300221A605A609A60DA601A6105
:102F500007F1140368220021184612F0B5FB7B68C4
:102F60001B68354A934262D101237B6100237B6356
:102F700007F11403184603F04FFF0346002B01D05E
:102F8000FFF712FE2D4B1B6E2C4A43F48043136651
:102F90002A4B1B6E03F480433B613B69274BDB6C80
:102FA000264A43F00203D364244BDB6C03F0020394
:102FB000FB60FB68C023FB670223C7F88030002357
:102FC000C7F884300323C7F888300723C7F88C304C
:102FD00007F17C0319461A4801F074F8194B1A4A94
:102FE0001A60184B02225A60164B10229A60154B39
:102FF0000022DA60134B80221A61124B00225A61C0
:10300000104B00229A610F4B0022DA610D4B002217
:103010001A620C4800F0A8FB0346002B01D0FFF712
:10302000C3FD7B68074A1A67064A7B68936200BF44
:103030009037BD4680BD00BF0038014000100240FF
:1030400000040048700A00206C04024080B500AF04
:1030500003F066FE00BFFDE780B400AF00BFFDE7F0
:1030600080B400AF00BFFDE780B400AF00BFFDE754
:1030700080B400AF00BFFDE780B400AF00BFBD4625
:103080005DF8047B704780B500AF00F0D5F90EF015
:10309000F9F80346012B01D00EF0EEFF00BF80BD12
:1030A00080B500AF024804F01BFD00BF80BD00BF2B
:1030B0009007002080B500AF024800F0AEFC00BFD2
:1030C00080BD00BF7C08002080B500AF024800F042
:1030D000A4FC00BF80BD00BFC408002080B500AFC5
:1030E000024800F09AFC00BF80BD00BF0C09002020
:1030F00080B500AF024800F090FC00BF80BD00BF6B
:103100005409002080B500AF024806F032FB00BF32
:1031100080BD00BF9C09002080B500AF024805F0CB
:1031200015FE00BF80BD00BFB407002080B500AF12
:10313000024805F00BFE00BF80BD00BF180800204C
:1031400080B500AF4FF4005001F068F900BF80BDBA
:1031500080B500AF024801F0A1FA00BF80BD00BFFA
:10316000642D022080B500AF024800F056FC00BF7D
:1031700080BD00BF700A002080B500AF024804F097
:1031800055FB00BF80BD00BF9007002080B400AF9A
:1031900001231846BD465DF8047B704780B582B0B8
:1031A00000AF7860396012F037FB034616221A60D0
:1031B0004FF0FF3318460837BD4680BD80B582B05A
:1031C00000AF78604FF0FF317868FFF7E7FF00BF8E
:1031D000FDE780B586B000AFF860B9607A60002383
:1031E0007B610AE0AFF300800146BB685A1CBA60FD
:1031F000CAB21A707B6901337B617A697B689A4233
:10320000F0DB7B6818461837BD4680BD80B586B0B8
:1032100000AFF860B9607A6000237B6109E0BB68A9
:103220005A1CBA601B781846AFF300807B690133E3
:103230007B617A697B689A42F1DB7B6818461837B4
:10324000BD4680BD80B483B000AF78604FF0FF33DF
:1032500018460C37BD465DF8047B704780B483B0D8
:1032600000AF786039603B684FF400525A60002329
:1032700018460C37BD465DF8047B704780B483B0B8
:1032800000AF7860012318460C37BD465DF8047B1B
:10329000704780B485B000AFF860B9607A600023F1
:1032A00018461437BD465DF8047B704780B586B07C
:1032B00000AF7860144A154BD31A7B617B693B6180
:1032C000134B1B68002B02D1114B124A1A60104B92
:1032D0001A687B6813443A699A4207D212F09CFA42
:1032E00003460C221A604FF0FF3309E0084B1B68BD
:1032F000FB60074B1A687B681344054A1360FB6840
:1033000018461837BD4680BD00800220000400002A
:10331000948A0120C833022080B400AF064BD3F852
:103320008830054A43F47003C2F8883000BFBD46B8
:103330005DF8047B704700BF00ED00E0DFF834D09B
:10334000FFF7EAFF0C480D490D4A002302E0D4586C
:10335000C4500433C4188C42F9D30A4A0A4C0023DF
:1033600001E013600432A242FBD312F05BFAFEF7D5
:1033700059F8FEE700800220000000201003002022
:1033800028ED020810030020C8330220FEE780B5B4
:1033900082B000AF0023FB71032000F095F90F20ED
:1033A00000F00EF80346002B02D00123FB7101E070
:1033B000FFF700FCFB7918460837BD4680BD0000CA
:1033C00080B584B000AF78600023FB73174B1B7887
:1033D000002B23D0164B1A68144B1B7819464FF458
:1033E0007A73B3FBF1F3B2FBF3F3184600F0AFF9D5
:1033F0000346002B0FD17B680F2B09D80022796878
:103400004FF0FF3000F06BF90A4A7B68136007E069
:103410000123FB7304E00123FB7301E00123FB7331
:10342000FB7B18461037BD4680BD00BF0C00002056
:10343000040000200800002080B400AF064B1B7879
:103440001A46064B1B681344044A136000BFBD466E
:103450005DF8047B704700BF0C000020988A0120B3
:1034600080B400AF034B1B681846BD465DF8047B73
:10347000704700BF988A012080B584B000AF7860A3
:10348000FFF7EEFFB8607B68FB60FB68B3F1FF3FBE
:1034900005D00A4B1B781A46FB681344FB6000BF3B
:1034A000FFF7DEFF0246BB68D31AFA689A42F7D8E4
:1034B00000BF00BF1037BD4680BD00BF0C0000201C
:1034C00080B400AF054B1B68044A23F0020313606D
:1034D00000BFBD465DF8047B704700BF10E000E010
:1034E00080B485B000AF78607B6803F00703FB60B1
:1034F0000C4BDB68BB60BA684FF6FF031340BB6040
:10350000FB681A02BB68134343F0BF6343F4003304
:10351000BB60044ABB68D36000BF1437BD465DF88A
:10352000047B704700ED00E080B400AF044BDB6823
:103530001B0A03F007031846BD465DF8047B70477D
:1035400000ED00E080B483B000AF0346FB7197F953
:103550000730002B0BDBFB7903F01F02074997F9BB
:1035600007305B09012000FA02F241F8232000BF76
:103570000C37BD465DF8047B704700BF00E100E0FA
:1035800080B483B000AF0346FB7197F90730002B7E
:1035900012DBFB7903F01F020A4997F907305B0938
:1035A000012000FA02F2203341F82320BFF34F8FAD
:1035B00000BFBFF36F8F00BF00BF0C37BD465DF883
:1035C000047B704700E100E080B483B000AF0346A5
:1035D0003960FB7197F90730002B0ADB3B68DAB2E0
:1035E0000C4997F907301201D2B20B4483F800233B
:1035F0000AE03B68DAB20849FB7903F00F03043BA9
:103600001201D2B20B441A7600BF0C37BD465DF8EA
:10361000047B704700E100E000ED00E080B489B079
:1036200000AFF860B9607A60FB6803F00703FB61E4
:10363000FB69C3F10703042B28BF0423BB61FB69AB
:103640000433062B02D9FB69033B00E000237B61B6
:103650004FF0FF32BB6902FA03F3DA43BB681A404A
:103660007B699A404FF0FF317B6901FA03F3D9433C
:103670007B680B40134318462437BD465DF8047B36
:103680007047000080B582B000AF78607B68013B76
:10369000B3F1807F01D301230FE00A4A7B68013B2D
:1036A00053600F214FF0FF30FFF78EFF054B0022D4
:1036B0009A60044B07221A60002318460837BD465B
:1036C00080BD00BF10E000E080B582B000AF786040
:1036D0007868FFF705FF00BF0837BD4680BD80B59D
:1036E00086B000AF0346B9607A60FB7300237B614C
:1036F000FFF71AFF78617A68B9687869FFF78EFF7B
:10370000024697F90F3011461846FFF75DFF00BFDC
:103710001837BD4680BD80B582B000AF0346FB714F
:1037200097F907301846FFF70DFF00BF0837BD4671
:1037300080BD80B582B000AF0346FB7197F90730BA
:103740001846FFF71DFF00BF0837BD4680BD80B596
:1037500082B000AF78607868FFF794FF03461846A0
:103760000837BD4680BD000080B485B000AF7860EA
:103770007B68002B01D1012398E07B681B681A4607
:103780004D4B9A420FD87B681B681A464B4B13442B
:103790004B4AA2FB03231B099A007B685A647B688F
:1037A000484A1A640EE07B681B681A46464B13446D
:1037B000434AA2FB03231B099A007B685A647B6877
:1037C000424A1A647B68022283F825207B681B68C2
:1037D0001B68FB60FB6823F4FF4323F07003FB606E
:1037E0007B689A687B68DB681A437B681B691A43AD
:1037F0007B685B691A437B689B691A437B68DB695A
:103800001A437B681B6A1343FA681343FB607B68A7
:103810001B68FA681A607B689B68B3F5804F39D0E3
:103820007B681B6C274A93421AD1294B1A687B6824
:103830005B6C03F01C030F2101FA03F3DB43244903
:1038400013400B60224B1A687B6859687B685B6C7D
:1038500003F01C0301FA03F31D4913430B6019E045
:103860001C4B1A687B685B6C03F01C030F2101FA88
:1038700003F3DB43174913400B60164B1A687B6850
:1038800059687B685B6C03F01C0301FA03F3114970
:1038900013430B607B680022DA637B68012283F8A4
:1038A00025207B68002283F8242000231846143743
:1038B000BD465DF8047B704707040240F8FFFDBF7A
:1038C000CDCCCCCC00000240F8FBFDBF0004024090
:1038D000A8000240A804024080B586B000AFF8609E
:1038E000B9607A603B600023FB75FB6893F8243075
:1038F000012B01D102234BE0FB68012283F8242035
:10390000FB6893F82530DBB2012B3AD1FB68022229
:1039100083F82520FB680022DA63FB681B681A68BD
:10392000FB681B6822F001021A603B687A68B9687C
:10393000F86800F021F9FB681B6B002B08D0FB68CE
:103940001B681A68FB681B6842F00E021A600FE0E1
:10395000FB681B681A68FB681B6822F004021A6087
:10396000FB681B681A68FB681B6842F00A021A6051
:10397000FB681B681A68FB681B6842F001021A604A
:1039800005E0FB68002283F824200223FB75FB7D01
:1039900018461837BD4680BD80B584B000AF78604A
:1039A0000023FB737B6893F82530DBB2022B05D034
:1039B0007B680422DA630123FB7329E07B681B68C0
:1039C0001A687B681B6822F00E021A607B681B680D
:1039D0001A687B681B6822F001021A607B685B6CC6
:1039E00003F01C027B681B6C012101FA02F25A6091
:1039F0007B68012283F825207B68002283F824203D
:103A00007B689B6B002B03D07B689B6B7868984727
:103A1000FB7B18461037BD4680BD80B584B000AF33
:103A200078607B681B6C1B68FB607B681B681B688D
:103A3000BB607B685B6C03F01C0304229A40FB684C
:103A40001340002B26D0BB6803F00403002B21D0C9
:103A50007B681B681B6803F02003002B07D17B6881
:103A60001B681A687B681B6822F004021A607B6876
:103A70005B6C03F01C027B681B6C042101FA02F2F0
:103A80005A607B681B6B002B71D07B681B6B78685E
:103A900098476CE07B685B6C03F01C0302229A4041
:103AA000FB681340002B2ED0BB6803F00203002BF1
:103AB00029D07B681B681B6803F02003002B0BD107
:103AC0007B681B681A687B681B6822F00A021A6010
:103AD0007B68012283F825207B685B6C03F01C0265
:103AE0007B681B6C022101FA02F25A607B6800229B
:103AF00083F824207B68DB6A002B38D07B68DB6A84
:103B00007868984733E07B685B6C03F01C030822FD
:103B10009A40FB681340002B2AD0BB6803F00803CF
:103B2000002B25D07B681B681A687B681B6822F015
:103B30000E021A607B685B6C03F01C027B681B6CD6
:103B4000012101FA02F25A607B680122DA637B6884
:103B5000012283F825207B68002283F824207B68DB
:103B60005B6B002B04D07B685B6B7868984700BF69
:103B700000BF1037BD4680BD80B485B000AFF8608F
:103B8000B9607A603B60FB685B6C03F01C02FB6809
:103B90001B6C012101FA02F25A60FB681B683A684B
:103BA0005A60FB689B68102B08D1FB681B687A6819
:103BB0009A60FB681B68BA68DA6007E0FB681B68FC
:103BC000BA689A60FB681B687A68DA6000BF1437CD
:103BD000BD465DF8047B704780B586B000AFF860E5
:103BE000B960C7E9002300233B612F4B1B78012BF1
:103BF00001D1022353E02C4B01221A704CF25030B9
:103C000000F088F80346FB75FB7D002B43D1264B63
:103C100000225A60254B1B6803F48063002B09D0F7
:103C2000224B1B68214A23F4806313601E4B02223F
:103C30001A7702E01C4B00221A77FB68002B07D191
:103C4000D7E90023B86800F0BBF801233B6110E01E
:103C5000FB68012B02D0FB68022B0AD13B68194696
:103C6000B86800F0D3F8FB68022B02D14FF4802330
:103C70003B614CF2503000F04DF80346FB753B6958
:103C8000002B06D0094B5A693B69DB4307491340B7
:103C90004B6100F0CDF9044B00221A70FB7D1846F1
:103CA0001837BD4680BD00BF100000200020024034
:103CB00080B483B000AF0023FB710B4B5B69002B1A
:103CC0000BDA094B094A9A60074B094A9A60064B7E
:103CD0005B69002B01DA0123FB71FB7918460C3775
:103CE000BD465DF8047B7047002002402301674514
:103CF000AB89EFCD80B400AF054B5B69044A43F05C
:103D00000043536100231846BD465DF8047B7047AD
:103D10000020024080B584B000AF7860FFF7A0FBC0
:103D2000F8600DE07B68B3F1FF3F09D0FFF798FB27
:103D30000246FB68D31A7A689A4201D8032335E019
:103D40001C4B1B6903F48033002BEBD1194B1A6910
:103D5000194B1340BB60BB68002B1DD0174B5A6832
:103D6000BB681343154A5360BB68B3F1804F07D358
:103D7000104B9A69BB6803F040430E4913438B61B3
:103D8000BB6823F04043002B04D00A4ABB6823F0F1
:103D900040431361012309E0064B1B6903F0010353
:103DA000002B02D0034B01221A6100231846103762
:103DB000BD4680BD00200240FAC302001000002072
:103DC00080B485B000AFF860C7E900230E4B5B6993
:103DD0000D4A43F001035361FB683A681A60BFF370
:103DE0006F8F00BFD7E900014FF000024FF00003D2
:103DF0000A000023F968043113460B6000BF143732
:103E0000BD465DF8047B70470020024080B489B055
:103E100000AF786039604023FB777B68BB613B680B
:103E20007B61144B5B69134A43F480235361EFF3C6
:103E30001083FB60FB683B6172B600BF7B691A6848
:103E4000BB691A60BB690433BB617B6904337B6166
:103E5000FB7F013BFB77FB7F002BEFD13B69BB6016
:103E6000BB6883F3108800BF00BF2437BD465DF8F0
:103E7000047B70470020024080B584B000AF7860BA
:103E80003960484B1B78012B01D1022385E0454B5B
:103E900001221A704CF25030FFF73CFF0346FB73CF
:103EA000FB7B002B75D13F4B00225A603E4B1B68B9
:103EB00003F40073002B13D03B4B1B6803F48063A7
:103EC000002B09D0384B1B68374A23F480631360FA
:103ED000344B03221A7716E0324B01221A7712E094
:103EE000314B1B6803F48063002B09D02E4B1B68F9
:103EF0002D4A23F4806313602A4B02221A7702E0D2
:103F0000284B00221A777B681B68012B11D17B6834
:103F10005B68184600F04AF84CF25030FFF7FAFEA2
:103F20000346FB73204B5B691F4A23F00403536174
:103F30002DE03B684FF0FF321A607B689B68BB60E6
:103F40001DE07B685B681946B86800F04DF84CF2DC
:103F50005030FFF7DFFE0346FB73134B5B69124AD9
:103F600023F4FF6323F002035361FB7B002B03D098
:103F70003B68BA681A600AE0BB680133BB607B68C3
:103F80009A687B68DB681344BA689A42D9D300F018
:103F90004FF8044B00221A70FB7B18461037BD46C1
:103FA00080BD00BF100000200020024080B483B01C
:103FB00000AF78607B6803F00103002B05D0094B4C
:103FC0005B69084A43F004035361064B5B69054A89
:103FD00043F48033536100BF0C37BD465DF8047B6A
:103FE000704700BF0020024080B483B000AF78600B
:103FF00039600E4B5B6923F4FF627B68DB0003F4DE
:10400000FF630A4913434B61084B5B69074A43F05E
:1040100002035361054B5B69044A43F480335361E7
:1040200000BF0C37BD465DF8047B7047002002409E
:1040300080B483B000AF214B1B7FFB71FB79012B58
:1040400002D0FB79032B17D11D4B1B681C4A23F4AC
:10405000007313601A4B1B68194A43F40063136022
:10406000174B1B68164A23F400631360144B1B683C
:10407000134A43F400731360FB79022B02D0FB79DF
:10408000032B11D10E4B1B680D4A43F48053136070
:104090000B4B1B680A4A23F480531360084B1B68C0
:1040A000074A43F480631360044B00221A7700BF71
:1040B0000C37BD465DF8047B704700BF1000002040
:1040C0000020024080B487B000AF786039600023E0
:1040D0007B6154E13B681A6801217B6901FA03F3B3
:1040E0001340FB60FB68002B00F046813B685B6877
:1040F00003F00303012B05D03B685B6803F0030367
:10410000022B30D17B689B683B617B695B0003229B
:1041100002FA03F3DB433A6913403B613B68DA6818
:104120007B695B0002FA03F33A6913433B617B68E6
:104130003A699A607B685B683B6101227B6902FA9D
:1041400003F3DB433A6913403B613B685B681B093F
:1041500003F001027B6902FA03F33A6913433B61FE
:104160007B683A695A603B685B6803F00303032B82
:1041700017D07B68DB683B617B695B00032202FA36
:1041800003F3DB433A6913403B613B689A687B6900
:104190005B0002FA03F33A6913433B617B683A69B7
:1041A000DA603B685B6803F00303022B23D17B6971
:1041B000DA087B68083253F822303B617B6903F0F0
:1041C00007039B000F2202FA03F3DB433A69134013
:1041D0003B613B681A697B6903F007039B0002FAA5
:1041E00003F33A6913433B617B69DA087B68083261
:1041F000396943F822107B681B683B617B695B006F
:10420000032202FA03F3DB433A6913403B613B6844
:104210005B6803F003027B695B0002FA03F33A690F
:1042200013433B617B683A691A603B685B6803F43F
:104230004033002B00F0A080584B1B6E574A43F0D0
:1042400001031366554B1B6E03F00103BB60BB6893
:10425000534A7B699B08023352F823303B617B69E8
:1042600003F003039B000F2202FA03F3DB433A69D6
:1042700013403B617B68B3F1904F19D07B68494A8A
:10428000934213D07B68484A93420DD07B68474ADB
:10429000934207D07B68464A934201D1042308E049
:1042A000072306E0032304E0022302E0012300E0E9
:1042B00000237A6902F00302920093403A691343A3
:1042C0003B6137497B699B0802333A6941F82320F7
:1042D000384B9B683B61FB68DB433A6913403B61A9
:1042E0003B685B6803F48013002B03D03A69FB68DA
:1042F00013433B612F4A3B6993602E4BDB683B6164
:10430000FB68DB433A6913403B613B685B6803F43D
:104310000013002B03D03A69FB6813433B61254A25
:104320003B69D360234B5B683B61FB68DB433A69C5
:1043300013403B613B685B6803F40033002B03D000
:104340003A69FB6813433B611A4A3B695360194B56
:104350001B683B61FB68DB433A6913403B613B6888
:104360005B6803F48033002B03D03A69FB68134386
:104370003B61104A3B6913607B6901337B613B6899
:104380001A687B6922FA03F3002B7FF4A3AE00BF07
:1043900000BF1C37BD465DF8047B7047001002402B
:1043A000000001400004004800080048000C0048DC
:1043B000001000480004014080B483B000AF786072
:1043C0000B467B8013467B707B78002B03D07A886A
:1043D0007B689A6102E07A887B689A6200BF0C373A
:1043E000BD465DF8047B704780B485B000AF78604F
:1043F0000B467B807B685B69FB607A88FB681340B7
:104400001A04FB68D9437B880B401A437B689A6186
:1044100000BF1437BD465DF8047B704780B582B09D
:1044200000AF0346FB80084B5A69FB881340002B02
:1044300006D0054AFB885361FB881846FDF7D0FE7D
:1044400000BF0837BD4680BD00040140F0B58BB009
:1044500006AF78607B68002B01D10123F8E07B6810
:1044600093F8A932DBB2002B06D17B68002283F8D7
:10447000A82278680EF0D2FA7B68032283F8A9227A
:104480007B681B68184606F0C6F87B681B683B60B3
:104490007E686D4606F110040FCC0FC523682B60B3
:1044A000331D0ECB386806F08EF80346002B05D07E
:1044B0007B68022283F8A9220123C9E07B681B687C
:1044C0000021184606F0C2F80023FB7340E0FB7B96
:1044D00079685A1C13469B001344DB000B440133DC
:1044E00001221A70FB7B79685A1C13469B00134407
:1044F000DB000B44FA7B1A70FB7B79685A1C13466D
:104500009B001344DB000B44033300221A70FA7B38
:10451000796813469B001344DB000B4438330022B8
:104520001A60FA7B796813469B001344DB000B4446
:104530003C3300221A60FA7B796813469B001344CF
:10454000DB000B44403300221A60FB7B0133FB731A
:10455000FA7B7B685B689A42B9D30023FB7344E023
:10456000FA7B796813469B001344DB000B4403F28B
:10457000691300221A70FA7B796813469B00134472
:10458000DB000B4403F5B473FA7B1A70FA7B79688D
:1045900013469B001344DB000B4403F26B13002211
:1045A0001A70FA7B796813469B001344DB000B44B6
:1045B00003F5BC7300221A60FA7B796813469B00EE
:1045C0001344DB000B4403F5BE7300221A60FA7B30
:1045D000796813469B001344DB000B4403F5C0735A
:1045E00000221A60FB7B0133FB73FA7B7B685B68FC
:1045F0009A42B5D37B681B683B607E686D4606F1C6
:1046000010040FCC0FC523682B60331D0ECB386808
:1046100006F029F80346002B05D07B68022283F8B8
:10462000A922012314E07B68002283F824207B6800
:10463000012283F8A9227B68DB69012B02D178680B
:1046400001F057FC7B681B68184608F0B9FA002394
:1046500018461437BD46F0BD80B582B000AF786013
:104660007B6893F8A832012B01D1022312E07B680A
:10467000012283F8A8227B681B68184605F0B4FF66
:104680007B681B68184608F084FA7B68002283F870
:10469000A822002318460837BD4680BD80B584B0E7
:1046A00000AF78607B681B68184608F09EFAF860D7
:1046B000FB6803F40043002B03D0786800F013FB81
:1046C00010E1FB6803F48063002B13D07B681B6848
:1046D000B3F844309AB27B681B6822F4806292B2CD
:1046E000A3F8442078680EF054FA0021786800F0AE
:1046F000FCF8F7E0FB6803F48043002B0CD07B68E8
:104700001B68B3F844309AB27B681B6822F480427D
:1047100092B2A3F84420E5E0FB6803F40053002BB9
:104720000CD07B681B68B3F844309AB27B681B6876
:1047300022F4005292B2A3F84420D3E0FB6803F4C1
:104740008053002B34D07B681B68B3F840309AB29A
:104750007B681B6822F0040292B2A3F840207B68B9
:104760001B68B3F840309AB27B681B6822F00802DD
:1047700092B2A3F840207B6893F8E032012B07D176
:104780007B68002283F8E022002178680EF0B2FCFA
:1047900078680EF037FA7B681B68B3F844309AB239
:1047A0007B681B6822F4805292B2A3F8442099E0FF
:1047B000FB6803F40063002B27D07B681B68B3F809
:1047C00040309AB27B681B6842F0080292B2A3F8AC
:1047D00040207B681B68B3F844309AB27B681B6842
:1047E00022F4006292B2A3F844207B681B68B3F8FD
:1047F00040309AB27B681B6842F0040292B2A3F880
:10480000402078680EF0E4F96CE0FB6803F0800368
:10481000002B40D07B681B68B3F844309AB27B68A9
:104820001B6822F0800292B2A3F844207B6893F8C0
:10483000E032002B2BD17B681B68B3F840309AB272
:104840007B681B6842F0040292B2A3F840207B68A8
:104850001B68B3F840309AB27B681B6842F00802CC
:1048600092B2A3F840207B68012283F8E0227B68A3
:104870001B68B3F854309BB29B0803F03C027B6882
:10488000C3F8E422012178680EF034FC2AE078684D
:104890000EF09EF926E0FB6803F40073002B0FD0A6
:1048A0007B681B68B3F844309AB27B681B6822F4BB
:1048B000007292B2A3F8442078680EF05CF911E01F
:1048C000FB6803F48073002B0CD07B681B68B3F883
:1048D00044309AB27B681B6822F4807292B2A3F8CB
:1048E000442000BF1037BD4680BD80B582B000AF08
:1048F00078600B46FB707B6893F8A832012B01D1DE
:10490000022313E07B68012283F8A8227B68FA78EF
:1049100083F824207B681B68FA781146184608F053
:1049200024F97B68002283F8A82200231846083760
:10493000BD4680BD80B584B000AF786008461146A2
:104940001A460346FB700B463B801346BB700023A0
:10495000FB7297F90330002B0EDAFB7803F00703A4
:104960005A1C13469B001344DB007A681344FB6017
:10497000FB6801225A700EE0FB7803F00702134631
:104980009B001344DB0003F5B4737A681344FB60A7
:10499000FB6800225A70FB7803F00703DAB2FB6869
:1049A0001A703A88FB681A61FB68BA78DA70BB78CB
:1049B000022B02D1FB6800221A717B6893F8A8329F
:1049C000012B01D102230EE07B68012283F8A8228B
:1049D0007B681B68F968184605F066FE7B68002254
:1049E00083F8A822FB7A18461037BD4680BD80B5F3
:1049F00084B000AF78600B46FB7097F90330002B52
:104A00000EDAFB7803F007035A1C13469B0013448D
:104A1000DB007A681344FB60FB6801225A700EE0E9
:104A2000FB7803F0070213469B001344DB0003F5F9
:104A3000B4737A681344FB60FB6800225A70FB78F9
:104A400003F00703DAB2FB681A707B6893F8A832A8
:104A5000012B01D102230EE07B68012283F8A822FA
:104A60007B681B68F968184606F0E2F97B6800224B
:104A700083F8A822002318461037BD4680BD80B5B4
:104A800086B000AFF8607A603B600B46FB72FB7A41
:104A900003F0070213469B001344DB0003F5B473D5
:104AA000FA6813447B617B697A685A617B693A686A
:104AB0009A617B690022DA617B6900225A70FB7A75
:104AC00003F00703DAB27B691A70FB681B68796927
:104AD000184606F09AFB002318461837BD4680BDDD
:104AE00080B483B000AF78600B46FB70FB7803F0B6
:104AF0000702796813469B001344DB000B4403F55F
:104B0000C2731B6818460C37BD465DF8047B7047BE
:104B100080B586B000AFF8607A603B600B46FB72F0
:104B2000FB7A03F007035A1C13469B001344DB0077
:104B3000FA6813447B617B697A685A617B693A68D9
:104B40009A617B69012283F824207B693A681A62A2
:104B50007B690022DA617B6901225A70FB7A03F0DB
:104B60000703DAB27B691A70FB681B68796918461B
:104B700006F04BFB002318461837BD4680BD80B5B4
:104B800084B000AF78600B46FB70FB7803F007023F
:104B90007B685B689A4201D901234CE097F90330A6
:104BA000002B0EDAFB7803F007035A1C13469B0018
:104BB0001344DB007A681344FB60FB6801225A70DF
:104BC0000CE0FA7813469B001344DB0003F5B47342
:104BD0007A681344FB60FB6800225A70FB6801226C
:104BE0009A70FB7803F00703DAB2FB681A707B68EF
:104BF00093F8A832012B01D102231CE07B6801222B
:104C000083F8A8227B681B68F968184607F0AEFE97
:104C1000FB7803F00703002B08D17B681A687B68D8
:104C200003F52C731946104607F0EFFF7B6800224E
:104C300083F8A822002318461037BD4680BD80B5F2
:104C400084B000AF78600B46FB70FB7803F00F0276
:104C50007B685B689A4201D9012340E097F90330F1
:104C6000002B0EDAFB7803F007035A1C13469B0057
:104C70001344DB007A681344FB60FB6801225A701E
:104C80000EE0FB7803F0070213469B001344DB00A1
:104C900003F5B4737A681344FB60FB6800225A7012
:104CA000FB6800229A70FB7803F00703DAB2FB6816
:104CB0001A707B6893F8A832012B01D102230EE011
:104CC0007B68012283F8A8227B681B68F968184674
:104CD00007F09DFE7B68002283F8A8220023184677
:104CE0001037BD4680BD80B596B000AF7860B0E3A8
:104CF0007B681B68B3F84430A7F84E30B7F84E30E5
:104D0000DBB203F00F0387F84D3097F84D30002BDE
:104D100040F07281B7F84E3003F01003002B4FD1F2
:104D20007B681B681B889BB223F4E14323F070036C
:104D3000FB817B681A68FB896FEA43436FEA534340
:104D40009BB213807B6828337B657B681B68B3F854
:104D500050309BB21A467B6D1B78DB0013447A6897
:104D60001268134403F202431B88C3F309027B6DEC
:104D7000DA617B6D5A697B6DDB691A447B6D5A6120
:104D8000002178680DF0DDFE7B6893F82430DBB2FB
:104D9000002B00F05E837B6D9B69002B40F05983F4
:104DA0007B6893F82430DBB263F07F03DAB27B6870
:104DB0001B68A3F84C207B68002283F8242048E37A
:104DC0007B6803F5B4737B657B681B681B88A7F859
:104DD0004A30B7F84A3003F40063002B32D07B68C6
:104DE0001B68B3F850309BB21A467B6D1B78DB0012
:104DF00013447A681268134403F206431B88C3F312
:104E000009027B6DDA617B6818687B6803F52C7199
:104E10007B6DDA887B6DDB699BB207F044FF7B68B2
:104E20001B681B889AB240F68F7313403B827B68E5
:104E30001B683A8A42F0800292B21A8078680DF0BC
:104E400053FE06E3B7F94A30002B80F202837B68F9
:104E50001B681B889AB240F68F731340FB837B68F4
:104E60001B68FA8B42F0800292B21A807B681B6842
:104E7000B3F850309BB21A467B6D1B78DB001344AD
:104E80007A681268134403F206431B88C3F30902CD
:104E90007B6DDA617B6DDB69002B19D07B6D5B6903
:104EA000002B15D07B6818687B6D59697B6DDA889B
:104EB0007B6DDB699BB207F0F6FE7B6D5A697B6DFB
:104EC000DB691A447B6D5A61002178680DF01EFE83
:104ED0007B681B681B88A7F84A30B7F84A3003F490
:104EE0000063002B40F0B582B7F84A3003F440531A
:104EF000B3F5405F00F0AD827B681B68BB617B68E7
:104F00001B68B3F850309BB21A46BB691344BB61AF
:104F1000BB6903F206437B617B691B889BB2C3F3C9
:104F200009039AB27B691A807B6D1B693E2B1DD9E0
:104F30007B6D1B695B097B647B6D1B6903F01F0341
:104F4000002B02D17B6C013B7B647B691B889AB28E
:104F50007B6C9BB29B029BB213439BB26FEA4343B1
:104F60006FEA53439AB27B691A8026E07B6D1B6916
:104F7000002B0AD17B691B889BB26FEA43436FEA1F
:104F800053439AB27B691A8017E07B6D1B695B08FB
:104F90007B647B6D1B6903F00103002B02D07B6CEB
:104FA00001337B647B691B889AB27B6C9BB29B024A
:104FB0009BB213439AB27B691A807B681B681B887B
:104FC0009BB223F4804323F070037B827B8A83F4BB
:104FD00080537B827B8A83F400537B827B681A68D0
:104FE0007B8A43F07F4343F47F0343F4004343F061
:104FF00080039BB213802CE27B681B681A4697F8EB
:105000004D309B0013441B88A7F84A30B7F94A304B
:10501000002B80F2F6807B681B681A4697F84D30AB
:105020009B0013441B889AB240F68F731340A7F875
:1050300048307B681B681A4697F84D309B00134434
:10504000B7F8482042F0800292B21A8097F84D20BB
:1050500013469B001344DB0003F5B4737A681344D2
:105060007B657B6D1B7B002B23D17B681B68B3F8B2
:1050700050309BB21A467B6D1B78DB0013447A6874
:105080001268134403F206431B88C3F30903A7F80D
:105090005030B7F85030002B00F08E807B681868D5
:1050A0007B6D59697B6DDA88B7F8503007F0FBFDEE
:1050B00082E07B6DDB78022B0AD1B7F84A301A46C2
:1050C000796D786800F0D3F90346A7F8503073E0A3
:1050D0007B681B681A467B6D1B789B0013441B88FA
:1050E0009BB223F4E04323F07003A7F852307B68AF
:1050F0001B681A467B6D1B789B001A44B7F8523028
:1051000043F07F4343F47F0343F4004343F0C00381
:105110009BB213807B681B681A467B6D1B789B00D3
:1051200013441B889BB203F48043002B22D07B687E
:105130001B68B3F850309BB21A467B6D1B78DB00BE
:1051400013447A681268134403F202431B88C3F3C2
:105150000903A7F85030B7F85030002B2CD07B68EB
:1051600018687B6D59697B6D1A89B7F8503007F064
:105170009AFD21E07B681B68B3F850309BB21A4659
:105180007B6D1B78DB0013447A681268134403F2CA
:1051900006431B88C3F30903A7F85030B7F8503013
:1051A000002B09D07B6818687B6D59697B6D5A8923
:1051B000B7F8503007F077FD7B6DDA69B7F85030FB
:1051C0001A447B6DDA617B6D5A69B7F850301A4426
:1051D0007B6D5A617B6D9B69002B05D0B7F8502021
:1051E0007B6D1B699A4206D27B6D1B7819467868E5
:1051F0000DF08CFC05E07B681B68796D184606F0A5
:1052000004F8B7F84A3003F08003002B00F0218146
:1052100097F84D305A1C13469B001344DB007A6804
:1052200013447B657B681B681A4697F84D309B00DA
:1052300013441B889BB223F4E14323F07003A7F8C7
:1052400042307B681B681A4697F84D309B001A4421
:10525000B7F842306FEA43436FEA53439BB213807F
:105260007B6DDB78012B40F0A2807B6D00229A6180
:105270007B6D1B7B002B00F09380B7F84A3003F066
:105280004003002B46D07B6D5B78002B26D17B68DA
:105290001B687B627B681B68B3F850309BB21A4670
:1052A0007B6A13447B627B6D1B78DA007B6A134454
:1052B00003F202433B623B6A1B889BB2C3F30903C0
:1052C0009AB23B6A1A803B6A1B889BB26FEA4343DF
:1052D0006FEA53439AB23B6A1A8061E07B6D5B7858
:1052E000012B5DD17B681B68FB627B681B68B3F890
:1052F00050309BB21A46FB6A1344FB627B6D1B78ED
:10530000DA00FB6A134403F20243BB62BB6A002269
:105310001A8045E07B681B68FB637B6D5B78002B24
:1053200026D17B681B687B637B681B68B3F85030B1
:105330009BB21A467B6B13447B637B6D1B78DA0050
:105340007B6B134403F206433B633B6B1B889BB2AE
:10535000C3F309039AB23B6B1A803B6B1B889BB269
:105360006FEA43436FEA53439AB23B6B1A8017E0EC
:105370007B6D5B78012B13D17B681B68B3F85030D1
:105380009BB21A46FB6B1344FB637B6D1B78DA0000
:10539000FB6B134403F20643BB63BB6B00221A8012
:1053A0007B6D1B78194678680DF0CBFB51E0B7F8A0
:1053B0004A3003F48073002B44D17B681B68B3F838
:1053C00050309BB21A467B6D1B78DB0013447A6821
:1053D0001268134403F202431B88C3F30903A7F8BE
:1053E00040307B6D9A69B7F840309A4207D97B6D9F
:1053F0009A69B7F84030D21A7B6D9A6102E07B6DF2
:1054000000229A617B6D9B69002B06D17B6D1B7816
:10541000194678680DF095FB1BE07B6D5A69B7F86B
:1054200040301A447B6D5A617B6DDA69B7F84030C1
:105430001A447B6DDA617B681B68796D184605F04C
:10544000E4FE06E0B7F84A301A46796D786800F055
:1054500017F97B681B68B3F844309BB21BB2002B72
:10546000FFF646AC002318465837BD4680BD80B5D0
:1054700088B000AFF860B9601346FB80FB8803F486
:105480008043002B7CD0FB681B68B3F850309BB284
:105490001A46BB681B78DB001344FA681268134491
:1054A00003F202431B88C3F309037B83BB689A6939
:1054B0007B8B9A4206D3BB689A697B8BD21ABB68F6
:1054C0009A6102E0BB6800229A61BB689B69002B6D
:1054D00023D1FB681B681A46BB681B789B001344EA
:1054E0001B889BB223F4804323F070033B833B8BE8
:1054F00083F400533B83FB681B681A46BB681B7828
:105500009B001A443B8B43F07F4343F47F0343F4F7
:10551000004343F080039BB21380FB8803F04003F9
:10552000002B1FD0FB681B681A46BB681B789B00CA
:1055300013441B889BB223F4E04323F07003FB82E7
:10554000FB681B681A46BB681B789B001A44FB8AE1
:1055500043F07F4343F47F0343F4004343F0C0032D
:105560009BB213807B8B002B00F08580FB68186852
:10557000BB685969BB681A897B8B07F094FB7AE09A
:10558000FB681B68B3F850309BB21A46BB681B78A7
:10559000DB001344FA681268134403F206431B88C5
:1055A000C3F309037B83BB689A697B8B9A4206D35A
:1055B000BB689A697B8BD21ABB689A6102E0BB68B0
:1055C00000229A61BB689B69002B23D1FB681B6892
:1055D0001A46BB681B789B0013441B889BB223F4BC
:1055E000804323F07003FB83FB8B83F40053FB8326
:1055F000FB681B681A46BB681B789B001A44FB8B30
:1056000043F07F4343F47F0343F4004343F08003BC
:105610009BB21380FB8803F04003002B1FD1FB6873
:105620001B681A46BB681B789B0013441B889BB2FF
:1056300023F4E04323F07003BB83FB681B681A4626
:10564000BB681B789B001A44BB8B43F07F4343F439
:105650007F0343F4004343F0C0039BB213807B8B72
:10566000002B08D0FB681868BB685969BB685A8969
:105670007B8B07F018FB7B8B18462037BD4680BD1F
:1056800080B5A4B000AFF860B9601346FB80FB881A
:1056900003F04003002B00F0DB81FB681B68B3F8CC
:1056A00050309BB21A46BB681B78DB001344FA6883
:1056B0001268134403F202431B88C3F30903A7F8DB
:1056C0008630BB689A69B7F886309A4207D9BB68BA
:1056D0009A69B7F88630D21ABB689A6102E0BB6853
:1056E00000229A61BB689B69002B40F0B980BB68BF
:1056F0005B78002B26D1FB681B68FB62FB681B688C
:10570000B3F850309BB21A46FB6A1344FB62BB6885
:105710001B78DA00FB6A134403F20243BB62BB6AE4
:105720001B889BB2C3F309039AB2BB6A1A80BB6A97
:105730001B889BB26FEA43436FEA53439AB2BB6A3A
:105740001A801AE0BB685B78012B16D1FB681B68D6
:105750007B63FB681B68B3F850309BB21A467B6BC7
:1057600013447B63BB681B78DA007B6B134403F242
:1057700002433B633B6B00221A80FB681B687B6221
:10578000BB685B78002B26D1FB681B68FB61FB685C
:105790001B68B3F850309BB21A46FB691344FB6197
:1057A000BB681B78DA00FB69134403F20643BB6154
:1057B000BB691B889BB2C3F309039AB2BB691A8009
:1057C000BB691B889BB26FEA43436FEA53439AB2AB
:1057D000BB691A8017E0BB685B78012B13D1FB68AB
:1057E0001B68B3F850309BB21A467B6A13447B6245
:1057F000BB681B78DA007B6A134403F206433B6202
:105800003B6A00221A80BB681B781946F8680DF0C5
:1058100098F9FB8803F48043002B00F0FA82FB68C0
:105820001B681A46BB681B789B0013441B889BB2FD
:1058300023F4E04323F07003FB82FB681B681A46E5
:10584000BB681B789B001A44FB8A43F07F4343F4F8
:105850007F0343F4404343F080039BB21380D8E2BC
:10586000FB8803F48043002B21D0FB681B681A4699
:10587000BB681B789B0013441B889BB223F4E04356
:1058800023F07003A7F88A30FB681B681A46BB68D0
:105890001B789B001A44B7F88A3043F07F4343F4E7
:1058A0007F0343F4404343F080039BB21380BB6803
:1058B00093F82430012B40F0AC82BB685A69B7F8EA
:1058C00086301A44BB685A61BB68DA69B7F886301B
:1058D0001A44BB68DA61BB681A6ABB681B699A42E2
:1058E0000BD3BB681B69C7F88C30BB681A6AD7F842
:1058F0008C30D21ABB681A6217E0BB681B6A002B97
:1059000008D1B7F88630C7F88C30BB68002283F81E
:1059100024200AE0BB68002283F82420BB681B6AAD
:10592000C7F88C30BB6800221A62BB685B78002B1A
:1059300065D1FB681B68FB63FB681B68B3F85030DC
:105940009BB21A46FB6B1344FB63BB681B78DA00FF
:10595000FB6B134403F20243BB63BB6B1B889BB21C
:10596000C3F309039AB2BB6B1A80D7F88C303E2B75
:105970001DD9D7F88C305B09BB64D7F88C3003F0A5
:105980001F03002B02D1BB6C013BBB64BB6B1B88AC
:105990009AB2BB6C9BB29B029BB213439BB26FEA61
:1059A00043436FEA53439AB2BB6B1A8044E0D7F883
:1059B0008C30002B0AD1BB6B1B889BB26FEA434330
:1059C0006FEA53439AB2BB6B1A8035E0D7F88C303C
:1059D0005B08BB64D7F88C3003F00103002B02D0C6
:1059E000BB6C0133BB64BB6B1B889AB2BB6C9BB2B4
:1059F0009B029BB213439AB2BB6B1A801CE0BB683C
:105A00005B78012B18D1FB681B687B64FB681B6803
:105A1000B3F850309BB21A467B6C13447B64BB686E
:105A20001B78DA007B6C134403F202433B64D7F823
:105A30008C309AB23B6C1A80FB681868BB68596955
:105A4000BB681A89D7F88C309BB207F0EAF8E0E11E
:105A5000FB681B68B3F850309BB21A46BB681B78D2
:105A6000DB001344FA681268134403F206431B88F0
:105A7000C3F30903A7F88630BB689A69B7F8863084
:105A80009A4207D3BB689A69B7F88630D21ABB68C6
:105A90009A6102E0BB6800229A61BB689B69002B97
:105AA00040F0C080BB685B78002B26D1FB681B6888
:105AB000FB67FB681B68B3F850309BB21A46FB6F5C
:105AC0001344FB67BB681B78DA00FB6F134403F2D7
:105AD0000243BB67BB6F1B889BB2C3F309039AB237
