:020000040800F2
:1000000000800220ED390008093700081537000884
:100010001D370008253700082D37000800000000B4
:100020000000000000000000000000009124010812
:100030003537000800000000E126010843370008BA
:100040003D3A00083D3A00083D3A00085D37000897
:100050003D3A00083D3A00083D3A00083D3A0008A4
:100060003D3A00083D3A00083D3A00083D3A000894
:10007000713700088537000899370008AD37000848
:100080003D3A00083D3A00083D3A00083D3A000874
:100090003D3A00083D3A00083D3A00083D3A000864
:1000A0003D3A00083D3A00083D3A00083D3A000854
:1000B0003D3A00083D3A0008000000003D3A0008C3
:1000C0003D3A00083D3A00083D3A00083D3A000834
:1000D0003D3A00083D3A00083D3A00083D3A000824
:1000E000C1370008293800080000000000000000A7
:1000F0000000000000000000000000000000000000
:10010000000000003D3A0008000000003D3A0008F1
:100110003D3A0008000000003D3A000800000000E1
:100120003D3A00083D3A0008D1370008DF370008A3
:100130003D3A00083D3A00083D3A00080000000042
:100140003D3A0008ED3700083D3A00080138000844
:10015000153800083D3A00083D3A00083D3A0008CD
:100160003D3A00083D3A00083D3A00080000000012
:10017000000000003D3A0008000000000000000000
:100180003D3A00083D3A00083D3A00083D3A000873
:040190003D3A0008EC
:1001A00010B5054C237833B9044B13B10448AFF3B1
:1001B00000800123237010BD100300200000000008
:1001C000D0B8010808B5034B1BB103490348AFF38E
:1001D000008008BD0000000014030020D0B8010812
:1001E00001F0FF01102A2BDB10F0070F08D010F8E8
:1001F000013B013A8B422DD010F0070F42B3F6D1EC
:10020000F0B441EA012141EA014122F007047FF004
:1002100000070023F0E80256083C85EA010586EA5B
:10022000010685FA47F5A3FA87F586FA47F6A5FA97
:1002300087F68EB9EED1F0BC01F0FF0102F00702A3
:1002400032B110F8013B013A83EA010313B1F8D14E
:100250000020704701387047002D06BF354603382F
:10026000073815F0010F07D1013015F4807F02BF68
:10027000013015F4C03F0130F0BC0138704700BFB9
:10028000034613F8012B002AFBD1181A01387047D6
:1002900081F0004102E000BF83F0004330B54FEA37
:1002A00041044FEA430594EA050F08BF90EA020FA4
:1002B0001FBF54EA000C55EA020C7FEA645C7FEA37
:1002C000655C00F0E2804FEA5454D4EB5555B8BF5A
:1002D0006D420CDD2C4480EA020281EA030382EACB
:1002E000000083EA010180EA020281EA0303362D5D
:1002F00088BF30BD11F0004F4FEA01314FF4801C30
:100300004CEA113102D0404261EB410113F0004F41
:100310004FEA03334CEA133302D0524263EB4303F8
:1003200094EA050F00F0A780A4F10104D5F1200E96
:100330000DDB02FA0EFC22FA05F2801841F10001F1
:1003400003FA0EF2801843FA05F359410EE0A5F1C5
:1003500020050EF1200E012A03FA0EFC28BF4CF0F6
:10036000020C43FA05F3C01851EBE37101F00045AC
:1003700007D54FF0000EDCF1000C7EEB00006EEBB9
:100380000101B1F5801F1BD3B1F5001F0CD3490843
:100390005FEA30004FEA3C0C04F101044FEA44529A
:1003A00012F5800F80F09A80BCF1004F08BF5FEA21
:1003B000500C50F1000041EB045141EA050130BD01
:1003C0005FEA4C0C404141EB0101013C28BFB1F513
:1003D000801FE9D291F0000F04BF01460020B1FA5E
:1003E00081F308BF2033A3F10B03B3F120020CDA31
:1003F0000C3208DD02F1140CC2F10C0201FA0CF00F
:1004000021FA02F10CE002F11402D8BFC2F1200C73
:1004100001FA02F120FA0CFCDCBF41EA0C01904029
:10042000E41AA2BF01EB0451294330BD6FEA040472
:100430001F3C1CDA0C340EDC04F11404C4F120025D
:1004400020FA04F001FA02F340EA030021FA04F36F
:1004500045EA030130BDC4F10C04C4F1200220FAC6
:1004600002F001FA04F340EA0300294630BD21FA04
:1004700004F0294630BD94F0000F83F4801306BFCA
:1004800081F480110134013D4EE77FEA645C18BFBE
:100490007FEA655C29D094EA050F08BF90EA020F55
:1004A00005D054EA000C04BF1946104630BD91EA4D
:1004B000030F1EBF0021002030BD5FEA545C05D150
:1004C0004000494128BF41F0004130BD14F580048F
:1004D0003CBF01F5801130BD01F0004545F0FE4103
:1004E00041F470014FF0000030BD7FEA645C1ABF38
:1004F000194610467FEA655C1CBF0B46024650EA6F
:10050000013406BF52EA033591EA030F41F400219A
:1005100030BD00BF90F0000F04BF0021704730B520
:100520004FF4806404F132044FF000054FF00001F5
:1005300050E700BF90F0000F04BF0021704730B5B6
:100540004FF4806404F1320410F0004548BF40428B
:100550004FF000013EE700BF42004FEAE2014FEAE0
:1005600031014FEA02701FBF12F07F4393F07F4FBB
:1005700081F06051704732F07F4208BF704793F0BE
:100580007F4F04BF41F40021704730B54FF46074D1
:1005900001F0004521F000411CE700BF50EA0102D4
:1005A00008BF704730B54FF000050AE050EA01027D
:1005B00008BF704730B511F0004502D5404261EBED
:1005C00041014FF4806404F132045FEA915C3FF42E
:1005D000D8AE4FF003025FEADC0C18BF03325FEACB
:1005E000DC0C18BF033202EBDC02C2F1200300FA7C
:1005F00003FC20FA02F001FA03FE40EA0E0021FAA1
:1006000002F11444BDE600BF70B54FF0FF0C4CF48E
:10061000E06C1CEA11541DBF1CEA135594EA0C0F40
:1006200095EA0C0F00F0DEF82C4481EA030621EA7B
:100630004C5123EA4C5350EA013518BF52EA0335B6
:1006400041F4801143F4801338D0A0FB02CE4FF068
:100650000005E1FB02E506F00042E0FB03E54FF098
:100660000006E1FB03569CF0000F18BF4EF0010E90
:10067000A4F1FF04B6F5007F64F5407404D25FEA8C
:100680004E0E6D4146EB060642EAC62141EA55513F
:100690004FEAC52040EA5E504FEACE2EB4F1FD0C81
:1006A00088BFBCF5E06F1ED8BEF1004F08BF5FEAFF
:1006B000500E50F1000041EB045170BD06F00046B1
:1006C00046EA010140EA020081EA0301B4EB5C045E
:1006D000C2BFD4EB0C0541EA045170BD41F4801156
:1006E0004FF0000E013C00F3AB8014F1360FDEBF7B
:1006F000002001F0004170BDC4F10004203C35DA57
:100700000C341BDC04F11404C4F1200500FA05F3D9
:1007100020FA04F001FA05F240EA020001F000427A
:1007200021F0004110EBD37021FA04F642EB0601F0
:100730005EEA430E08BF20EAD37070BDC4F10C041A
:10074000C4F1200500FA04F320FA05F001FA04F2DE
:1007500040EA020001F0004110EBD37041F10001CA
:100760005EEA430E08BF20EAD37070BDC4F12005D5
:1007700000FA05F24EEA020E20FA04F301FA05F23D
:1007800043EA020321FA04F001F0004121FA04F2E5
:1007900020EA020000EBD3705EEA430E08BF20EAB5
:1007A000D37070BD94F0000F0FD101F000464000EF
:1007B00041EB010111F4801F08BF013CF7D041EA71
:1007C000060195F0000F18BF704703F00046520075
:1007D00043EB030313F4801F08BF013DF7D043EA46
:1007E0000603704794EA0C0F0CEA135518BF95EAFC
:1007F0000C0F0CD050EA410618BF52EA4306D1D183
:1008000081EA030101F000414FF0000070BD50EAA1
:10081000410606BF1046194652EA430619D094EA2B
:100820000C0F02D150EA013613D195EA0C0F05D115
:1008300052EA03361CBF104619460AD181EA030169
:1008400001F0004141F0FE4141F470014FF0000021
:1008500070BD41F0FE4141F4780170BD70B54FF0BC
:10086000FF0C4CF4E06C1CEA11541DBF1CEA13553C
:1008700094EA0C0F95EA0C0F00F0A7F8A4EB05041E
:1008800081EA030E52EA03354FEA013100F0888015
:100890004FEA03334FF0805545EA131343EA1263DE
:1008A0004FEA022245EA111545EA10654FEA002693
:1008B0000EF000419D4208BF964244F1FD0404F54C
:1008C000407402D25B084FEA3202B61A65EB0305A8
:1008D0005B084FEA32024FF480104FF4002CB6EB65
:1008E000020E75EB030E22BFB61A754640EA0C00E5
:1008F0005B084FEA3202B6EB020E75EB030E22BF25
:10090000B61A754640EA5C005B084FEA3202B6EB65
:10091000020E75EB030E22BFB61A754640EA9C0024
:100920005B084FEA3202B6EB020E75EB030E22BFF4
:10093000B61A754640EADC0055EA060E18D04FEAB2
:10094000051545EA16754FEA06164FEAC30343EA52
:1009500052734FEAC2025FEA1C1CC0D111F4801F1F
:100960000BD141EA00014FF000004FF0004CB6E718
:1009700011F4801F04BF01430020B4F1FD0C88BFB7
:10098000BCF5E06F3FF6AFAEB5EB030C04BFB6EBC2
:10099000020C5FEA500C50F1000041EB045170BDB5
:1009A0000EF0004E4EEA113114EB5C04C2BFD4EBE2
:1009B0000C0541EA045170BD41F480114FF0000E66
:1009C000013C90E645EA060E8DE60CEA135594EAE2
:1009D0000C0F08BF95EA0C0F3FF43BAF94EA0C0FE5
:1009E0000AD150EA01347FF434AF95EA0C0F7FF45A
:1009F00025AF104619462CE795EA0C0F06D152EAAE
:100A000003353FF4FDAE1046194622E750EA410691
:100A100018BF52EA43067FF4C5AE50EA41047FF4A2
:100A20000DAF52EA43057FF4EBAE12E74FF0FF3C07
:100A300006E000BF4FF0010C02E000BF4FF0010CD8
:100A40004DF804CD4FEA410C7FEA6C5C4FEA430C51
:100A500018BF7FEA6C5C1BD001B050EA410C0CBFA0
:100A600052EA430C91EA030F02BF90EA020F002002
:100A7000704710F1000F91EA030F58BF994208BF69
:100A800090422CBFD8176FEAE37040F00100704726
:100A90004FEA410C7FEA6C5C02D150EA013C07D17D
:100AA0004FEA430C7FEA6C5CD6D152EA033CD3D0C8
:100AB0005DF8040B704700BF8446104662468C46C2
:100AC0001946634600E000BF01B5FFF7B7FF0028F5
:100AD00048BF10F1000F01BD4DF808EDFFF7F4FF1E
:100AE0000CBF012000205DF808FB00BF4DF808EDA9
:100AF000FFF7EAFF34BF012000205DF808FB00BFCC
:100B00004DF808EDFFF7E0FF94BF012000205DF8ED
:100B100008FB00BF4DF808EDFFF7CEFF94BF0120A2
:100B200000205DF808FB00BF4DF808EDFFF7C4FF9B
:100B300034BF012000205DF808FB00BF4FEA410CE4
:100B40007FEA6C5C02D150EA013C0AD14FEA430CC7
:100B50007FEA6C5C02D152EA033C02D14FF0000004
:100B600070474FF0010070474FEA410212F5001242
:100B700015D211D56FF47873B3EB625212D94FEAE4
:100B8000C12343F0004343EA505311F0004F23FACE
:100B900002F018BF404270474FF00000704750EA23
:100BA000013005D111F0004008BF6FF000407047E0
:100BB0004FF00000704700BF4A0011D212F500123A
:100BC00011D20DD56FF47873B3EB62520ED44FEAA5
:100BD000C12343F0004343EA505323FA02F0704725
:100BE0004FF00000704750EA013002D14FF0FF3063
:100BF00070474FF0000070474FEA4102B2F1E04306
:100C000024BFB3F5001CDCF1FE5C0DD901F0004CF3
:100C10004FEAC0024CEA5070B2F1004F40EB830043
:100C200008BF20F00100704711F0804F21D113F16F
:100C30003872BCBF01F00040704741F480114FEAA8
:100C40005252C2F11802C2F1200C10FA0CF320FA31
:100C500002F018BF40F001004FEAC1234FEAD3234E
:100C600003FA0CFC40EA0C0023FA02F34FEA4303B8
:100C7000CCE77FEA625307D150EA01331EBF4FF041
:100C8000FE4040F44000704701F0004040F0FE405C
:100C900040F40000704700BF53B94AB9002908BFAB
:100CA00000281CBF4FF0FF314FF0FF3000F0A0B91B
:100CB000ADF1080C6DE904CE00F03CF8DDF804E07D
:100CC000DDE9022304B0704738B500220023044652
:100CD0000D46FFF70BFF28B920462946BDE83840EE
:100CE00000F00AB8204605F1004100F005F8404246
:100CF00061EB410138BD00BFD0B50C4B0022064668
:100D00000F46FFF781FCFFF757FF0446FFF702FC91
:100D1000074B0022FFF778FC02460B463046394667
:100D2000FFF7BAFAFFF748FF2146D0BD0000F03DBB
:100D30000000F0412DE9F047089D0C46002B4ED1F4
:100D400094468C458646B2FA82F262D94AB1C2F123
:100D50002003914020FA03F30CFA02FC194300FA35
:100D600002FE4FEA1C471FFA8CF6B1FBF7F44FEA7C
:100D70001E4307FB141143EA014304FB06F19942A9
:100D80000AD91CEB030304F1FF3080F01281994271
:100D900040F20F81023C6344591A1FFA8EF3B1FBF3
:100DA000F7F007FB101143EA014300FB06F69E42F1
:100DB0000AD91CEB030300F1FF3180F0FC809E4256
:100DC00040F2F980634402389B1B40EA0440002152
:100DD0001DB1D3400022C5E90032BDE8F0878B4247
:100DE00005D90DB1C5E9000100210846F5E7B3FAC0
:100DF00083F1002946D1A34202D39042C0F0F08093
:100E0000861A64EB03030120002DE6D0C5E90063D8
:100E1000E3E7002A40F09080A1EB0C044FEA1C4865
:100E20001FFA8CF70121B4FBF8F64FEA1E4308FBCA
:100E3000164443EA044307FB06F0984208D91CEB2A
:100E4000030306F1FF3402D2984200F2CD80264619
:100E50001C1A1FFA8EF3B4FBF8F008FB104443EAA7
:100E6000044300FB07F79F4208D91CEB030300F182
:100E7000FF3402D29F4200F2B0802046DB1B40EAE2
:100E80000640A5E7C1F120068B4022FA06F71F4372
:100E900020FA06FC04FA01F343EA0C03F44000FADA
:100EA00001F8380C4FEA1349B4FBF0FE1FFA87FC37
:100EB00000FB1E4449EA04440EFB0CF9A14502FA6A
:100EC00001F20AD93C190EF1FF3A80F08480A14565
:100ED00040F28180AEF1020E3C44A4EB09041FFAFB
:100EE00083F9B4FBF0F300FB134449EA044403FB29
:100EF0000CFCA44507D93C1903F1FF3067D2A44587
:100F000065D9023B3C4443EA0E40A0FB0293A4EBAC
:100F10000C049C42CE469C4651D34ED055B1B8EB02
:100F20000E0364EB0C0404FA06F6CB401E43CC40DF
:100F3000C5E90064002150E7C2F1200320FA03F163
:100F40000CFA02FC24FA03F394400C434FEA1C48C9
:100F500000FA02FE1FFA8CF7B3FBF8F008FB103121
:100F6000230C43EA014300FB07F1994208D91CEB2B
:100F7000030300F1FF362CD299422AD90238634488
:100F80005B1AA4B2B3FBF8F108FB113344EA034443
:100F900001FB07F3A34208D91CEB040401F1FF365F
:100FA00013D2A34211D902396444E41A41EA004140
:100FB00039E70446F0E6084606E7C845AED2B9EB85
:100FC000020E63EB070C0138A8E73146EDE7034654
:100FD00099E73046D4E7D6467FE7634402384DE7C9
:100FE0000646234608460FE7023E634430E700BF4B
:100FF000704700BF80B584B000AF002001F03CFA1C
:101000000346FB60012001F037FA0346BB60022073
:1010100001F032FA03467B60032001F02DFA03460B
:101020003B60FB68AD2B11D1BB681D2B0ED17B68DB
:10103000ED2B0BD13B68012B08D1084800F066FA74
:10104000012252212F2001F055FA03E0044800F05C
:101050005DFA00BF00BF1037BD4680BDE8B801088B
:1010600004B9010880B582B000AF2D2001F004FA68
:101070000346FB71FB7923F00103FB71FB7901222D
:1010800019462D2001F036FA034800F03FFA00BF60
:101090000837BD4680BD00BF1CB9010880B485B0CB
:1010A00000AF78600023FB607B681B097B607B6876
:1010B000C3F313037B607B6803F40023002B06D08B
:1010C0007B686FEA03336FEA1333FB6001E07B68F0
:1010D000FB60FB6818461437BD465DF8047B70471B
:1010E00080B584B000AF0023FB810023BB6015E016
:1010F000BB685902FB1D0122184600F0EBF8FB7992
:101100001A46B9680D4800F001FAFB79FF2B02D0AE
:10111000FB890133FB81BB680133BB60BB6841F6CF
:10112000FE729342E4DDFB891946054800F0EEF9B2
:10113000FB8918461037BD4680BD00BF80B9010845
:101140008CB9010880B483B000AF786000BF0C3761
:10115000BD465DF8047B704780B500AF01221021C9
:101160004FF0904003F040FC00BF80BD80B500AF61
:10117000002210214FF0904003F036FC00BF80BDEC
:1011800080B582B000AF1E4B05221A70FFF7EEFF4C
:1011900001221B491B4808F049F90346FB711A4B11
:1011A0001B684FF0FF3118460EF0AAFAFB79002BAE
:1011B00001D002F053F8154B01221A7014E00122FD
:1011C0001249104808F022FA0346FB71104B1B68C5
:1011D0004FF0FF3118460EF093FAFB79002B03D045
:1011E000FFF7BAFF02F03AF8084B1B7803F001034F
:1011F000002BE4D1FFF7B0FF00BF0837BD4680BD2C
:101200002C030020EC070020B40A002090050020E9
:10121000B80A002080B582B000AF0023FB70002325
:101220007B60FFF7A3FF104B06221A7001220E49C4
:101230000E4808F0FBF80346FB700D4B1B684FF09F
:10124000FF3118460EF05CFAFFF786FFFB78002BA3
:1012500003D04FF0FF337B6001E000237B607B68AD
:1012600018460837BD4680BD2C030020EC0700203F
:10127000B40A002080B582B000AF0023FB700023C9
:101280007B60FFF773FF114B04221A704FF6FF7358
:1012900001220E490E4807F0FAFB0346FB70FFF7E8
:1012A0005BFF40F262220021084814F091FDFB78B8
:1012B000002B03D04FF0FF337B6001E000237B6005
:1012C0007B6818460837BD4680BD00BF2C03002050
:1012D000EC07002080B586B000AFF860B9607A6096
:1012E0000023FB7500233B61264B03221A70BB6869
:1012F0001B0CDAB2234B5A70BB681B0ADAB2214BC3
:101300009A70BB68DAB21F4BDA70FFF72FFF042226
:101310001C491D4808F08AF80346FB751B4B1B68E7
:101320004FF0FF3118460EF0EBF9FB7D002B02D099
:10133000FFF712FF11E07B689BB21A46F96812486A
:1013400008F064F90346FB75114B1B684FF0FF3141
:1013500018460EF0D5F9FFF7FFFE40F26222002199
:10136000084814F035FDFB7D002B03D04FF0FF3310
:101370003B6101E000233B613B6918461837BD46DD
:1013800080BD00BF2C030020EC070020B40A002021
:10139000B80A002080B582B000AF0023FB700023A4
:1013A0007B60134BC7221A70FFF7E0FE4FF6FF7306
:1013B00001220F490F4807F06AFB0346FB70FFF755
:1013C000CBFEFFF7DDFE40F262220021084814F058
:1013D000FFFCFB78002B03D04FF0FF337B6001E074
:1013E00000237B607B6818460837BD4680BD00BF80
:1013F0002C030020EC07002080B400AF044BDB6816
:101400001B0A03F007031846BD465DF8047B7047CE
:1014100000ED00E080B483B000AF0346FB7197F9A4
:101420000730002B0BDBFB7903F01F02074997F90C
:1014300007305B09012000FA02F241F8232000BFC7
:101440000C37BD465DF8047B704700BF00E100E04B
:1014500080B483B000AF03463960FB7197F9073061
:10146000002B0ADB3B68DAB20C4997F9073012010E
:10147000D2B20B4483F800230AE03B68DAB2084991
:10148000FB7903F00F03043B1201D2B20B441A762E
:1014900000BF0C37BD465DF8047B704700E100E0FB
:1014A00000ED00E080B489B000AFF860B9607A6008
:1014B000FB6803F00703FB61FB69C3F10703042B1F
:1014C00028BF0423BB61FB690433062B02D9FB69E7
:1014D000033B00E000237B614FF0FF32BB6902FA5F
:1014E00003F3DA43BB681A407B699A404FF0FF313F
:1014F0007B6901FA03F3D9437B680B401343184619
:101500002437BD465DF8047B704700000FB480B5FA
:1015100082B000AF07F114033B603B683A694FF4B7
:1015200080710B4814F0B2FB0948FEF7A9FE034690
:101530007B607B689AB24FF0FF330549054808F09D
:101540007FFE00BF0837BD46BDE8804004B070474D
:1015500098A10120D409002080B500AF02F06FFAF5
:1015600000F0B4F800F088FA00F01CFA00F032F94C
:1015700000F0E8F900F06AF900F0A6F900F0FCF8D4
:10158000642002F0D1FA384B5B68374A43F010030D
:1015900053604FF4FA7002F0C7FA334B5B6903F4FF
:1015A0008053B3F5805F05D03048FFF7AFFF11F0EF
:1015B0004BFB02E02E48FFF7A9FF00F085F90DF084
:1015C000B3FE2C480DF08CFF03462B4A13602B4AC8
:1015D000002101200EF00AF80346294A1360294A27
:1015E000002101200EF002F80346274A1360274A23
:1015F000002101200DF0FAFF0346254A1360254A19
:10160000002101200DF0F2FF0346234A1360234A14
:10161000002101200DF0EAFF0346214A1360214A10
:10162000002101200DF0E2FF03461F4A13601F4A0C
:1016300001211E200EF0FAF803461D4A13601D4AD0
:1016400000211D480DF0BAFE03461C4A13601C4AD7
:1016500000211C480DF0B2FE03461B4A13600DF03A
:1016600087FE00BFFDE700BF0070004038BA0108E8
:1016700044BA0108D0BE0108B00A0020E0BE01084B
:10168000B40A0020F0BE0108B80A002000BF01081B
:10169000BC0A002010BF0108C00A002020BF0108BA
:1016A000C40A002030BF0108C80A0020B8BE0108E3
:1016B000AC0A002070BE01080D310008A40A002009
:1016C00094BE01080D320008A80A002080B596B02B
:1016D00000AF07F1140344220021184614F078FBF0
:1016E0003B4600221A605A609A60DA601A614FF431
:1016F000007005F0D7FA0346002B01D001F0AEFDD3
:1017000005F0B2FA1B4BD3F890301A4A23F01803B5
:10171000C2F8903025237B614FF48033BB610123F5
:10172000FB610123BB630023FB6307F1140318462D
:1017300005F04AFB0346002B01D001F08FFD0F237B
:101740003B6002237B600023BB600023FB6000231F
:101750003B613B460121184605F04EFF0346002B36
:1017600001D001F07BFD06F00BF900BF5837BD46F4
:1017700080BD00BF0010024080B500AF134B144A7B
:101780001A60124B00225A60104B00229A600F4BD5
:101790004FF6FF725A610D4B00221A620B4B4FF449
:1017A00080025A62094B00229A62084B0022DA62D8
:1017B000064B00221A63054803F060F90346002B2C
:1017C00001D001F04BFD00BF80BD00BF900700209D
:1017D000007C004080B500AF194B1A4A1A60184BC4
:1017E00000225A60164B7F229A60154BFF22DA6066
:1017F000134B00221A61124B00225A61104B002237
:101800009A610F4B0022DA610D4806F0A3FC0346F3
:10181000002B01D001F022FD0B4B00229A600A4BF5
:1018200000225A60084B00221A60074B0122DA603E
:10183000054B01221A61044B22225A6100BF80BD70
:10184000C807002000280040E80A002080B500AF4B
:101850001B4B1C4A1A601A4B4FF482725A60184B89
:1018600000229A60164B4FF4E062DA60144B0022BB
:101870001A61134B00225A61114B4FF400729A61A6
:101880000F4B0022DA610E4B00221A620C4B002231
:101890005A620B4B00229A62094B0722DA62084B0C
:1018A00000221A63064B08225A63054807F04CF8D9
:1018B0000346002B01D001F0D1FC00BF80BD00BF6A
:1018C000EC0700200030014080B500AF1B4B1C4AE4
:1018D0001A601A4B4FF482725A60184B00229A60B9
:1018E000164B4FF4E062DA60144B00221A61134B7E
:1018F00000225A61114B4FF400729A610F4B28225B
:10190000DA610E4B00221A620C4B00225A620B4B1A
:1019100000229A62094B0722DA62084B00221A63FE
:10192000064B08225A63054807F00EF80346002BC1
:1019300001D001F093FC00BF80BD00BF5008002023
:101940000038004080B500AF144B154A1A60134BA5
:101950004FF4FA425A60114B00229A600F4B00225A
:10196000DA600E4B00221A610C4B0C225A610B4BB1
:1019700000229A61094B0022DA61084B00221A62A8
:10198000064B00225A62054808F00CFC0346002B67
:1019900001D001F063FC00BF80BD00BFD40900206E
:1019A0000038014080B582B000AF324B9B6C314AA9
:1019B00043F0010393642F4B9B6C03F001037B60A6
:1019C0007B682C4B9B6C2B4A43F002039364294B9E
:1019D0009B6C03F002033B603B68002205210C2056
:1019E00002F0D5F90C2002F0EEF9002205210D20BD
:1019F00002F0CDF90D2002F0E6F9002205210E20BB
:101A000002F0C5F90E2002F0DEF9002205210F20B8
:101A100002F0BDF90F2002F0D6F9FFF7EDFC034606
:101A2000002206211846FFF73DFD034619463A20DD
:101A3000FFF70EFD3A20FFF7EDFCFFF7DDFC034654
:101A4000002205211846FFF72DFD034619463B20CD
:101A5000FFF7FEFC3B20FFF7DDFC002205214420C0
:101A600002F095F9442002F0AEF900BF0837BD46F8
:101A700080BD00BF0010024080B58AB000AF07F102
:101A8000140300221A605A609A60DA601A614A4BA5
:101A9000DB6C494A43F00403D364474BDB6C03F02F
:101AA00004033B613B69444BDB6C434A43F08003D6
:101AB000D364414BDB6C03F08003FB60FB683E4B5F
:101AC000DB6C3D4A43F00103D3643B4BDB6C03F01A
:101AD0000103BB60BB68384BDB6C374A43F0020341
:101AE000D364354BDB6C03F002037B607B68002220
:101AF00010214FF0904002F077FF00224FF4805108
:101B00002E4802F071FF0022C0212D4802F06CFF28
:101B100010237B610123BB610023FB6103233B6234
:101B200007F1140319464FF0904002F0E3FD4FF423
:101B300080537B610123BB610023FB6100233B6277
:101B400007F1140319461D4802F0D4FD4FF4005369
:101B50007B614FF40413BB610123FB6107F11403A4
:101B60001946164802F0C6FD40237B610123BB6184
:101B70000023FB6103233B6207F11403194610485D
:101B800002F0B8FD80237B610123BB610223FB616E
:101B900000233B6207F114031946094802F0AAFD2D
:101BA00000220521282002F0F2F8282002F00BF98B
:101BB00000BF2837BD4680BD001002400004004829
:101BC0000008004880B582B000AF78600348FFF796
:101BD0009DFC00BF0837BD4680BD00BF50BA01085C
:101BE00080B584B000AFF860B9601346FB71FB6844
:101BF0001B880A2B05D11C48FFF788FC4FF0FF33E8
:101C00002DE0FB685B881946FA68642301FB03F347
:101C100013440633FA791A70FB685B881A4664230A
:101C200002FB03F30133FA6813440633FA79B96807
:101C3000184614F0A2F9FB681B8801339AB2FB68BE
:101C40001A80FB685B8801339AB2FB685A80FB6894
:101C50005B880A2B02D1FB6800225A8000231846B9
:101C60001037BD4680BD00BF5CBA010880B582B0A8
:101C700000AF786039607B681B88002B05D11B485A
:101C8000FFF744FC4FF0FF332BE07B689B881A463C
:101C9000642302FB03F37A681344991D7B689B88D5
:101CA00018467A68642300FB03F3134406331B7859
:101CB00001331A46386814F060F97B681B88013BD1
:101CC0009AB27B681A807B689B8801339AB27B68E2
:101CD0009A807B689B880A2B02D17B6800229A80BD
:101CE000002318460837BD4680BD00BF70BA010802
:101CF000F0B5A7B006AFF8600023A7F876306423EC
:101D0000A7F874304FF000024FF00003C7E9182322
:101D1000B04B1B684FF0FF3118460DF0F1FCAE4B95
:101D20001B881946AD48FFF7F1FB17E0AC49AA48FC
:101D3000FFF79CFF0023FB670AE0FB6F0133A84A13
:101D4000D35C1946A748FFF7E1FBFB6F0133FB6744
:101D5000A34B1B781A46FB6F9342EEDB9E4B1B880E
:101D6000002BE3D19E4B5B78082B19DC002B40F352
:101D70007581013B072B00F2718101A252F823F01B
:101D8000BB1D0008DF1D00083B1E0008511E000897
:101D9000891E0008091F0008492000086520000866
:101DA000FF2B40F05B819048FFF7B0FB8C4B1B781A
:101DB00019468E4811F05CF855E1FFF791F903469A
:101DC000A7F87630B7F8763019468948FFF79EFBBA
:101DD00007F176030221184611F04AF843E1804BDF
:101DE0005B88A7F87630B7F876305B024FF4F6726E
:101DF00019468048FFF76EFAB7F8763019467E48E4
:101E0000FFF784FB7D48FFF781FB0023BB670AE0F7
:101E1000784ABB6F13441B7819467948FFF776FB65
:101E2000BB6F0133BB67BB6FB3F5F67FF0DB4FF4DD
:101E3000F671704811F01CF815E1694B5B88A7F842
:101E40007430B7F8743019466E48FFF75FFB0AE14B
:101E50006D4BD3E90023C7E91A23D7E91A014FF0E4
:101E600000024FF000030A0000231146D7E91A23AD
:101E700013461A466548FFF749FB07F16803082136
:101E8000184610F0F5FFEEE0554B02331C685D6814
:101E900022462B46C7E91823D7E918235C48FFF7E9
:101EA00035FBD7E918231046194600F0E1F8642005
:101EB0000FF04EF8574B0193574B0093574B584A2E
:101EC0005849594800F07EF9574B1B681846FEF7F1
:101ED00043FB02460B4653490978084650490978A6
:101EE0000E464E490978B9604B49098879604949DD
:101EF0000988049179680391B9680291019600906C
:101F00004A48FFF703FBAEE0354B9B7887F84C302F
:101F1000334BDB7887F84D30314B1B7987F84E30E7
:101F20002F4B5B7987F848302D4B9B7987F84B30E6
:101F30002B4BDB7987F84930294B1B7A87F84A30DD
:101F400007F14C0301221946394806F08BF907F1D5
:101F5000480301221946364806F07DFA64200EF047
:101F6000F7FF00223349324806F019FA00223249BD
:101F70002F4806F0F7FA304B9B789C462E4B5B7847
:101F80009E462D4BDB7819462A4B1B781E46294B63
:101F90005B78BB60274B9B787B60264B5B68254A50
:101FA000926807F11400059204937A680392BB6863
:101FB00002930196009173466246204913F0D8FDC2
:101FC00007F1140319461E48FFF7A0FA1D48FFF752
:101FD0009DFA48E0BC0A0020940B0020DCBA0108FE
:101FE000240B0020F0BA0108F4BA0108250B0020E8
:101FF00004BB0108989F012018BB01082CBB0108F5
:1020000038BB010840BB010800E0070858BB0108C5
:1020100074BB010800000020900B0020020000208B
:102020008A0B0020890B00208C0B002088BB010844
:10203000C8070020D00A0020E40A0020C0BB010825
:10204000ECBB0108F4BB0108FFF7E4F8FFF7A2F9C5
:10205000FFF710F90448FFF759FA04E00348FFF7C7
:1020600055FA00E000BF53E614BC010824BC010887
:1020700080B584B000AFC7E900010023FB730023E3
:10208000BB7302F02DF90346002B03D04248FFF743
:102090003DFA02E04148FFF739FA414B4FF4004264
:1020A0001A61404B00221A603E4B0122DA603D4B20
:1020B000FC229A603B4B01225A6096200EF048FFAA
:1020C0003949384802F0F0F90346BB730EE037484F
:1020D000FFF71CFAFB7B0133FB7396200EF038FFF1
:1020E0003149304802F0E0F90346BB73BB7B002B5B
:1020F00014BF01230023DAB2FB7B022B94BF012320
:102100000023DBB21340DBB2002BE0D1BB7B002B02
:1021100002D12748FFF7FAF996200EF019FF0023A5
:10212000FB73D7E900232349002002F06DF8034632
:10213000BB7312E0BB7B19461F48FFF7E7F9FB7B37
:102140000133FB7396200EF003FFD7E900231949F2
:10215000002002F059F80346BB73BB7B002B14BF71
:1021600001230023DAB2FB7B022B94BF012300235F
:10217000DBB21340DBB2002BDCD1BB7B002B02D1E6
:102180000E48FFF7C3F902F0CDF80D48FFF7BEF98E
:1021900000BF1037BD4680BD38BC010854BC0108E3
:1021A00000200240140B0020100B002068BC010826
:1021B00084BC010800E0070898BC0108B8BC01080D
:1021C000CCBC010880B489B000AFF860B9607A6017
:1021D0003B60224B224A1A60214BFB61FB69D3E929
:1021E00000014FF000024FF000030A0000231346E5
:1021F0007B61FB69D3E900231346BB6107F114033C
:102200001A68FB681A60BB69DB0FDAB2BB681A7028
:10221000BB699B0FDBB203F00103DAB27B681A7073
:10222000BB695B0FDBB203F00103DAB23B681A70E3
:10223000BB691B0C9BB2C3F30C039AB2BB6A1A8036
:10224000BB691B099BB2C3F30B039AB2FB6A1A80EA
:1022500000BF2437BD465DF8047B70470C0B00209F
:1022600000E0070880B582B000AF78600648FFF74D
:102270004DF9282001F0A7FD786806F0D7FA00BFD5
:102280000837BD4680BD00BFE8BC010880B596B0E8
:1022900000AF07F1140344220021184613F098FD03
:1022A0003B4600221A605A609A60DA601A614FF465
:1022B000007004F0F7FC0346002B01D000F0CEFFC5
:1022C00004F0D2FC204BD3F890301F4A23F01803BF
:1022D000C2F8903005237B614FF48033BB6101234A
:1022E000FB610223FB6303233B6402237B6408231B
:1022F000BB641323FB6408233B6508237B6507F15C
:102300001403184604F060FD0346002B01D000F0D2
:10231000A5FF0F233B6003237B608023BB6000236A
:10232000FB6000233B613B460021184605F064F941
:102330000346002B01D000F091FF05F021FB00BF08
:102340005837BD4680BD00BF0010024080B582B046
:1023500000AF78607B680B4A934205D10A4B1B683B
:1023600018460DF01FFA08E07B68084A934204D132
:10237000074B1B6818460DF015FA00BF0837BD461D
:1023800080BD00BF50080020C00A0020EC070020DC
:10239000B40A002080B582B000AF78607B680B4A39
:1023A000934205D10A4B1B6818460DF0FBF908E073
:1023B0007B68084A934204D1074B1B6818460DF00E
:1023C000F1F900BF0837BD4680BD00BF50080020AE
:1023D000C00A0020EC070020B80A002080B584B0B5
:1023E00000AF0346FB71FB795B005BB243F0010376
:1023F0005BB2DBB27B7300224FF480511A4802F0CB
:10240000F3FA07F10D0301221946184807F00EF8F8
:102410000346FB73164B1B684FF0FF3118460DF057
:102420006FF907F10E0301221946104807F0EEF884
:102430000346FB730E4B1B684FF0FF3118460DF03F
:102440005FF901224FF48051074802F0CDFAFB7B7F
:10245000002B01D1BB7B03E0064813F081FBFF2377
:1024600018461037BD4680BD0004004850080020C3
:10247000C00A0020F8BC010880B584B000AF034654
:10248000FB71FB795B005BB243F001035BB2DBB233
:102490007B7300224FF48051134802F0A5FA07F134
:1024A0000D0164230122114806F0F1FA0346FB7383
:1024B00007F10E01642301220C4806F05DFC03467F
:1024C000FB7301224FF48051074802F08DFAFB7B29
:1024D000002B01D1BB7B03E00548FFF717F8FF2372
:1024E00018461037BD4680BD000400485008002043
:1024F00020BD010880B584B000AF0346FB710B46D8
:10250000BB7113467B71FB795B00DBB2BB730022AE
:102510004FF48051114802F067FA07F10E0164236D
:1025200001220F4806F0B3FA0346FB73B91D64237A
:1025300001220B4806F0ABFA0346FB7301224FF46D
:102540008051064802F050FAFB7B002B02D0054870
:1025500013F006FB00BF1037BD4680BD00040048E5
:102560005008002048BD010880B586B000AF034682
:10257000FB7100237B6100233B610023FB60002390
:10258000BB60FB79022B20D0022B2BDC002B02D06E
:10259000012B0DD026E00820FFF720FF78610920ED
:1025A000FFF71CFF38610A20FFF718FFF86019E0F9
:1025B0000B20FFF713FF78610C20FFF70FFF386146
:1025C0000D20FFF70BFFF8600CE00E20FFF706FF71
:1025D00078610F20FFF702FF38611020FFF7FEFE41
:1025E000F86000BF7B691B0403F47F023B691B0298
:1025F0009BB21A43FB68DBB213431846FEF74EFD4D
:10260000B860BB6818461837BD4680BD80B582B03B
:1026100000AF0346FB80FB88B3F5005F1DD1282087
:1026200001F0DFFB0F4B00221A60FFF72FFEFFF7D0
:1026300023FAFFF7B7F9FFF7CDF8FFF783F9FFF7B4
:1026400005F9FFF741F9FFF797F843F67F61064870
:1026500002F0B6FA0548FEF759FF00BF0837BD463D
:1026600080BD00BF840F00209007002070BD0108CE
:1026700080B582B000AF78600B4B1B68B3F5006F7C
:1026800005D20A4B1B6818460DF08CF807E0084885
:1026900002F014FB074B1B6818460DF083F800BFCF
:1026A0000837BD4680BD00BF840F0020C80A002047
:1026B00090070020C40A00202DE9B04F2DED028BB9
:1026C000ACB000AF0023C7F8AC3070E0904AD7F848
:1026D000AC3052F823301846FDF72CFF88A3D3E91D
:1026E0000023FEF7BBF802460B461046194686A3A8
:1026F000D3E90023FDF7D0FD02460B4610461946EC
:102700004FF00002834BFDF77FFF02460B46104659
:102710001946FEF771FA02467F49D7F8AC309B00A4
:102720000B441A607A4AD7F8AC3052F82330184676
:10273000FDF700FF72A3D3E90023FEF78FF80246EE
:102740000B461046194670A3D3E90023FDF7A4FDFC
:1027500002460B46104619464FF000026D4BFDF73E
:1027600053FF02460B4610461946FEF745FA03464C
:10277000FB64D7ED137ABDEEE78AD7ED137AF0EE5E
:10278000E77AF7EE000AB0EE670A17F0A1F9F0EE6B
:10279000407AFDEEE77A17EE902A18EE101A5F489D
:1027A000FEF7B4FED7F8AC300133C7F8AC30D7F839
:1027B000AC30B3F5006F89DB07F134034FF40061EF
:1027C000184611F0A3F907F134000023544A524986
:1027D00011F080FA0023C7F8A8303CE0504AD7F83F
:1027E000A8309B001344D3ED007AF5EEC07AF1EEE9
:1027F00010FA10DB4B4AD7F8A8309B0013444FF077
:102800007E521A60D7F8A8300133464A9B00134421
:102810004FF07E521A60424AD7F8A8309B0013440A
:10282000D3ED007AF5EEC07AF1EE10FA0ED53D4AFE
:10283000D7F8A8309B0013443B4A1A60D7F8A83059
:102840000133384A9B001344374A1A60D7F8A8303E
:102850000233C7F8A830D7F8A830B3F5006FBDDB56
:102860000023C7F8A4300023C7F8A03031E0D7F820
:10287000A43001332A4A9B00134493ED007A284A7E
:10288000D7F8A4309B001344D3ED007AC7EE276A33
:1028900016EE900AFDF760FE02460B4643EC102B45
:1028A00016F0CEFE53EC102B10461946FEF7A4F995
:1028B00002461E49D7F8A0309B000B441A60D7F897
:1028C000A4300233C7F8A430D7F8A0300133C7F8DA
:1028D000A030D7F8A430B3F5006F04DAD7F8A030F1
:1028E000B3F5806FC3DB4FF480620D490C4811F0E3
:1028F000CFFD0023C7F89C304CE100BFAFF3008050
:102900009A9999999999D9408B6CE7FBA9712340C1
:10291000880F002000408F40882F00207CBD0108D8
:10292000884F0020888F0020000080BF886F002023
:10293000D7F89C00FDF7FEFD4FF000024FF07F53EB
:10294000FDF762FE02460B4610461946FEF754F9A3
:1029500002469B49D7F89C309B000B441A60994B68
:10296000994A1A60994B9A4A1A609A4B9A4A1A6085
:10297000934AD7F89C309B0013441B681846FDF718
:10298000EBFD02460B469FED8A1B43EC102B16F025
:10299000B9FD55EC104B8A4AD7F89C309B00134484
:1029A0001B681846FDF7D8FD02460B469FED801BBD
:1029B00043EC102B16F0A6FD59EC108B814B1B68D5
:1029C0001846FDF7C9FD02460B469FED791B43EC07
:1029D000102B16F097FD53EC102B40464946FDF79F
:1029E0005DFC02460B4620462946FDF737FF0246AE
:1029F0000B4643EC172BB0EE470AF0EE670A16F0D1
:102A0000F1FD55EC104B714B1B681846FDF7A4FD0A
:102A100002460B469FED661B43EC102B16F072FD31
:102A200059EC108B664AD7F89C309B0013441B6806
:102A30001846FDF791FD02460B469FED5D1B43ECEA
:102A4000102B16F05FFD5BEC10AB604B1B6818465B
:102A5000FDF782FD02460B469FED551B43EC102B04
:102A600016F050FD53EC102B50465946FDF716FC5E
:102A700002460B4640464946FDF7F0FE02460B462D
:102A800043EC172BB0EE470AF0EE670A16F0AAFDEA
:102A900053EC102B20462946FDF7B6FD02460B46A7
:102AA00014461D464B4B1B681846FDF755FD024664
:102AB0000B469FED411B43EC102B16F023FD59EC08
:102AC000108B3F4AD7F89C309B0013441B68184674
:102AD000FDF742FD02460B469FED371B43EC102BE2
:102AE00016F010FD5BEC10AB3A4B1B681846FDF777
:102AF00033FD02460B469FED301B43EC102B16F0C6
:102B000001FD53EC102B50465946FDF7C7FB02461A
:102B10000B4640464946FDF7A1FE02460B4643ECF4
:102B2000172BB0EE470AF0EE670A16F05BFD53EC88
:102B3000102B20462946FDF767FD02460B4610463E
:102B40001946FEF759F802462449D7F89C309B00F5
:102B50000B441A60224AD7F89C309B00134493ED33
:102B6000007A1E4AD7F89C309B001344D3ED007ABC
:102B700027EE277ADFED1B6AC7EE267A184AD7F8C8
:102B80009C309B001344C3ED007AD7F89C3001338E
:102B9000C7F89C30D7F89C30B3F5806FFFF6C8AE0D
:102BA0000023C7F898300023C7F89430A5E000BF91
:102BB0000000000000001040000000000000004085
:102BC0008C4F01208C6F012018594B3F906F0120D2
:102BD0000000C842946F012030E4B5408C2F0120E2
:102BE000884F002000008044AD4AD7F894309B0005
:102BF00013441B683B66D7ED187ABDEEE78AD7ED24
:102C0000187AF0EEE77AF7EE000AB0EE670A16F0EF
:102C10005FFFF0EE407A9FEDA37A67EE877AFDEED4
:102C2000E77A17EE902A18EE101A9F48FEF76EFC0E
:102C30009E4AD7F894309B0013441B681846FDF752
:102C40008BFC02460B4643EC102B16F091FE55EC24
:102C5000104B934AD7F894309B0013441B681846D6
:102C6000FDF77AFC02460B4620462946FDF7CCFCD0
:102C700002460B4610461946FDF7BEFF02468C4938
:102C8000D7F898309B000B441A60884AD7F89430E4
:102C90009B0013441B681846FDF75EFC02460B467A
:102CA00043EC102B16F0C0FE55EC104B7C4AD7F8C5
:102CB00094309B0013441B681846FDF74DFC0246F8
:102CC0000B4620462946FDF79FFC02460B46104660
:102CD0001946D7F898305C1CFDF78EFF0246744900
:102CE000A3000B441A60D7F898300233C7F8983025
:102CF000D7F894300133C7F89430D7F89830B3F54B
:102D0000006F05DAD7F89430B3F5806FFFF66CAF3B
:102D10000023C7F890301BE0654AD7F890309B003D
:102D2000134493ED007A634AD7F890309B00134424
:102D3000D3ED007A67EE277A5F4AD7F890309B0090
:102D40001344C3ED007AD7F890300133C7F89030C0
:102D5000D7F89030B3F5006FDEDB07F11C034FF4BA
:102D60000061184610F0D2FE07F11C000123534AFF
:102D7000514910F0AFFF0023C7F88C302EE04F4AC6
:102D8000D7F88C309B001344D3ED007A9FED457A41
:102D900067EE877AC7ED147AD7ED147ABDEEE78A2D
:102DA000D7ED147AF0EEE77AF7EE000AB0EE670A94
:102DB00016F08EFEF0EE407A9FED3A7A67EE877A53
:102DC000FDEEE77A17EE902A18EE101A3648FEF755
:102DD0009DFBD7F88C300133C7F88C30D7F88C3096
:102DE000B3F5006FCBDB0023C7F88830AFE0D7F82E
:102DF0008830B3F5FC6F47DC4FF00003C7F8843030
:102E0000D7F88830C7F880301AE02C4AD7F88030DD
:102E10009B00134493ED007A284AD7F880309B003A
:102E20001344D3ED007A67EE277A97ED217A77EE97
:102E3000277AC7ED217AD7F880300133C7F8803080
:102E4000D7F888301F33D7F880209A42DDDDD7EDE0
:102E5000217A9FED1B7AC7EE876A16EE900AFDF77E
:102E60007BFB02460B4643EC102B16F0BBFB53ECEE
:102E7000102B10461946FDF7BFFE02461149D7F840
:102E800088309B000B441A60D7F88830B3F5FC6F8C
:102E900058DD4FF00003FB67D7F88830BB672AE0A6
:102EA000884F002000007A447CBD0108886F002014
:102EB00088AF0020888F0020882F002088CF002036
:102EC00000000042986F0120854ABB6F9B001344AD
:102ED00093ED007A824ABB6F9B001344D3ED007AD6
:102EE00067EE277A97ED1F7A77EE277AC7ED1F7A7C
:102EF000BB6F0133BB67BB6FB3F5006FE4DBD7F883
:102F00008830C3F5006307EE903AF8EEE77A97ED64
:102F10001F7AC7EE276A16EE900AFDF71DFB0246E0
:102F20000B4643EC102B16F05DFB53EC102B1046B8
:102F30001946FDF761FE02466A49D7F888309B00C2
:102F40000B441A60D7F888300133C7F88830D7F8B7
:102F50008830B3F5006FFFF64AAF3B1D4FF40061B8
:102F6000184610F0D3FD381D00235F4A5D4910F06C
:102F7000B1FE4FF480625D495B4811F089FA00238D
:102F80007B6747E05A4A7B6F9B001344D3ED007A7E
:102F9000FDEEE77A17EE903ABB65564A7B6F9B00D1
:102FA0001344D3ED007AFDEEE77A17EE903A7B6595
:102FB0004FF000033B670023FB6610E0BA6DFB6E29
:102FC00013444A4A9B001344D3ED007A97ED1C7AD0
:102FD00077EE277AC7ED1C7AFB6E0133FB66FA6E3B
:102FE0007B6D9A42EADB434A7B6F9B00134493ED6F
:102FF000007AD7ED1C7A67EE277AB4EE007A67EE96
:10300000877A3D4A7B6F9B001344C3ED007A7B6F48
:1030100001337B677B6F172BB4DD0023BB6628E091
:10302000324B364A4FF40061304810F03BFC334AD3
:10303000BB6E9B0013441B68FB65D7ED177ABDEE92
:10304000E78AD7ED177AF0EEE77AF7EE000AB0EEEE
:10305000670A16F03DFDF0EE407AFDEEE77A17EED6
:10306000902A18EE101A2648FEF750FABB6E01336C
:10307000BB66BB6E002BD3DD00237B6625E01E4ABA
:103080007B6E9B0013441B68FB65D7ED177ABDEE82
:10309000E78AD7ED177AF0EEE77AF7EE000AB0EE9E
:1030A000670A16F015FDF0EE407A9FED167A67EE8E
:1030B000877AFDEEE77A17EE902A18EE101A12487A
:1030C000FEF724FA7B6E01337B667B6E132BD6DD15
:1030D00000BF00BFB037BD46BDEC028BBDE8B08F6E
:1030E00088CF0020986F012088EF0020880F0120F2
:1030F000C8BF010864BF0108988F0120882F0120F4
:1031000084BD010800007A447CBD010880B582B00E
:1031100000AF78603148FEF7F9F94FF4FA700DF01E
:1031200017FF2F4B93F89C32DBB2032B17D12D4A9C
:1031300000212D480CF042F903462C4A13602C4B19
:1031400001221A70264BD3F89432254A92F89C2219
:10315000D2B219462748FEF7D9F900BFFDE74FF470
:103160007A700DF0F5FEFDF745FF64200DF0F0FEDE
:10317000FDF778FF2048FEF7C9F9012003F0F8FDBC
:103180001E4B1B684FF0FF3118460CF0B9FAFEF7E2
:103190009DFAFEF771FCFEF705FCFEF71BFBFEF740
:1031A000D1FBFEF753FBFEF78FFBFEF7E5FA144861
:1031B000FEF7ACF9FFF780FA1248FEF7A7F9124BB9
:1031C0004FF400525A61282000F0FDFD00F0D0FCC1
:1031D000012003F0CDFD00BFD2E700BF94BD010880
:1031E0008C30022040BF0108F11C0008CC0A0020EE
:1031F000880B0020ACBD0108C0BD0108C40A002036
:10320000D4BD0108E8BD01080004014090B583B0B9
:1032100000AF78600D4B1B684FF0FF3118460CF083
:103220006FFA40210A4801F0F7FB0A4B1C680220A4
:10323000FFF79AF90346084A42F82430054B1B6809
:103240000133044A136000BFE4E700BFC80A00204E
:1032500000080048840F0020880F002080B400AFD1
:1032600072B600BF00BFFDE780B582B000AF114B62
:103270001B6E104A43F0010313660E4B1B6E03F0E6
:1032800001037B607B680B4B9B6D0A4A43F08053C4
:103290009365084B9B6D03F080533B603B680022B5
:1032A0000F216FF0010000F072FD00BF0837BD462E
:1032B00080BD00BF0010024080B59EB000AF7860B6
:1032C00007F1100368220021184612F081FD7B6887
:1032D0001B68154A934222D14FF400733B610023CF
:1032E0007B6507F11003184604F0D6FB0346002B5C
:1032F00001D0FFF7B3FF0D4B9B6D0C4A43F0004329
:1033000093650A4B9B6D03F00043FB60FB68002252
:103310000521412000F03BFD412000F054FD00BF9D
:103320007837BD4680BD00BF007C004000100240E1
:1033300080B59CB000AF786007F1080368220021D7
:10334000184612F045FD7B681B68134A93421FD153
:103350004FF40033BB604FF48073FB6607F1080342
:10336000184604F099FB0346002B01D0FFF776FFC7
:103370000A4BD3F89030094A43F40043C2F8903026
:1033800000220521032000F002FD032000F01BFDB8
:1033900000BF7037BD4680BD0028004000100240CD
:1033A00080B58CB000AF786007F11C0300221A6072
:1033B0005A609A60DA601A617B681B68814A93429E
:1033C0007BD1814B1B6E804A43F4805313667E4B46
:1033D0001B6E03F48053BB61BB697B4BDB6C7A4A89
:1033E00043F00103D364784BDB6C03F001037B6192
:1033F0007B69E023FB6102233B6200237B620323A2
:10340000BB620523FB6207F11C0319464FF0904095
:1034100001F070F96D4B6E4A1A606C4B01225A60D4
:103420006A4B00229A60694B0022DA60674B802267
:103430001A61664B00225A61644B00229A61634B09
:103440000022DA61614B00221A62604800F0E4FC5D
:103450000346002B01D0FFF701FF7B685B4A9A65AA
:103460005A4A7B6893625B4B5B4A1A60594B012254
:103470005A60584B10229A60564B0022DA60554B26
:1034800080221A61534B00225A61524B00229A61EA
:10349000504B0022DA614F4B00221A624D4800F077
:1034A000BBFC0346002B01D0FFF7D8FE7B68494ADE
:1034B0005A65484A7B6893627FE07B681B68474A8D
:1034C00093427AD1404B9B6D3F4A43F480439365CE
:1034D0003D4B9B6D03F480433B613B693A4BDB6C96
:1034E000394A43F00203D364374BDB6C03F0020329
:1034F000FB60FB684FF44443FB6102233B62002303
:103500007B620323BB620523FB6207F11C031946A0
:10351000334801F0EFF8334B334A1A60314B012244
:103520005A60304B00229A602E4B0022DA602D4BFD
:1035300080221A612B4B00225A612A4B00229A6189
:10354000284B0022DA61274B00221A62254800F03E
:1035500063FC0346002B01D0FFF780FE7B68214A05
:103560009A65204A7B689362204B214A1A601F4B60
:1035700001225A601D4B10229A601C4B0022DA6017
:103580001A4B80221A61194B00225A61174B0022F4
:103590009A61164B0022DA61144B00221A6213481A
:1035A00000F03AFC0346002B01D0FFF757FE7B6882
:1035B0000E4A5A650D4A7B68936200BF3037BD469C
:1035C00080BD00BF0030014000100240B408002060
:1035D0001C000240FC08002030000240003800407F
:1035E0000004004844090020440002408C090020E7
:1035F0005800024080B5A4B000AF786007F17C03AA
:1036000000221A605A609A60DA601A6107F11403A6
:1036100068220021184612F0DBFB7B681B68354AE4
:10362000934262D101237B6100237B6307F1140382
:10363000184604F031FA0346002B01D0FFF70EFEC6
:103640002D4B1B6E2C4A43F4804313662A4B1B6E92
:1036500003F480433B613B69274BDB6C264A43F014
:103660000203D364244BDB6C03F00203FB60FB68B2
:10367000C023FB670223C7F880300023C7F88430DB
:103680000323C7F888300723C7F88C3007F17C0381
:1036900019461A4801F02EF8194B1A4A1A60184BAD
:1036A00002225A60164B10229A60154B0022DA60F3
:1036B000134B80221A61124B00225A61104B0022D8
:1036C0009A610F4B0022DA610D4B00221A620C48FE
:1036D00000F0A2FB0346002B01D0FFF7BFFD7B6883
:1036E000074A1A67064A7B68936200BF9037BD4657
:1036F00080BD00BF003801400010024000040048B7
:103700005C0A00206C04024080B500AF04F048F968
:1037100000BFFDE780B400AF00BFFDE780B400AF9D
:1037200000BFFDE780B400AF00BFFDE780B400AF8D
:1037300000BFFDE780B400AF00BFBD465DF8047B6D
:10374000704780B500AF00F0CFF90EF0FDF80346EA
:10375000012B01D00EF0F8FF00BF80BD80B500AF97
:10376000024805F0C1F800BF80BD00BFC8070020B7
:1037700080B500AF024800F067FC00BF80BD00BF0D
:10378000B408002080B500AF024800F05DFC00BF27
:1037900080BD00BFFC08002080B500AF024800F0EB
:1037A00053FC00BF80BD00BF4409002080B500AFBE
:1037B000024800F049FC00BF80BD00BF8C0900201A
:1037C00080B500AF4FF4005001F040F900BF80BD5C
:1037D00080B400AF00BFBD465DF8047B704780B485
:1037E00000AF00BFBD465DF8047B704780B500AFF9
:1037F000024801F0A5FA00BF80BD00BF900700207D
:1038000080B500AF024801F0D9FD00BF80BD00BF08
:103810006845022080B500AF024800F015FC00BFEB
:1038200080BD00BF5C0A002080B500AF024804F0F4
:10383000E7FE00BF80BD00BFC807002080B400AF16
:1038400001231846BD465DF8047B704780B582B001
:1038500000AF7860396012F063FB034616221A60ED
:103860004FF0FF3318460837BD4680BD80B582B0A3
:1038700000AF78604FF0FF317868FFF7E7FF00BFD7
:10388000FDE780B586B000AFF860B9607A600023CC
:103890007B610AE0AFF300800146BB685A1CBA6046
:1038A000CAB21A707B6901337B617A697B689A427C
:1038B000F0DB7B6818461837BD4680BD80B586B002
:1038C00000AFF860B9607A6000237B6109E0BB68F3
:1038D0005A1CBA601B781846AFF300807B6901332D
:1038E0007B617A697B689A42F1DB7B6818461837FE
:1038F000BD4680BD80B483B000AF78604FF0FF3329
:1039000018460C37BD465DF8047B704780B483B021
:1039100000AF786039603B684FF400525A60002372
:1039200018460C37BD465DF8047B704780B483B001
:1039300000AF7860012318460C37BD465DF8047B64
:10394000704780B485B000AFF860B9607A6000233A
:1039500018461437BD465DF8047B704780B586B0C5
:1039600000AF7860144A154BD31A7B617B693B61C9
:10397000134B1B68002B02D1114B124A1A60104BDB
:103980001A687B6813443A699A4207D212F0C8FA5F
:1039900003460C221A604FF0FF3309E0084B1B6806
:1039A000FB60074B1A687B681344054A1360FB6889
:1039B00018461837BD4680BD008002200004000074
:1039C00098A20120D04B022080B400AF064BD3F860
:1039D0008830054A43F47003C2F8883000BFBD4602
:1039E0005DF8047B704700BF00ED00E0DFF834D0E5
:1039F000FFF7EAFF0C480D490D4A002302E0D458B6
:103A0000C4500433C4188C42F9D30A4A0A4C002328
:103A100001E013600432A242FBD312F087FAFDF7F3
:103A20009BFDFEE700800220000000201003002024
:103A3000E8F6020810030020CC4B0220FEE780B518
:103A400082B000AF0023FB71032000F095F90F2036
:103A500000F00EF80346002B02D00123FB7101E0B9
:103A6000FFF702FCFB7918460837BD4680BD000011
:103A700080B584B000AF78600023FB73174B1B78D0
:103A8000002B23D0164B1A68144B1B7819464FF4A1
:103A90007A73B3FBF1F3B2FBF3F3184600F0AFF91E
:103AA0000346002B0FD17B680F2B09D800227968C1
:103AB0004FF0FF3000F06BF90A4A7B68136007E0B3
:103AC0000123FB7304E00123FB7301E00123FB737B
:103AD000FB7B18461037BD4680BD00BF0C000020A0
:103AE000040000200800002080B400AF064B1B78C3
:103AF0001A46064B1B681344044A136000BFBD46B8
:103B00005DF8047B704700BF0C0000209CA20120E0
:103B100080B400AF034B1B681846BD465DF8047BBC
:103B2000704700BF9CA2012080B584B000AF7860D0
:103B3000FFF7EEFFB8607B68FB60FB68B3F1FF3F07
:103B400005D00A4B1B781A46FB681344FB6000BF84
:103B5000FFF7DEFF0246BB68D31AFA689A42F7D82D
:103B600000BF00BF1037BD4680BD00BF0C00002065
:103B700080B400AF054B1B68044A23F002031360B6
:103B800000BFBD465DF8047B704700BF10E000E059
:103B900080B485B000AF78607B6803F00703FB60FA
:103BA0000C4BDB68BB60BA684FF6FF031340BB6089
:103BB000FB681A02BB68134343F0BF6343F400334E
:103BC000BB60044ABB68D36000BF1437BD465DF8D4
:103BD000047B704700ED00E080B400AF044BDB686D
:103BE0001B0A03F007031846BD465DF8047B7047C7
:103BF00000ED00E080B483B000AF0346FB7197F99D
:103C00000730002B0BDBFB7903F01F02074997F904
:103C100007305B09012000FA02F241F8232000BFBF
:103C20000C37BD465DF8047B704700BF00E100E043
:103C300080B483B000AF0346FB7197F90730002BC7
:103C400012DBFB7903F01F020A4997F907305B0981
:103C5000012000FA02F2203341F82320BFF34F8FF6
:103C600000BFBFF36F8F00BF00BF0C37BD465DF8CC
:103C7000047B704700E100E080B483B000AF0346EE
:103C80003960FB7197F90730002B0ADB3B68DAB229
:103C90000C4997F907301201D2B20B4483F8002384
:103CA0000AE03B68DAB20849FB7903F00F03043BF2
:103CB0001201D2B20B441A7600BF0C37BD465DF834
:103CC000047B704700E100E000ED00E080B489B0C3
:103CD00000AFF860B9607A60FB6803F00703FB612E
:103CE000FB69C3F10703042B28BF0423BB61FB69F5
:103CF0000433062B02D9FB69033B00E000237B6100
:103D00004FF0FF32BB6902FA03F3DA43BB681A4093
:103D10007B699A404FF0FF317B6901FA03F3D94385
:103D20007B680B40134318462437BD465DF8047B7F
:103D30007047000080B582B000AF78607B68013BBF
:103D4000B3F1807F01D301230FE00A4A7B68013B76
:103D500053600F214FF0FF30FFF78EFF054B00221D
:103D60009A60044B07221A60002318460837BD46A4
:103D700080BD00BF10E000E080B582B000AF786089
:103D80007868FFF705FF00BF0837BD4680BD80B5E6
:103D900086B000AF0346B9607A60FB7300237B6195
:103DA000FFF71AFF78617A68B9687869FFF78EFFC4
:103DB000024697F90F3011461846FFF75DFF00BF26
:103DC0001837BD4680BD80B582B000AF0346FB7199
:103DD00097F907301846FFF70DFF00BF0837BD46BB
:103DE00080BD80B582B000AF0346FB7197F9073004
:103DF0001846FFF71DFF00BF0837BD4680BD80B5E0
:103E000082B000AF78607868FFF794FF03461846E9
:103E10000837BD4680BD000080B485B000AF786033
:103E20007B68002B01D1012398E07B681B681A4650
:103E30004D4B9A420FD87B681B681A464B4B134474
:103E40004B4AA2FB03231B099A007B685A647B68D8
:103E5000484A1A640EE07B681B681A46464B1344B6
:103E6000434AA2FB03231B099A007B685A647B68C0
:103E7000424A1A647B68022283F825207B681B680B
:103E80001B68FB60FB6823F4FF4323F07003FB60B7
:103E90007B689A687B68DB681A437B681B691A43F6
:103EA0007B685B691A437B689B691A437B68DB69A3
:103EB0001A437B681B6A1343FA681343FB607B68F1
:103EC0001B68FA681A607B689B68B3F5804F39D02D
:103ED0007B681B6C274A93421AD1294B1A687B686E
:103EE0005B6C03F01C030F2101FA03F3DB4324494D
:103EF00013400B60224B1A687B6859687B685B6CC7
:103F000003F01C0301FA03F31D4913430B6019E08E
:103F10001C4B1A687B685B6C03F01C030F2101FAD1
:103F200003F3DB43174913400B60164B1A687B6899
:103F300059687B685B6C03F01C0301FA03F31149B9
:103F400013430B607B680022DA637B68012283F8ED
:103F500025207B68002283F824200023184614378C
:103F6000BD465DF8047B704707040240F8FFFDBFC3
:103F7000CDCCCCCC00000240F8FBFDBF00040240D9
:103F8000A8000240A804024080B586B000AFF860E7
:103F9000B9607A603B600023FB75FB6893F82430BE
:103FA000012B01D102234BE0FB68012283F824207E
:103FB000FB6893F82530DBB2012B3AD1FB68022273
:103FC00083F82520FB680022DA63FB681B681A6807
:103FD000FB681B6822F001021A603B687A68B968C6
:103FE000F86800F0E0F8FB681B6B002B08D0FB685A
:103FF0001B681A68FB681B6842F00E021A600FE02B
:10400000FB681B681A68FB681B6822F004021A60D0
:10401000FB681B681A68FB681B6842F00A021A609A
:10402000FB681B681A68FB681B6842F001021A6093
:1040300005E0FB68002283F824200223FB75FB7D4A
:1040400018461837BD4680BD80B584B000AF786093
:104050007B681B6C1B68FB607B681B681B68BB6014
:104060007B685B6C03F01C0304229A40FB681340DE
:10407000002B26D0BB6803F00403002B21D07B6803
:104080001B681B6803F02003002B07D17B681B68AB
:104090001A687B681B6822F004021A607B685B6CFC
:1040A00003F01C027B681B6C042101FA02F25A60C7
:1040B0007B681B6B002B71D07B681B6B7868984703
:1040C0006CE07B685B6C03F01C0302229A40FB6887
:1040D0001340002B2ED0BB6803F00203002B29D025
:1040E0007B681B681B6803F02003002B0BD17B68E7
:1040F0001B681A687B681B6822F00A021A607B68DA
:10410000012283F825207B685B6C03F01C027B682E
:104110001B6C022101FA02F25A607B68002283F8CC
:1041200024207B68DB6A002B38D07B68DB6A7868E8
:10413000984733E07B685B6C03F01C0308229A40CD
:10414000FB681340002B2AD0BB6803F00803002B48
:1041500025D07B681B681A687B681B6822F00E02FA
:104160001A607B685B6C03F01C027B681B6C01218E
:1041700001FA02F25A607B680122DA637B6801224D
:1041800083F825207B68002283F824207B685B6B02
:10419000002B04D07B685B6B7868984700BF00BF3A
:1041A0001037BD4680BD80B485B000AFF860B960FF
:1041B0007A603B60FB685B6C03F01C02FB681B6C65
:1041C000012101FA02F25A60FB681B683A685A60E2
:1041D000FB689B68102B08D1FB681B687A689A60A3
:1041E000FB681B68BA68DA6007E0FB681B68BA689E
:1041F0009A60FB681B687A68DA6000BF1437BD46B6
:104200005DF8047B7047000080B586B000AFF860B1
:10421000B960C7E9002300233B612F4B1B78012BBA
:1042200001D1022353E02C4B01221A704CF2503082
:1042300000F088F80346FB75FB7D002B43D1264B2D
:1042400000225A60254B1B6803F48063002B09D0C1
:10425000224B1B68214A23F4806313601E4B022209
:104260001A7702E01C4B00221A77FB68002B07D15B
:10427000D7E90023B86800F0BBF801233B6110E0E8
:10428000FB68012B02D0FB68022B0AD13B68194660
:10429000B86800F0D3F8FB68022B02D14FF48023FA
:1042A0003B614CF2503000F04DF80346FB753B6922
:1042B000002B06D0094B5A693B69DB430749134081
:1042C0004B6100F0CDF9044B00221A70FB7D1846BB
:1042D0001837BD4680BD00BF1000002000200240FE
:1042E00080B483B000AF0023FB710B4B5B69002BE4
:1042F0000BDA094B094A9A60074B094A9A60064B48
:104300005B69002B01DA0123FB71FB7918460C373E
:10431000BD465DF8047B70470020024023016745DD
:10432000AB89EFCD80B400AF054B5B69044A43F025
:104330000043536100231846BD465DF8047B704777
:104340000020024080B584B000AF7860FFF7E0FB4A
:10435000F8600DE07B68B3F1FF3F09D0FFF7D8FBB1
:104360000246FB68D31A7A689A4201D8032335E0E3
:104370001C4B1B6903F48033002BEBD1194B1A69DA
:10438000194B1340BB60BB68002B1DD0174B5A68FC
:10439000BB681343154A5360BB68B3F1804F07D322
:1043A000104B9A69BB6803F040430E4913438B617D
:1043B000BB6823F04043002B04D00A4ABB6823F0BB
:1043C00040431361012309E0064B1B6903F001031D
:1043D000002B02D0034B01221A610023184610372C
:1043E000BD4680BD00200240FAC30200100000203C
:1043F00080B485B000AFF860C7E900230E4B5B695D
:104400000D4A43F001035361FB683A681A60BFF339
:104410006F8F00BFD7E900014FF000024FF000039B
:104420000A000023F968043113460B6000BF1437FB
:10443000BD465DF8047B70470020024080B489B01F
:1044400000AF786039604023FB777B68BB613B68D5
:104450007B61144B5B69134A43F480235361EFF390
:104460001083FB60FB683B6172B600BF7B691A6812
:10447000BB691A60BB690433BB617B6904337B6130
:10448000FB7F013BFB77FB7F002BEFD13B69BB60E0
:10449000BB6883F3108800BF00BF2437BD465DF8BA
:1044A000047B70470020024080B584B000AF786084
:1044B0003960484B1B78012B01D1022385E0454B25
:1044C00001221A704CF25030FFF73CFF0346FB7399
:1044D000FB7B002B75D13F4B00225A603E4B1B6883
:1044E00003F40073002B13D03B4B1B6803F4806371
:1044F000002B09D0384B1B68374A23F480631360C4
:10450000344B03221A7716E0324B01221A7712E05D
:10451000314B1B6803F48063002B09D02E4B1B68C2
:104520002D4A23F4806313602A4B02221A7702E09B
:10453000284B00221A777B681B68012B11D17B68FE
:104540005B68184600F04AF84CF25030FFF7FAFE6C
:104550000346FB73204B5B691F4A23F0040353613E
:104560002DE03B684FF0FF321A607B689B68BB60B0
:104570001DE07B685B681946B86800F04DF84CF2A6
:104580005030FFF7DFFE0346FB73134B5B69124AA3
:1045900023F4FF6323F002035361FB7B002B03D062
:1045A0003B68BA681A600AE0BB680133BB607B688D
:1045B0009A687B68DB681344BA689A42D9D300F0E2
:1045C0004FF8044B00221A70FB7B18461037BD468B
:1045D00080BD00BF100000200020024080B483B0E6
:1045E00000AF78607B6803F00103002B05D0094B16
:1045F0005B69084A43F004035361064B5B69054A53
:1046000043F48033536100BF0C37BD465DF8047B33
:10461000704700BF0020024080B483B000AF7860D4
:1046200039600E4B5B6923F4FF627B68DB0003F4A7
:10463000FF630A4913434B61084B5B69074A43F028
:1046400002035361054B5B69044A43F480335361B1
:1046500000BF0C37BD465DF8047B70470020024068
:1046600080B483B000AF214B1B7FFB71FB79012B22
:1046700002D0FB79032B17D11D4B1B681C4A23F476
:10468000007313601A4B1B68194A43F400631360EC
:10469000174B1B68164A23F400631360144B1B6806
:1046A000134A43F400731360FB79022B02D0FB79A9
:1046B000032B11D10E4B1B680D4A43F4805313603A
:1046C0000B4B1B680A4A23F480531360084B1B688A
:1046D000074A43F480631360044B00221A7700BF3B
:1046E0000C37BD465DF8047B704700BF100000200A
:1046F0000020024080B487B000AF786039600023AA
:104700007B6154E13B681A6801217B6901FA03F37C
:104710001340FB60FB68002B00F046813B685B6840
:1047200003F00303012B05D03B685B6803F0030330
:10473000022B30D17B689B683B617B695B00032265
:1047400002FA03F3DB433A6913403B613B68DA68E2
:104750007B695B0002FA03F33A6913433B617B68B0
:104760003A699A607B685B683B6101227B6902FA67
:1047700003F3DB433A6913403B613B685B681B0909
:1047800003F001027B6902FA03F33A6913433B61C8
:104790007B683A695A603B685B6803F00303032B4C
:1047A00017D07B68DB683B617B695B00032202FA00
:1047B00003F3DB433A6913403B613B689A687B69CA
:1047C0005B0002FA03F33A6913433B617B683A6981
:1047D000DA603B685B6803F00303022B23D17B693B
:1047E000DA087B68083253F822303B617B6903F0BA
:1047F00007039B000F2202FA03F3DB433A691340DD
:104800003B613B681A697B6903F007039B0002FA6E
:1048100003F33A6913433B617B69DA087B6808322A
:10482000396943F822107B681B683B617B695B0038
:10483000032202FA03F3DB433A6913403B613B680E
:104840005B6803F003027B695B0002FA03F33A69D9
:1048500013433B617B683A691A603B685B6803F409
:104860004033002B00F0A080584B1B6E574A43F09A
:1048700001031366554B1B6E03F00103BB60BB685D
:10488000534A7B699B08023352F823303B617B69B2
:1048900003F003039B000F2202FA03F3DB433A69A0
:1048A00013403B617B68B3F1904F19D07B68494A54
:1048B000934213D07B68484A93420DD07B68474AA5
:1048C000934207D07B68464A934201D1042308E013
:1048D000072306E0032304E0022302E0012300E0B3
:1048E00000237A6902F00302920093403A6913436D
:1048F0003B6137497B699B0802333A6941F82320C1
:10490000384B9B683B61FB68DB433A6913403B6172
:104910003B685B6803F48013002B03D03A69FB68A3
:1049200013433B612F4A3B6993602E4BDB683B612D
:10493000FB68DB433A6913403B613B685B6803F407
:104940000013002B03D03A69FB6813433B61254AEF
:104950003B69D360234B5B683B61FB68DB433A698F
:1049600013403B613B685B6803F40033002B03D0CA
:104970003A69FB6813433B611A4A3B695360194B20
:104980001B683B61FB68DB433A6913403B613B6852
:104990005B6803F48033002B03D03A69FB68134350
:1049A0003B61104A3B6913607B6901337B613B6863
:1049B0001A687B6922FA03F3002B7FF4A3AE00BFD1
:1049C00000BF1C37BD465DF8047B704700100240F5
:1049D000000001400004004800080048000C0048A6
:1049E000001000480004014080B483B000AF78603C
:1049F0000B467B8013467B707B78002B03D07A8834
:104A00007B689A6102E07A887B689A6200BF0C3703
:104A1000BD465DF8047B704780B485B000AF786018
:104A20000B467B807B685B69FB607A88FB68134080
:104A30001A04FB68D9437B880B401A437B689A6150
:104A400000BF1437BD465DF8047B704780B582B067
:104A500000AF0346FB80084B5A69FB881340002BCC
:104A600006D0054AFB885361FB881846FDF7CEFD4A
:104A700000BF0837BD4680BD0004014080B584B04A
:104A800000AF78607B68002B01D101238FE07B6849
:104A90005B68012B7B6893F83630DBB2002B06D1C4
:104AA0007B68002283F835207868FEF705FC7B6878
:104AB000022283F836207B681B68DB68FB607B681A
:104AC0005B68012B04D07B689B6AB3F5000F03D1B0
:104AD000FB6823F01E03FB607B685B694FF6FF7287
:104AE000934205D0FB6823F4604323F0C003FB60CE
:104AF000FA68314B1340FB607B685A687B689B689F
:104B00001A437B681B6A1A437B685B6A1A437B689B
:104B10009B6A1343FA681343FB607B685B68002B56
:104B200007D17B68DA697B681B691343FA68134312
:104B3000FB607B685B68012B04D07B689B6AB3F5E4
:104B4000000F07D17B68DA687B681B691343FA683A
:104B50001343FB607B685B694FF6FF7293420AD098
:104B60007B685A697B689B691A437B68DB691343DE
:104B7000FA681343FB607B681B68FA68DA607B683D
:104B80001B680E4A934208D17B68D96A7B681A6B0E
:104B90007B681B680A431A6204E07B681B687A68BA
:104BA000D26A1A627B68012283F8362000231846F5
:104BB0001037BD4680BD00BFFEF119FF007C0040EC
:104BC00080B582B000AF786039607B68022283F8DC
:104BD00036207B681B68374A934206D1364B1B6AE6
:104BE000354A43F00103136205E0334B1B6A324A36
:104BF00043F0020313627B685B68012B0CD07B6877
:104C00009B6AB3F5000F07D17B681B68DA687B6885
:104C10001B6822F46062DA607B681B681A697B6833
:104C20001B6842F001021A617B681B6810225A60FF
:104C30007B681B683A689A611021786800F066F911
:104C40000346032B01D103232FE0786800F08EF98F
:104C5000786800F04CF90346032B01D1032324E0CC
:104C60007B681B689A687B681B6842F010029A6038
:104C70007B681B689A687B681B6842F002029A6036
:104C80007B681B681A697B681B6842F001021A6125
:104C90007B681B681A697B681B6842F004021A6112
:104CA0007B68012283F83620002318460837BD466A
:104CB00080BD00BF007C00400004014080B582B090
:104CC00000AF78607B681B681B4A934206D11B4B80
:104CD0001B6A1A4A23F00103136205E0174B1B6A93
:104CE000164A23F0020313627B68022283F83620FF
:104CF000786800F03BF9786800F0F9F80346032B78
:104D000001D1032314E07B681B689A687B681B68E9
:104D100022F010029A607B681B689A687B681B68A7
:104D200022F002029A607B68012283F83620002379
:104D300018460837BD4680BD007C00400004014095
:104D400080B582B000AF78607B681B681B6803F099
:104D50000103012B0DD17B681B689B6803F00103E5
:104D6000012B06D17B681B6801225A60786800F02D
:104D700082F87B681B681B6803F00203022B0DD1CD
:104D80007B681B689B6803F00203022B06D17B68DB
:104D90001B6802225A607868FDF76AFC7B681B6812
:104DA0001B6803F00403042B0DD17B681B689B6810
:104DB00003F00403042B06D17B681B6804225A60AD
:104DC000786800F062F87B681B681B6803F00803D2
:104DD000082B0DD17B681B689B6803F00803082B28
:104DE00006D17B681B6808225A60786800F057F883
:104DF0007B681B681B6803F01003102B0DD17B68C8
:104E00001B689B6803F01003102B06D17B681B689E
:104E100010225A60786800F04CF87B681B681B68A9
:104E200003F02003202B0DD17B681B689B6803F0E7
:104E30002003202B06D17B681B6820225A607868EB
:104E400000F041F87B681B681B6803F04003402BAF
:104E50000DD17B681B689B6803F04003402B06D193
:104E60007B681B6840225A60786800F036F800BF03
:104E70000837BD4680BD80B483B000AF786000BF06
:104E80000C37BD465DF8047B704780B483B000AF3B
:104E9000786000BF0C37BD465DF8047B704780B476
:104EA00083B000AF786000BF0C37BD465DF8047B6F
:104EB000704780B483B000AF786000BF0C37BD4648
:104EC0005DF8047B704780B483B000AF786000BFAA
:104ED0000C37BD465DF8047B704780B483B000AFEB
:104EE000786000BF0C37BD465DF8047B704780B426
:104EF00083B000AF78607B6893F83630DBB2184639
:104F00000C37BD465DF8047B7047000080B485B067
:104F100000AF786039600023FB73124B1B68124AA4
:104F2000A2FB03239B0B4FF47A7202FB03F3BB60DB
:104F3000BB68013BBB60BB68002B01D10323FB7343
:104F40007B681B681A683B6813403A689A4202D033
:104F5000BB68002BECD1FB7B18461437BD465DF8CF
:104F6000047B7047040000205917B7D180B58CB07E
:104F700000AF78600023FB62EFF31083FB60FB68F7
:104F8000BB6201233B613B6983F3108800BF7B68F0
:104F90001B68734A934203D0724A934207D00DE0D4
:104FA000714BD3F8883003F44023FB6206E06E4B6C
:104FB000D3F8883003F44013FB6200BF7B681B68A2
:104FC0009B687B627B681B68DB683B627B681B6855
:104FD0005B69FB617B681B689B69BB617B681B68C5
:104FE0001B6A7B617B681B685D4A934203D05D4A04
:104FF00093420DD019E05C4B9B6B5B4A43F000433E
:105000009363594B9B6B584A23F0004393630CE026
:10501000554BDB6B544A43F02003D363524BDB6B9D
:10502000514A23F02003D36300BFFB69002B02D158
:10503000BB69002B75D07B681B68494A934203D03B
:10504000484A934209D011E0474BD3F88830464A8A
:1050500023F44023C2F8883008E0434BD3F888306B
:10506000414A23F44013C2F8883000BFFB69002B8B
:105070001AD07B681B681A697B681B6842F00102C2
:105080001A617B681B68FA695A6108217868FFF722
:105090003DFF0346032B03D17B68032283F83620B0
:1050A0007B681B6808225A60BB69002B1AD07B689A
:1050B0001B681A697B681B6842F001021A617B68F1
:1050C0001B68BA699A6110217868FFF71FFF0346D1
:1050D000032B03D17B68032283F836207B681B688F
:1050E00010225A607B681B681D4A934203D01D4AF8
:1050F00093420BD015E01C4BD3F8883023F44022A8
:105100001949FB6A1343C1F888300AE0164BD3F8FB
:10511000883023F440121449FB6A1343C1F88830E5
:1051200000BF7B681B681A697B681B6822F001025C
:105130001A617B681B687A6A9A607B681B683A6AA6
:10514000DA607B681B687A691A62BB6ABB60BB68FD
:1051500083F3108800BF00BF3037BD4680BD00BF5D
:10516000007C00400094004000100240F0B58BB07D
:1051700006AF78607B68002B01D10123F8E07B68E3
:1051800093F8A932DBB2002B06D17B68002283F8AA
:10519000A82278680DF0C6FF7B68032283F8A92255
:1051A0007B681B68184605F098FD7B681B683B60B0
:1051B0007E686D4606F110040FCC0FC523682B6086
:1051C000331D0ECB386805F060FD0346002B05D07B
:1051D0007B68022283F8A9220123C9E07B681B684F
:1051E0000021184605F094FD0023FB7340E0FB7B93
:1051F00079685A1C13469B001344DB000B440133AF
:1052000001221A70FB7B79685A1C13469B001344D9
:10521000DB000B44FA7B1A70FB7B79685A1C13463F
:105220009B001344DB000B44033300221A70FA7B0B
:10523000796813469B001344DB000B44383300228B
:105240001A60FA7B796813469B001344DB000B4419
:105250003C3300221A60FA7B796813469B001344A2
:10526000DB000B44403300221A60FB7B0133FB73ED
:10527000FA7B7B685B689A42B9D30023FB7344E0F6
:10528000FA7B796813469B001344DB000B4403F25E
:10529000691300221A70FA7B796813469B00134445
:1052A000DB000B4403F5B473FA7B1A70FA7B796860
:1052B00013469B001344DB000B4403F26B130022E4
:1052C0001A70FA7B796813469B001344DB000B4489
:1052D00003F5BC7300221A60FA7B796813469B00C1
:1052E0001344DB000B4403F5BE7300221A60FA7B03
:1052F000796813469B001344DB000B4403F5C0732D
:1053000000221A60FB7B0133FB73FA7B7B685B68CE
:105310009A42B5D37B681B683B607E686D4606F198
:1053200010040FCC0FC523682B60331D0ECB3868DB
:1053300005F0FBFC0346002B05D07B68022283F8B6
:10534000A922012314E07B68002283F824207B68D3
:10535000012283F8A9227B68DB69012B02D17868DE
:1053600001F057FC7B681B68184607F08BFF002391
:1053700018461437BD46F0BD80B582B000AF7860E6
:105380007B6893F8A832012B01D1022312E07B68DD
:10539000012283F8A8227B681B68184605F086FC6A
:1053A0007B681B68184607F056FF7B68002283F86D
:1053B000A822002318460837BD4680BD80B584B0BA
:1053C00000AF78607B681B68184607F070FFF860D4
:1053D000FB6803F40043002B03D0786800F013FB54
:1053E00010E1FB6803F48063002B13D07B681B681B
:1053F000B3F844309AB27B681B6822F4806292B2A0
:10540000A3F8442078680DF048FF0021786800F088
:10541000FCF8F7E0FB6803F48043002B0CD07B68BA
:105420001B68B3F844309AB27B681B6822F4804250
:1054300092B2A3F84420E5E0FB6803F40053002B8C
:105440000CD07B681B68B3F844309AB27B681B6849
:1054500022F4005292B2A3F84420D3E0FB6803F494
:105460008053002B34D07B681B68B3F840309AB26D
:105470007B681B6822F0040292B2A3F840207B688C
:105480001B68B3F840309AB27B681B6822F00802B0
:1054900092B2A3F840207B6893F8E032012B07D149
:1054A0007B68002283F8E022002178680EF0A6F9DC
:1054B00078680DF02BFF7B681B68B3F844309AB214
:1054C0007B681B6822F4805292B2A3F8442099E0D2
:1054D000FB6803F40063002B27D07B681B68B3F8DC
:1054E00040309AB27B681B6842F0080292B2A3F87F
:1054F00040207B681B68B3F844309AB27B681B6815
:1055000022F4006292B2A3F844207B681B68B3F8CF
:1055100040309AB27B681B6842F0040292B2A3F852
:10552000402078680DF0D8FE6CE0FB6803F0800343
:10553000002B40D07B681B68B3F844309AB27B687C
:105540001B6822F0800292B2A3F844207B6893F893
:10555000E032002B2BD17B681B68B3F840309AB245
:105560007B681B6842F0040292B2A3F840207B687B
:105570001B68B3F840309AB27B681B6842F008029F
:1055800092B2A3F840207B68012283F8E0227B6876
:105590001B68B3F854309BB29B0803F03C027B6855
:1055A000C3F8E422012178680EF028F92AE078682F
:1055B0000DF092FE26E0FB6803F40073002B0FD081
:1055C0007B681B68B3F844309AB27B681B6822F48E
:1055D000007292B2A3F8442078680DF050FE11E0FA
:1055E000FB6803F48073002B0CD07B681B68B3F856
:1055F00044309AB27B681B6822F4807292B2A3F89E
:10560000442000BF1037BD4680BD80B582B000AFDA
:1056100078600B46FB707B6893F8A832012B01D1B0
:10562000022313E07B68012283F8A8227B68FA78C2
:1056300083F824207B681B68FA781146184607F027
:10564000F6FD7B68002283F8A8220023184608375D
:10565000BD4680BD80B584B000AF78600846114675
:105660001A460346FB700B463B801346BB70002373
:10567000FB7297F90330002B0EDAFB7803F0070377
:105680005A1C13469B001344DB007A681344FB60EA
:10569000FB6801225A700EE0FB7803F00702134604
:1056A0009B001344DB0003F5B4737A681344FB607A
:1056B000FB6800225A70FB7803F00703DAB2FB683C
:1056C0001A703A88FB681A61FB68BA78DA70BB789E
:1056D000022B02D1FB6800221A717B6893F8A83272
:1056E000012B01D102230EE07B68012283F8A8225E
:1056F0007B681B68F968184605F038FB7B68002258
:1057000083F8A822FB7A18461037BD4680BD80B5C5
:1057100084B000AF78600B46FB7097F90330002B24
:105720000EDAFB7803F007035A1C13469B00134460
:10573000DB007A681344FB60FB6801225A700EE0BC
:10574000FB7803F0070213469B001344DB0003F5CC
:10575000B4737A681344FB60FB6800225A70FB78CC
:1057600003F00703DAB2FB681A707B6893F8A8327B
:10577000012B01D102230EE07B68012283F8A822CD
:105780007B681B68F968184605F0B4FE7B68002248
:1057900083F8A822002318461037BD4680BD80B587
:1057A00086B000AFF8607A603B600B46FB72FB7A14
:1057B00003F0070213469B001344DB0003F5B473A8
:1057C000FA6813447B617B697A685A617B693A683D
:1057D0009A617B690022DA617B6900225A70FB7A48
:1057E00003F00703DAB27B691A70FB681B687969FA
:1057F000184606F06CF8002318461837BD4680BDE1
:1058000080B483B000AF78600B46FB70FB7803F088
:105810000702796813469B001344DB000B4403F531
:10582000C2731B6818460C37BD465DF8047B704791
:1058300080B586B000AFF8607A603B600B46FB72C3
:10584000FB7A03F007035A1C13469B001344DB004A
:10585000FA6813447B617B697A685A617B693A68AC
:105860009A617B69012283F824207B693A681A6275
:105870007B690022DA617B6901225A70FB7A03F0AE
:105880000703DAB27B691A70FB681B6879691846EE
:1058900006F01DF8002318461837BD4680BD80B5B8
:1058A00084B000AF78600B46FB70FB7803F0070212
:1058B0007B685B689A4201D901234CE097F9033079
:1058C000002B0EDAFB7803F007035A1C13469B00EB
:1058D0001344DB007A681344FB60FB6801225A70B2
:1058E0000CE0FA7813469B001344DB0003F5B47315
:1058F0007A681344FB60FB6800225A70FB6801223F
:105900009A70FB7803F00703DAB2FB681A707B68C1
:1059100093F8A832012B01D102231CE07B680122FD
:1059200083F8A8227B681B68F968184607F080FB9B
:10593000FB7803F00703002B08D17B681A687B68AB
:1059400003F52C731946104607F0C1FC7B68002252
:1059500083F8A822002318461037BD4680BD80B5C5
:1059600084B000AF78600B46FB70FB7803F00F0249
:105970007B685B689A4201D9012340E097F90330C4
:10598000002B0EDAFB7803F007035A1C13469B002A
:105990001344DB007A681344FB60FB6801225A70F1
:1059A0000EE0FB7803F0070213469B001344DB0074
:1059B00003F5B4737A681344FB60FB6800225A70E5
:1059C000FB6800229A70FB7803F00703DAB2FB68E9
:1059D0001A707B6893F8A832012B01D102230EE0E4
:1059E0007B68012283F8A8227B681B68F968184647
:1059F00007F06FFB7B68002283F8A822002318467B
:105A00001037BD4680BD80B596B000AF7860B0E37A
:105A10007B681B68B3F84430A7F84E30B7F84E30B7
:105A2000DBB203F00F0387F84D3097F84D30002BB1
:105A300040F07281B7F84E3003F01003002B4FD1C5
:105A40007B681B681B889BB223F4E14323F070033F
:105A5000FB817B681A68FB896FEA43436FEA534313
:105A60009BB213807B6828337B657B681B68B3F827
:105A700050309BB21A467B6D1B78DB0013447A686A
:105A80001268134403F202431B88C3F309027B6DBF
:105A9000DA617B6D5A697B6DDB691A447B6D5A61F3
:105AA000002178680DF0D1FB7B6893F82430DBB2DD
:105AB000002B00F05E837B6D9B69002B40F05983C7
:105AC0007B6893F82430DBB263F07F03DAB27B6843
:105AD0001B68A3F84C207B68002283F8242048E34D
