:020000040800F2
:1000000000000220691E0008251C00082B1C0008A7
:10001000311C0008371C00083D1C000800000000CF
:10002000000000000000000000000000D183000874
:10003000431C00080000000021860008511C000835
:10004000B91E0008B91E0008B91E0008B91E000834
:10005000B91E0008B91E0008B91E0008B91E000824
:10006000B91E0008B91E0008B91E0008B91E000814
:10007000B91E0008B91E00086D1C0008811C00088C
:10008000B91E0008B91E0008B91E000800000000D3
:10009000000000000000000000000000B91E000881
:1000A000B91E0008951C0008B91E0008B91E0008FA
:1000B000B91E0008B91E0008B91E0008B91E0008C4
:1000C000B91E0008B91E0008B91E0008B91E0008B4
:1000D000B91E0008B91E0008B91E00080000000083
:1000E000A91C0008B91E0008B91E00080000000085
:1000F000000000000000000000000000B91E000821
:1001000000000000B91E0008B91E0008B91E000852
:1001100000000000000000000000000000000000DF
:10012000B91E0008B91E0008B91E0008B91E000853
:10013000B91E0008000000000000000000000000E0
:10014000000000000000000000000000B91E0008D0
:10015000B91E0008B91E0008B91E0008B91E000823
:10016000B91E0008B91E00080000000000000000D1
:10017000000000000000000000000000000000007F
:1001800000000000B91E0008000000000000000090
:08019000B91E0008B91E0008A9
:1001A00010B5054C237833B9044B13B10448AFF3B1
:1001B00000800123237010BDD80100200000000042
:1001C00040D6000808B5034B1BB103490348AFF301
:1001D000008008BD00000000DC01002040D60008BF
:1001E00001F0FF01102A2BDB10F0070F08D010F8E8
:1001F000013B013A8B422DD010F0070F42B3F6D1EC
:10020000F0B441EA012141EA014122F007047FF004
:1002100000070023F0E80256083C85EA010586EA5B
:10022000010685FA47F5A3FA87F586FA47F6A5FA97
:1002300087F68EB9EED1F0BC01F0FF0102F00702A3
:1002400032B110F8013B013A83EA010313B1F8D14E
:100250000020704701387047002D06BF354603382F
:10026000073815F0010F07D1013015F4807F02BF68
:10027000013015F4C03F0130F0BC0138704700BFB9
:10028000034613F8012B002AFBD1181A01387047D6
:1002900081F0004102E000BF83F0004330B54FEA37
:1002A00041044FEA430594EA050F08BF90EA020FA4
:1002B0001FBF54EA000C55EA020C7FEA645C7FEA37
:1002C000655C00F0E2804FEA5454D4EB5555B8BF5A
:1002D0006D420CDD2C4480EA020281EA030382EACB
:1002E000000083EA010180EA020281EA0303362D5D
:1002F00088BF30BD11F0004F4FEA01314FF4801C30
:100300004CEA113102D0404261EB410113F0004F41
:100310004FEA03334CEA133302D0524263EB4303F8
:1003200094EA050F00F0A780A4F10104D5F1200E96
:100330000DDB02FA0EFC22FA05F2801841F10001F1
:1003400003FA0EF2801843FA05F359410EE0A5F1C5
:1003500020050EF1200E012A03FA0EFC28BF4CF0F6
:10036000020C43FA05F3C01851EBE37101F00045AC
:1003700007D54FF0000EDCF1000C7EEB00006EEBB9
:100380000101B1F5801F1BD3B1F5001F0CD3490843
:100390005FEA30004FEA3C0C04F101044FEA44529A
:1003A00012F5800F80F09A80BCF1004F08BF5FEA21
:1003B000500C50F1000041EB045141EA050130BD01
:1003C0005FEA4C0C404141EB0101013C28BFB1F513
:1003D000801FE9D291F0000F04BF01460020B1FA5E
:1003E00081F308BF2033A3F10B03B3F120020CDA31
:1003F0000C3208DD02F1140CC2F10C0201FA0CF00F
:1004000021FA02F10CE002F11402D8BFC2F1200C73
:1004100001FA02F120FA0CFCDCBF41EA0C01904029
:10042000E41AA2BF01EB0451294330BD6FEA040472
:100430001F3C1CDA0C340EDC04F11404C4F120025D
:1004400020FA04F001FA02F340EA030021FA04F36F
:1004500045EA030130BDC4F10C04C4F1200220FAC6
:1004600002F001FA04F340EA0300294630BD21FA04
:1004700004F0294630BD94F0000F83F4801306BFCA
:1004800081F480110134013D4EE77FEA645C18BFBE
:100490007FEA655C29D094EA050F08BF90EA020F55
:1004A00005D054EA000C04BF1946104630BD91EA4D
:1004B000030F1EBF0021002030BD5FEA545C05D150
:1004C0004000494128BF41F0004130BD14F580048F
:1004D0003CBF01F5801130BD01F0004545F0FE4103
:1004E00041F470014FF0000030BD7FEA645C1ABF38
:1004F000194610467FEA655C1CBF0B46024650EA6F
:10050000013406BF52EA033591EA030F41F400219A
:1005100030BD00BF90F0000F04BF0021704730B520
:100520004FF4806404F132044FF000054FF00001F5
:1005300050E700BF90F0000F04BF0021704730B5B6
:100540004FF4806404F1320410F0004548BF40428B
:100550004FF000013EE700BF42004FEAE2014FEAE0
:1005600031014FEA02701FBF12F07F4393F07F4FBB
:1005700081F06051704732F07F4208BF704793F0BE
:100580007F4F04BF41F40021704730B54FF46074D1
:1005900001F0004521F000411CE700BF50EA0102D4
:1005A00008BF704730B54FF000050AE050EA01027D
:1005B00008BF704730B511F0004502D5404261EBED
:1005C00041014FF4806404F132045FEA915C3FF42E
:1005D000D8AE4FF003025FEADC0C18BF03325FEACB
:1005E000DC0C18BF033202EBDC02C2F1200300FA7C
:1005F00003FC20FA02F001FA03FE40EA0E0021FAA1
:1006000002F11444BDE600BF70B54FF0FF0C4CF48E
:10061000E06C1CEA11541DBF1CEA135594EA0C0F40
:1006200095EA0C0F00F0DEF82C4481EA030621EA7B
:100630004C5123EA4C5350EA013518BF52EA0335B6
:1006400041F4801143F4801338D0A0FB02CE4FF068
:100650000005E1FB02E506F00042E0FB03E54FF098
:100660000006E1FB03569CF0000F18BF4EF0010E90
:10067000A4F1FF04B6F5007F64F5407404D25FEA8C
:100680004E0E6D4146EB060642EAC62141EA55513F
:100690004FEAC52040EA5E504FEACE2EB4F1FD0C81
:1006A00088BFBCF5E06F1ED8BEF1004F08BF5FEAFF
:1006B000500E50F1000041EB045170BD06F00046B1
:1006C00046EA010140EA020081EA0301B4EB5C045E
:1006D000C2BFD4EB0C0541EA045170BD41F4801156
:1006E0004FF0000E013C00F3AB8014F1360FDEBF7B
:1006F000002001F0004170BDC4F10004203C35DA57
:100700000C341BDC04F11404C4F1200500FA05F3D9
:1007100020FA04F001FA05F240EA020001F000427A
:1007200021F0004110EBD37021FA04F642EB0601F0
:100730005EEA430E08BF20EAD37070BDC4F10C041A
:10074000C4F1200500FA04F320FA05F001FA04F2DE
:1007500040EA020001F0004110EBD37041F10001CA
:100760005EEA430E08BF20EAD37070BDC4F12005D5
:1007700000FA05F24EEA020E20FA04F301FA05F23D
:1007800043EA020321FA04F001F0004121FA04F2E5
:1007900020EA020000EBD3705EEA430E08BF20EAB5
:1007A000D37070BD94F0000F0FD101F000464000EF
:1007B00041EB010111F4801F08BF013CF7D041EA71
:1007C000060195F0000F18BF704703F00046520075
:1007D00043EB030313F4801F08BF013DF7D043EA46
:1007E0000603704794EA0C0F0CEA135518BF95EAFC
:1007F0000C0F0CD050EA410618BF52EA4306D1D183
:1008000081EA030101F000414FF0000070BD50EAA1
:10081000410606BF1046194652EA430619D094EA2B
:100820000C0F02D150EA013613D195EA0C0F05D115
:1008300052EA03361CBF104619460AD181EA030169
:1008400001F0004141F0FE4141F470014FF0000021
:1008500070BD41F0FE4141F4780170BD70B54FF0BC
:10086000FF0C4CF4E06C1CEA11541DBF1CEA13553C
:1008700094EA0C0F95EA0C0F00F0A7F8A4EB05041E
:1008800081EA030E52EA03354FEA013100F0888015
:100890004FEA03334FF0805545EA131343EA1263DE
:1008A0004FEA022245EA111545EA10654FEA002693
:1008B0000EF000419D4208BF964244F1FD0404F54C
:1008C000407402D25B084FEA3202B61A65EB0305A8
:1008D0005B084FEA32024FF480104FF4002CB6EB65
:1008E000020E75EB030E22BFB61A754640EA0C00E5
:1008F0005B084FEA3202B6EB020E75EB030E22BF25
:10090000B61A754640EA5C005B084FEA3202B6EB65
:10091000020E75EB030E22BFB61A754640EA9C0024
:100920005B084FEA3202B6EB020E75EB030E22BFF4
:10093000B61A754640EADC0055EA060E18D04FEAB2
:10094000051545EA16754FEA06164FEAC30343EA52
:1009500052734FEAC2025FEA1C1CC0D111F4801F1F
:100960000BD141EA00014FF000004FF0004CB6E718
:1009700011F4801F04BF01430020B4F1FD0C88BFB7
:10098000BCF5E06F3FF6AFAEB5EB030C04BFB6EBC2
:10099000020C5FEA500C50F1000041EB045170BDB5
:1009A0000EF0004E4EEA113114EB5C04C2BFD4EBE2
:1009B0000C0541EA045170BD41F480114FF0000E66
:1009C000013C90E645EA060E8DE60CEA135594EAE2
:1009D0000C0F08BF95EA0C0F3FF43BAF94EA0C0FE5
:1009E0000AD150EA01347FF434AF95EA0C0F7FF45A
:1009F00025AF104619462CE795EA0C0F06D152EAAE
:100A000003353FF4FDAE1046194622E750EA410691
:100A100018BF52EA43067FF4C5AE50EA41047FF4A2
:100A20000DAF52EA43057FF4EBAE12E74FF0FF3C07
:100A300006E000BF4FF0010C02E000BF4FF0010CD8
:100A40004DF804CD4FEA410C7FEA6C5C4FEA430C51
:100A500018BF7FEA6C5C1BD001B050EA410C0CBFA0
:100A600052EA430C91EA030F02BF90EA020F002002
:100A7000704710F1000F91EA030F58BF994208BF69
:100A800090422CBFD8176FEAE37040F00100704726
:100A90004FEA410C7FEA6C5C02D150EA013C07D17D
:100AA0004FEA430C7FEA6C5CD6D152EA033CD3D0C8
:100AB0005DF8040B704700BF8446104662468C46C2
:100AC0001946634600E000BF01B5FFF7B7FF0028F5
:100AD00048BF10F1000F01BD4DF808EDFFF7F4FF1E
:100AE0000CBF012000205DF808FB00BF4DF808EDA9
:100AF000FFF7EAFF34BF012000205DF808FB00BFCC
:100B00004DF808EDFFF7E0FF94BF012000205DF8ED
:100B100008FB00BF4DF808EDFFF7CEFF94BF0120A2
:100B200000205DF808FB00BF4DF808EDFFF7C4FF9B
:100B300034BF012000205DF808FB00BF4FEA410CE4
:100B40007FEA6C5C02D150EA013C0AD14FEA430CC7
:100B50007FEA6C5C02D152EA033C02D14FF0000004
:100B600070474FF0010070474FEA410212F5001242
:100B700015D211D56FF47873B3EB625212D94FEAE4
:100B8000C12343F0004343EA505311F0004F23FACE
:100B900002F018BF404270474FF00000704750EA23
:100BA000013005D111F0004008BF6FF000407047E0
:100BB0004FF00000704700BF4A0011D212F500123A
:100BC00011D20DD56FF47873B3EB62520ED44FEAA5
:100BD000C12343F0004343EA505323FA02F0704725
:100BE0004FF00000704750EA013002D14FF0FF3063
:100BF00070474FF0000070474FEA4102B2F1E04306
:100C000024BFB3F5001CDCF1FE5C0DD901F0004CF3
:100C10004FEAC0024CEA5070B2F1004F40EB830043
:100C200008BF20F00100704711F0804F21D113F16F
:100C30003872BCBF01F00040704741F480114FEAA8
:100C40005252C2F11802C2F1200C10FA0CF320FA31
:100C500002F018BF40F001004FEAC1234FEAD3234E
:100C600003FA0CFC40EA0C0023FA02F34FEA4303B8
:100C7000CCE77FEA625307D150EA01331EBF4FF041
:100C8000FE4040F44000704701F0004040F0FE405C
:100C900040F40000704700BF53B94AB9002908BFAB
:100CA00000281CBF4FF0FF314FF0FF3000F0A6B915
:100CB000ADF1080C6DE904CE00F03CF8DDF804E07D
:100CC000DDE9022304B0704738B500220023044652
:100CD0000D46FFF70BFF28B920462946BDE83840EE
:100CE00000F00AB8204605F1004100F005F8404246
:100CF00061EB410138BD00BFD0B50C4B0022064668
:100D00000F46FFF781FCFFF757FF0446FFF702FC91
:100D1000074B0022FFF778FC02460B463046394667
:100D2000FFF7BAFAFFF748FF2146D0BD0000F03DBB
:100D30000000F0412DE9F047089E0D4604460F469D
:100D4000002B4AD18A42944665D9B2FA82F343B164
:100D500002FA03FCC3F120029F4020FA02F217437B
:100D60009C404FEA1C4E1FFA8CF5B7FBFEF1220C9B
:100D70000EFB117742EA074201FB05F090420AD9C7
:100D80001CEB020201F1FF3780F01C81904240F21F
:100D9000198102396244121AA4B2B2FBFEF00EFBB2
:100DA000102244EA024400FB05F5A5420AD91CEBD7
:100DB000040400F1FF3280F00781A54240F2048173
:100DC0006444023840EA0140641B00211EB1DC404B
:100DD0000023C6E90043BDE8F0878B4208D9002E06
:100DE00000F0ED800021C6E900050846BDE8F08767
:100DF000B3FA83F1002949D1AB4202D3824200F217
:100E0000F880841A65EB030201201746002EE2D019
:100E1000C6E90047DFE702B9FFDEB2FA82F3002B32
:100E200040F090808A1A4FEA1C471FFA8CFE01217D
:100E3000B2FBF7F507FB1520220C42EA00420EFB3D
:100E400005F0904208D91CEB020205F1FF3802D2EE
:100E5000904200F2CB804546121AA4B2B2FBF7F0E2
:100E600007FB102244EA02440EFB00FEA64508D907
:100E70001CEB040400F1FF3202D2A64500F2BB8055
:100E80001046A4EB0E0440EA05409FE7C1F120079D
:100E90008B4022FA07FC4CEA030C05FA01F420FA15
:100EA00007F3FD404FEA1C492343B5FBF9F81FFA4D
:100EB0008CFE09FB18551C0C44EA054408FB0EF592
:100EC000A54202FA01F200FA01F00BD91CEB04046E
:100ED00008F1FF3A80F08880A54240F28580A8F1B1
:100EE00002086444641B9DB2B4FBF9F309FB13448C
:100EF00045EA044403FB0EFEA64508D91CEB040496
:100F000003F1FF356CD2A6456AD9023B644443EA3B
:100F10000843A3FB0295A4EB0E04AC42C846AE46C0
:100F200056D353D056B1B0EB080264EB0E0404FA6A
:100F300007F7CA40CC401743C6E9007418460021A1
:100F4000BDE8F087C3F1200102FA03FC20FA01F2A8
:100F500025FA01F19D402A434FEA1C471FFA8CFEF7
:100F6000B1FBF7F007FB1015110C41EA054100FB3E
:100F70000EF58D4204FA03F408D91CEB010100F1CF
:100F8000FF382FD28D422DD902386144491B92B2CD
:100F9000B1FBF7F507FB151142EA014205FB0EF123
:100FA000914208D91CEB020205F1FF3816D291429A
:100FB00014D9023D6244521A45EA004138E73146ED
:100FC000304608E73946E6E61046FBE64845A9D232
:100FD000B9EB020865EB0C0E013BA3E74546EAE7D7
:100FE0002B4694E74046D1E7D0467BE7023D62447A
:100FF00032E708460AE76444023842E7704700BF18
:1010000080B584B000AF002000F0F6FA0346FB6024
:10101000012000F0F1FA0346BB60022000F0ECFA78
:1010200003467B60032000F0E7FA03463B60FB6861
:10103000AD2B11D1BB681D2B0ED17B68ED2B0BD1D5
:101040003B68012B08D1084800F050F801225221DA
:101050002F2000F00DFB03E0044800F047F800BF2C
:1010600000BF1037BD4680BD58D6000874D60008B2
:1010700080B582B000AF2D2000F0BEFA0346FB71B0
:10108000FB7923F00103FB71FB79012219462D2026
:1010900000F0EEFA034800F029F800BF0837BD461B
:1010A00080BD00BF8CD6000880B485B000AF7860EA
:1010B0000023FB607B681B097B607B68C3F3130321
:1010C0007B607B6803F40023002B06D07B686FEA0B
:1010D00003336FEA1333FB6001E07B68FB60FB685E
:1010E00018461437BD465DF8047B70470FB480B5D1
:1010F00082B000AF07F114033B603B683A694FF4DC
:1011000080710B4808F05CFD0948FFF7B9F8034609
:101110007B607B689AB24FF0FF330549054803F0C6
:10112000E2FE00BF0837BD46BDE8804004B070470E
:10113000B00B00205403002080B500AF00F0BEFECD
:1011400000F050F800F062F900F038F900F00CF906
:1011500000F0B0F800F0E4F804F06EFA154A00214F
:10116000012004F045FB0346134A1360134A002193
:10117000012004F03DFB0346114A1360114A00218F
:10118000012004F035FB03460F4A13600F4A00218B
:101190000F4804F09BFA03460E4A13600E4A0021E2
:1011A0000E4804F093FA03460D4A136004F068FAFF
:1011B000FEE700BF18D80008A003002028D80008C8
:1011C000A403002038D80008A8030020D0D70008C6
:1011D0001118000898030020F4D70008FD18000833
:1011E0009C03002080B594B000AF07F120033022AB
:1011F0000021184608F088FD07F10C0300221A6050
:101200005A609A60DA601A610023BB60274B1B6C3E
:10121000264A43F080531364244B1B6C03F0805325
:10122000BB60BB6800237B60214B1B68204A43F4F2
:10123000404313601E4B1B6803F440437B607B6894
:1012400001233B624FF4A0237B620223BB634FF474
:101250008003FB6304233B643C237B640223BB6465
:101260000423FB6407F12003184601F01DFD03462B
:10127000002B01D000F068FB0F23FB6002233B61D1
:1012800080237B610023BB610023FB6107F10C031A
:101290000021184601F080FF0346002B01D000F02A
:1012A00053FB00BF5037BD4680BD00BF0038024031
:1012B0000070004080B500AF174B184A1A60164BFB
:1012C0004FF482725A60144B00229A60124B002233
:1012D000DA60114B00221A610F4B00225A610E4B4B
:1012E0004FF400729A610C4B3022DA610A4B0022F3
:1012F0001A62094B00225A62074B00229A62064B7F
:101300000A22DA62044802F067F90346002B01D092
:1013100000F01AFB00BF80BDF4010020003800403F
:1013200080B500AF0E4B0F4A1A600D4B00225A6079
:101330000B4B00229A600A4B4EF2E142DA60084BF6
:1013400000221A61064B80229A61054803F0D8FA00
:101350000346002B01D000F0F7FA00BF80BD00BFAC
:101360000C0300200044014080B500AF114B124A2D
:101370001A60104B4FF4E1325A600E4B00229A6013
:101380000C4B0022DA600B4B00221A61094B0C2235
:101390005A61084B00229A61064B0022DA61054827
:1013A00003F054FD0346002B01D000F0CDFA00BF3E
:1013B00080BD00BF540300200044004080B582B0CF
:1013C00000AF00237B60104B1B6B0F4A43F40013EC
:1013D00013630D4B1B6B03F400137B607B680022CF
:1013E00005210E2000F0DBFE0E2000F0F4FE0022AE
:1013F00005210F2000F0D3FE0F2000F0ECFE00BF0F
:101400000837BD4680BD00BF0038024080B58AB0B5
:1014100000AF07F1140300221A605A609A60DA6084
:101420001A6100233B613B4B1B6B3A4A43F00403B8
:101430001363384B1B6B03F004033B613B690023D0
:10144000FB60344B1B6B334A43F080031363314B17
:101450001B6B03F08003FB60FB680023BB602D4B1C
:101460001B6B2C4A43F0010313632A4B1B6B03F0E5
:101470000103BB60BB6800237B60264B1B6B254AC6
:1014800043F002031363234B1B6B03F002037B60E7
:101490007B6800220121204801F0BAFB00222021B4
:1014A0001E4801F0B5FB4FF400537B614FF4041369
:1014B000BB610023FB6107F114031946164801F0D4
:1014C00023FA01237B610123BB610023FB6100231D
:1014D0003B6207F1140319460F4801F015FA202367
:1014E0007B610123BB610023FB6100233B6207F1A9
:1014F00014031946094801F007FA002205212820A3
:1015000000F04DFE282000F066FE00BF2837BD46E3
:1015100080BD00BF003802400008024000000240C9
:1015200080B582B000AF7860044B1B68184604F0A9
:101530003BFA00BF0837BD4680BD00BFA0030020B6
:1015400080B582B000AF7860044B1B68184604F089
:101550002BFA00BF0837BD4680BD00BFA0030020A6
:1015600080B584B000AF0346FB71FB795B005BB2D2
:1015700043F001035BB2DBB27B73002201211A4806
:1015800001F046FB07F10D0301221946174802F04E
:101590009BFC0346FB73164B1B684FF0FF3118464C
:1015A00004F0B0F907F10E03012219460F4802F0CA
:1015B00041FD0346FB730E4B1B684FF0FF3118468D
:1015C00004F0A0F901220121074801F021FBFB7B77
:1015D000002B01D1BB7B03E0064808F05BFAFF2338
:1015E00018461037BD4680BD00080240F4010020B7
:1015F000A003002034D7000880B584B000AF0346B4
:10160000FB71FB795B005BB243F001035BB2DBB2C1
:101610007B7300220121134801F0FAFA07F10D0152
:1016200064230122104802F060F80346FB7307F1BF
:101630000E01642301220C4802F093F90346FB7368
:1016400001220121074801F0E3FAFB7B002B01D1C5
:10165000BB7B03E0054808F01DFAFF23184610374E
:10166000BD4680BD00080240F401002034D70008C8
:1016700080B584B000AF0346FB710B46BB711346C7
:101680007B71FB795B00DBB2BB7300220121114847
:1016900001F0BEFA07F10E01642301220E4802F0A8
:1016A00024F80346FB73B91D642301220A4802F0A3
:1016B0001CF80346FB7301220121064801F0A8FA39
:1016C000FB7B002B02D0054808F0E4F900BF10377F
:1016D000BD4680BD00080240F40100205CD7000830
:1016E00080B586B000AF0346FB7100237B61002309
:1016F0003B610023FB600023BB60FB79022B20D001
:10170000022B2BDC002B02D0012B0DD026E0082071
:10171000FFF726FF78610920FFF722FF38610A20D2
:10172000FFF71EFFF86019E00B20FFF719FF786143
:101730000C20FFF715FF38610D20FFF711FFF8604F
:101740000CE00E20FFF70CFF78610F20FFF708FF79
:1017500038611020FFF704FFF86000BF7B691B04AD
:1017600003F47F023B691B029BB21A43FB68DBB2A6
:1017700013431846FFF798FCB860BB681846183743
:10178000BD4680BD80B582B000AF0346FB80FB88BC
:10179000B3F5005F0BD1282000F02BFD064B002293
:1017A0001A60064803F0FCF80548FFF79FFC00BFED
:1017B0000837BD4680BD00BFAC0300200C030020ED
:1017C00084D7000880B582B000AF78600B4B1B68EF
:1017D000B3F5007F05D20A4B1B68184604F0E4F805
:1017E00007E0084803F03EF9074B1B68184604F071
:1017F000DBF800BF0837BD4680BD00BFAC0300204A
:10180000A80300200C030020A40300200000000017
:1018100080B52DED028B84B000AF78604FF47A7004
:1018200005F0B4FB2E48FFF761FCFFF7E9FB6420ED
:1018300005F0ACFBFFF71CFC2A4B1B684FF0FF3197
:10184000184604F05FF80023FB6033E0264AFB688B
:1018500052F823301846FEF76DFE1FA3D3E900238C
:10186000FEF7FCFF02460B4610461946FFF7C4F987
:101870000346BB60D7ED027ABDEEE78AD7ED027A68
:10188000F0EEE77AF7EE000AB0EE670A0BF036FEEC
:10189000F0EE407A9FED157A67EE877AFDEEE77AF3
:1018A00017EE902A18EE101A1148FFF71FFCFB687C
:1018B0000133FB60FB68B3F5007FC7DB0D48FFF722
:1018C00015FC0D4B4FF400525A61282000F083FCA8
:1018D000B2E700BFAFF300809A9999999999D940DE
:1018E00090D70008A4030020B003002000007A4431
:1018F000A4D70008ACD70008003C014090B583B0E5
:1019000000AF78600C4B1B684FF0FF31184603F0B6
:10191000F9FF2021094801F094F9094B1C680220C5
:10192000FFF7DEFE0346074A42F82430044B1B68EB
:101930000133034A1360E5E7A803002000000240DA
:10194000AC030020B003002080B400AF72B600BF2B
:10195000FEE7000080B582B000AF00237B60124B31
:101960005B6C114A43F4804353640F4B5B6C03F48C
:1019700080437B607B6800233B600B4B1B6C0A4AF7
:1019800043F080531364084B1B6C03F080533B609F
:101990003B6800220F216FF0010000F000FC00BF47
:1019A0000837BD4680BD00BF0038024080B58AB010
:1019B00000AF786007F1140300221A605A609A6041
:1019C000DA601A617B681B68564A934240F0A58032
:1019D00000233B61544B1B6C534A43F48043136414
:1019E000514B1B6C03F480433B613B690023FB605C
:1019F0004D4B1B6B4C4A43F0040313634A4B1B6B68
:101A000003F00403FB60FB680023BB60464B1B6BC9
:101A1000454A43F002031363434B1B6B03F002037D
:101A2000BB60BB680C237B610223BB610023FB61AD
:101A300003233B6205237B6207F1140319463B48ED
:101A400000F062FF4FF480637B610223BB610023DF
:101A5000FB6103233B6205237B6207F114031946F4
:101A6000334800F051FF334B334A1A60314B0022A8
:101A70005A60304B00229A602E4B0022DA602D4BC8
:101A80004FF480621A612B4B00225A61294B0022CD
:101A90009A61284B0022DA61264B00221A62254BFC
:101AA00000225A62234800F0BFFB0346002B01D0FE
:101AB000FFF74AFF7B681F4ADA641E4A7B6893631C
:101AC0001E4B1F4A1A601D4B00225A601B4B4022BE
:101AD0009A601A4B0022DA60184B4FF480621A6148
:101AE000164B00225A61154B00229A61134B0022BB
:101AF000DA61124B00221A62104B00225A620F4820
:101B000000F092FB0346002B01D0FFF71DFF7B681E
:101B10000A4A9A64094A7B68936300BF2837BD4626
:101B200080BD00BF0038004000380240000802407D
:101B3000000402404C02002058600240AC02002029
:101B40007060024080B584B000AF78607B681B682D
:101B50000E4A934215D10023FB600D4B5B6C0C4A7F
:101B600043F4003353640A4B5B6C03F40033FB60B3
:101B7000FB6800220521192000F011FB192000F05C
:101B80002AFB00BF1037BD4680BD00BF00440140A6
:101B90000038024080B58AB000AF786007F11403C6
:101BA00000221A605A609A60DA601A617B681B68CA
:101BB000194A93422BD100233B61184B1B6C174AE7
:101BC00043F400331364154B1B6C03F400333B6187
:101BD0003B690023FB60114B1B6B104A43F0010370
:101BE00013630E4B1B6B03F00103FB60FB680C23BC
:101BF0007B610223BB610023FB6103233B6207235C
:101C00007B6207F114031946054800F07DFE00BF12
:101C10002837BD4680BD00BF004400400038024068
:101C20000000024080B400AFFEE780B400AFFEE7E2
:101C300080B400AFFEE780B400AFFEE780B400AF31
:101C4000FEE780B400AF00BFBD465DF8047B70477F
:101C500080B500AF00F084F905F028FE0346012BA3
:101C600001D006F011FD00BF80BD000080B500AFBF
:101C7000024800F0DFFB00BF80BD00BF4C02002027
:101C800080B500AF024800F0D5FB00BF80BD00BFAB
:101C9000AC02002080B500AF024802F012FF00BF86
:101CA00080BD00BF0C03002080B500AF4FF4005092
:101CB00000F0E2FF00BF80BD80B400AF01231846F2
:101CC000BD465DF8047B704780B582B000AF786098
:101CD000396008F0C1F8034616221A604FF0FF334E
:101CE00018460837BD4680BD80B582B000AF786029
:101CF0004FF0FF317868FFF7E7FFFEE780B586B069
:101D000000AFF860B9607A6000237B610AE0AFF34E
:101D100000800146BB685A1CBA60CAB21A707B695F
:101D200001337B617A697B689A42F0DB7B681846F5
:101D30001837BD4680BD80B586B000AFF860B96089
:101D40007A6000237B6109E0BB685A1CBA601B788B
:101D50001846AFF300807B6901337B617A697B6849
:101D60009A42F1DB7B6818461837BD4680BD80B4C7
:101D700083B000AF78604FF0FF3318460C37BD4694
:101D80005DF8047B704780B483B000AF7860396041
:101D90003B684FF400525A60002318460C37BD468A
:101DA0005DF8047B704780B483B000AF7860012396
:101DB00018460C37BD465DF8047B704780B485B08B
:101DC00000AFF860B9607A60002318461437BD464A
:101DD0005DF8047B7047000080B586B000AF786086
:101DE000144A154BD31A7B617B693B61134B1B680B
:101DF000002B02D1114B124A1A60104B1A687B68F3
:101E000013443A699A4207D208F026F803460C2296
:101E10001A604FF0FF3309E0084B1B68FB60074B6B
:101E20001A687B681344054A1360FB681846183724
:101E3000BD4680BD0000022000040000B00C002060
:101E4000F057002080B400AF064BD3F88830054A25
:101E500043F47003C2F8883000BFBD465DF8047BD0
:101E6000704700BF00ED00E0DFF834D00D480E49A8
:101E70000E4A002302E0D458C4500433C4188C42E4
:101E8000F9D30B4A0B4C002301E013600432A24249
:101E9000FBD3FFF7D7FF07F0E5FFFFF74DF97047DA
:101EA0000000022000000020D8010020A8DC00086B
:101EB000D8010020EC570020FEE7000080B500AFFD
:101EC0000E4B1B680D4A43F4007313600B4B1B68E9
:101ED0000A4A43F480631360084B1B68074A43F4C3
:101EE00080731360032000F04FF90F2000F008F812
:101EF000FFF730FD0023184680BD00BF003C0240C4
:101F000080B582B000AF7860124B1A68124B1B7814
:101F100019464FF47A73B3FBF1F3B2FBF3F31846AF
:101F200000F075F90346002B01D001230EE07B6819
:101F30000F2B0AD8002279684FF0FF3000F02FF9FC
:101F4000064A7B681360002300E001231846083727
:101F5000BD4680BD000000200800002004000020D5
:101F600080B400AF064B1B781A46064B1B6813441F
:101F7000044A136000BFBD465DF8047B704700BF94
:101F800008000020B40C002080B400AF034B1B6895
:101F90001846BD465DF8047B704700BFB40C0020B6
:101FA00080B485B000AF78607B6803F00703FB6006
:101FB0000C4BDB68BB60BA684FF6FF031340BB6095
:101FC000FB681A02BB68134343F0BF6343F400335A
:101FD000BB60044ABB68D36000BF1437BD465DF8E0
:101FE000047B704700ED00E080B400AF044BDB6879
:101FF0001B0A03F007031846BD465DF8047B7047D3
:1020000000ED00E080B483B000AF0346FB7197F9A8
:102010000730002B0BDBFB7903F01F02074997F910
:1020200007305B09012000FA02F241F8232000BFCB
:102030000C37BD465DF8047B704700BF00E100E04F
:1020400080B483B000AF0346FB7197F90730002BD3
:1020500012DBFB7903F01F020A4997F907305B098D
:10206000012000FA02F2203341F82320BFF34F8F02
:1020700000BFBFF36F8F00BF00BF0C37BD465DF8D8
:10208000047B704700E100E080B483B000AF0346FA
:102090003960FB7197F90730002B0ADB3B68DAB235
:1020A0000C4997F907301201D2B20B4483F8002390
:1020B0000AE03B68DAB20849FB7903F00F03043BFE
:1020C0001201D2B20B441A7600BF0C37BD465DF840
:1020D000047B704700E100E000ED00E080B489B0CF
:1020E00000AFF860B9607A60FB6803F00703FB613A
:1020F000FB69C3F10703042B28BF0423BB61FB6901
:102100000433062B02D9FB69033B00E000237B610B
:102110004FF0FF32BB6902FA03F3DA43BB681A409F
:102120007B699A404FF0FF317B6901FA03F3D94391
:102130007B680B40134318462437BD465DF8047B8B
:102140007047000080B582B000AF78607B68013BCB
:10215000B3F1807F01D301230FE00A4A7B68013B82
:1021600053600F214FF0FF30FFF78EFF054B002229
:102170009A60044B07221A60002318460837BD46B0
:1021800080BD00BF10E000E080B582B000AF786095
:102190007868FFF705FF00BF0837BD4680BD80B5F2
:1021A00086B000AF0346B9607A60FB7300237B61A1
:1021B000FFF71AFF78617A68B9687869FFF78EFFD0
:1021C000024697F90F3011461846FFF75DFF00BF32
:1021D0001837BD4680BD80B582B000AF0346FB71A5
:1021E00097F907301846FFF70DFF00BF0837BD46C7
:1021F00080BD80B582B000AF0346FB7197F9073010
:102200001846FFF71DFF00BF0837BD4680BD80B5EB
:1022100082B000AF78607868FFF794FF03461846F5
:102220000837BD4680BD000080B586B000AF78603D
:1022300000237B61FFF7A8FE38617B68002B01D18A
:10224000012399E07B68022283F835207B68002215
:1022500083F834207B681B681A687B681B6822F04F
:1022600001021A600FE0FFF78FFE02463B69D31AA6
:10227000052B08D97B6820225A657B68032283F8E6
:102280003520032378E07B681B681B6803F001039B
:10229000002BE8D17B681B681B687B617A69384B2F
:1022A00013407B617B685A687B689B681A437B6834
:1022B000DB681A437B681B691A437B685B691A43B6
:1022C0007B689B691A437B68DB691A437B681B6ADE
:1022D00013437A6913437B617B685B6A042B07D1E4
:1022E0007B68DA6A7B681B6B13437A6913437B61F3
:1022F0007B681B687A691A607B681B685B697B6115
:102300007B6923F007037B617B685B6A7A6913430F
:102310007B617B685B6A042B17D17B689B6A7A6957
:1023200013437B617B68DB6A002B0ED0786800F07A
:102330006FFA0346002B08D07B6840225A657B6801
:10234000012283F83520012316E07B681B687A6937
:102350005A61786800F026FA0346FB607B68DB6D03
:102360003F229A40FB689A607B6800225A657B682E
:10237000012283F83520002318461837BD4680BD5A
:102380003F8010F080B586B000AFF860B9607A6029
:102390003B600023FB75FB689B6D3B61FB6893F81A
:1023A0003430012B01D1022340E0FB68012283F885
:1023B0003420FB6893F83530DBB2012B2FD1FB685A
:1023C000022283F83520FB6800225A653B687A6850
:1023D000B968F86800F0B8F9FB68DB6D3F229A40F5
:1023E0003B699A60FB681B681A68FB681B6842F0CF
:1023F00016021A60FB681B6C002B07D0FB681B6879
:102400001A68FB681B6842F008021A60FB681B68C8
:102410001A68FB681B6842F001021A6005E0FB685D
:10242000002283F834200223FB75FB7D1846183701
:10243000BD4680BD80B586B000AF78600023BB602C
:102440008E4B1B688E4AA2FB03239B0A7B617B6831
:102450009B6D3B613B691B68FB607B68DB6D082201
:102460009A40FB681340002B1AD07B681B681B68DE
:1024700003F00403002B13D07B681B681A687B6889
:102480001B6822F004021A607B68DB6D08229A4008
:102490003B699A607B685B6D43F001027B685A651B
:1024A0007B68DB6D01229A40FB681340002B12D041
:1024B0007B681B685B6903F08003002B0BD07B6893
:1024C000DB6D01229A403B699A607B685B6D43F04B
:1024D00002027B685A657B68DB6D04229A40FB68C8
:1024E0001340002B12D07B681B681B6803F00203AB
:1024F000002B0BD07B68DB6D04229A403B699A600D
:102500007B685B6D43F004027B685A657B68DB6D1A
:1025100010229A40FB681340002B43D07B681B6855
:102520001B6803F00803002B3CD07B68DB6D102296
:102530009A403B699A607B681B681B6803F48023A0
:10254000002B18D07B681B681B6803F40023002B4A
:1025500008D17B681B6C002B24D07B681B6C7868CF
:1025600098471FE07B689B6C002B1BD07B689B6CA3
:102570007868984716E07B681B681B6803F48073D3
:10258000002B07D17B681B681A687B681B6822F0E8
:1025900008021A607B681B6C002B03D07B681B6CE5
:1025A000786898477B68DB6D20229A40FB6813406F
:1025B000002B00F08F807B681B681B6803F0100302
:1025C000002B00F087807B68DB6D20229A403B69FE
:1025D0009A607B6893F83530DBB2052B36D17B6887
:1025E0001B681A687B681B6822F016021A607B68F9
:1025F0001B685A697B681B6822F080025A617B68FD
:102600001B6C002B03D17B689B6C002B07D07B6875
:102610001B681A687B681B6822F008021A607B68D6
:10262000DB6D3F229A403B699A607B68012283F808
:1026300035207B68002283F834207B681B6D002BDB
:102640007ED07B681B6D7868984779E07B681B6853
:102650001B6803F48023002B1DD07B681B681B685C
:1026600003F40023002B0DD17B685B6C002B31D071
:102670007B685B6C786898472CE000BF0000002006
:10268000B5814E1B7B68DB6B002B23D07B68DB6B3B
:10269000786898471EE07B681B681B6803F48073AA
:1026A000002B0FD17B681B681A687B681B6822F0BF
:1026B00010021A607B68012283F835207B680022B3
:1026C00083F834207B68DB6B002B03D07B68DB6BEB
:1026D000786898477B685B6D002B32D07B685B6DB8
:1026E00003F00103002B22D07B68052283F83520FC
:1026F0007B681B681A687B681B6822F001021A60FD
:10270000BB680133BB607A699A4207D37B681B6858
:102710001B6803F00103002BF2D100E000BF7B68CF
:10272000012283F835207B68002283F834207B68FF
:10273000DB6C002B05D07B68DB6C7868984700E089
:1027400000BF1837BD4680BD80B485B000AFF860CB
:10275000B9607A603B60FB681B681A68FB681B689D
:1027600022F480221A60FB681B683A685A60FB6892
:102770009B68402B08D1FB681B687A689A60FB68ED
:102780001B68BA68DA6007E0FB681B68BA689A6081
:10279000FB681B687A68DA6000BF1437BD465DF8D5
:1027A000047B704780B485B000AF78607B681B689D
:1027B000DBB2103B144AA2FB03231B09FB60134A44
:1027C000FB6813441B781A467B68DA65FB68032BA9
:1027D00009D97B681B6823F47F7323F003031A1D58
:1027E0007B689A6507E07B681B6823F47F7323F09E
:1027F00003037A6893657B689B6D18461437BD4662
:102800005DF8047B704700BFABAAAAAA60D8000895
:1028100080B485B000AF78600023FB737B689B6A4F
:10282000BB607B689B69002B1FD1BB68032B56D80C
:1028300001A252F823F000BF492800085B280008D5
:1028400049280008DF2800087B68DB6A03F08073F2
:10285000002B46D00123FB7343E07B68DB6AB3F1B6
:10286000C07F40D10123FB733DE07B689B69B3F5DA
:10287000005F21D1BB68032B37D801A252F823F0A7
:10288000912800089728000891280008A928000826
:102890000123FB7330E07B68DB6A03F08073002B5D
:1028A00025D00123FB7322E07B68DB6AB3F1C07F94
:1028B0001FD10123FB731CE0BB68022B03D9BB684B
:1028C000032B03D018E00123FB7315E07B68DB6A60
:1028D00003F08073002B0ED00123FB730BE000BFCD
:1028E0000AE000BF08E000BF06E000BF04E000BF50
:1028F00002E000BF00E000BFFB7B18461437BD4676
:102900005DF8047B704700BF80B489B000AF786089
:10291000396000237B6100233B610023BB610023FE
:10292000FB6159E10122FB6902FA03F37B613B6819
:102930001B687A6913403B613A697B699A4240F0AF
:1029400048813B685B6803F00303012B05D03B68BB
:102950005B6803F00303022B30D17B689B68BB618B
:10296000FB695B00032202FA03F3DB43BA691340FD
:10297000BB613B68DA68FB695B0002FA03F3BA6982
:102980001343BB617B68BA699A607B685B68BB6113
:102990000122FB6902FA03F3DB43BA691340BB610E
:1029A0003B685B681B0903F00102FB6902FA03F351
:1029B000BA691343BB617B68BA695A603B685B685C
:1029C00003F00303032B17D07B68DB68BB61FB6953
:1029D0005B00032202FA03F3DB43BA691340BB61D5
:1029E0003B689A68FB695B0002FA03F3BA69134318
:1029F000BB617B68BA69DA603B685B6803F003031C
:102A0000022B23D1FB69DA087B68083253F82230A5
:102A1000BB61FB6903F007039B000F2202FA03F37B
:102A2000DB43BA691340BB613B681A69FB6903F079
:102A300007039B0002FA03F3BA691343BB61FB6906
:102A4000DA087B680832B96943F822107B681B6892
:102A5000BB61FB695B00032202FA03F3DB43BA6943
:102A60001340BB613B685B6803F00302FB695B00DA
:102A700002FA03F3BA691343BB617B68BA691A604F
:102A80003B685B6803F44033002B00F0A280002316
:102A9000FB60574B5B6C564A43F480435364544B82
:102AA0005B6C03F48043FB60FB68524AFB699B0844
:102AB000023352F82330BB61FB6903F003039B0030
:102AC0000F2202FA03F3DB43BA691340BB617B6850
:102AD000494A934219D07B68484A934213D07B6895
:102AE000474A93420DD07B68464A934207D07B68A1
:102AF000454A934201D1042308E0072306E003235B
:102B000004E0022302E0012300E00023FA6902F05E
:102B1000030292009340BA691343BB613549FB69D4
:102B20009B080233BA6941F82320384B9B68BB618C
:102B30003B69DB43BA691340BB613B685B6803F4E4
:102B40008013002B03D0BA693B691343BB612F4A42
:102B5000BB6993602D4BDB68BB613B69DB43BA69A2
:102B60001340BB613B685B6803F40013002B03D088
:102B7000BA693B691343BB61244ABB69D360234BE9
:102B80005B68BB613B69DB43BA691340BB613B686F
:102B90005B6803F40033002B03D0BA693B6913432D
:102BA000BB611A4ABB695360184B1B68BB613B6928
:102BB000DB43BA691340BB613B685B6803F4803355
:102BC000002B03D0BA693B691343BB610F4ABB6951
:102BD0001360FB690133FB61FB690F2B7FF6A2AE2B
:102BE00000BF00BF2437BD465DF8047B704700BFBF
:102BF000003802400038014000000240000402405A
:102C000000080240000C024000100240003C01405D
:102C100080B483B000AF78600B467B8013467B7036
:102C20007B78002B03D07A887B689A6103E07B88ED
:102C30001A047B689A6100BF0C37BD465DF8047BBF
:102C4000704780B485B000AF78600B467B807B68AE
:102C50005B69FB607A88FB6813401A04FB68D94300
:102C60007B880B401A437B689A6100BF1437BD46CE
:102C70005DF8047B7047000080B582B000AF03466A
:102C8000FB80084B5A69FB881340002B06D0054A8D
:102C9000FB885361FB881846FEF774FD00BF0837B8
:102CA000BD4680BD003C014080B586B000AF786075
:102CB0007B68002B01D1012367E27B681B6803F06E
:102CC0000103002B75D0884B9B6803F00C03042B89
:102CD0000CD0854B9B6803F00C03082B12D1824B60
:102CE0005B6803F48003B3F5800F0BD17E4B1B6848
:102CF00003F40033002B5BD07B685B68002B57D15B
:102D0000012342E27B685B68B3F5803F06D1764BD6
:102D10001B68754A43F4803313601DE07B685B6871
:102D2000B3F5A02F0CD1704B1B686F4A43F480237E
:102D300013606D4B1B686C4A43F4803313600BE0E7
:102D4000694B1B68684A23F480331360664B1B6829
:102D5000654A23F4802313607B685B68002B13D0E3
:102D6000FFF712F9386108E0FFF70EF902463B69F8
:102D7000D31A642B01D9032307E25B4B1B6803F4CE
:102D80000033002BF0D014E0FFF7FEF8386108E0C4
:102D9000FFF7FAF802463B69D31A642B01D90323E3
:102DA000F3E1514B1B6803F40033002BF0D100E03A
:102DB00000BF7B681B6803F00203002B63D04A4B03
:102DC0009B6803F00C03002B0BD0474B9B6803F070
:102DD0000C03082B1CD1444B5B6803F48003002BCD
:102DE00016D1414B1B6803F00203002B05D07B6812
:102DF000DB68012B01D00123C7E13B4B1B6823F0AB
:102E0000F8027B681B69DB00374913430B603AE02B
:102E10007B68DB68002B20D0344B01221A60FFF75F
:102E2000B3F8386108E0FFF7AFF802463B69D31A00
:102E3000022B01D90323A8E12B4B1B6803F00203EB
:102E4000002BF0D0284B1B6823F0F8027B681B692D
:102E5000DB00254913430B6015E0244B00221A6068
:102E6000FFF792F8386108E0FFF78EF802463B69F9
:102E7000D31A022B01D9032387E11B4B1B6803F0F4
:102E80000203002BF0D17B681B6803F00803002BC2
:102E900036D07B685B69002B16D0154B01221A6077
:102EA000FFF772F8386108E0FFF76EF802463B69F9
:102EB000D31A022B01D9032367E10B4B5B6F03F09D
:102EC0000203002BF0D01BE0094B00221A60FFF731
:102ED0005BF838610EE0FFF757F802463B69D31AFA
:102EE000022B07D9032350E100380240000047427B
:102EF000800E4742884B5B6F03F00203002BEAD140
:102F00007B681B6803F00403002B00F0978000230C
:102F1000FB75814B1B6C03F08053002B0FD10023FA
:102F2000BB607D4B1B6C7C4A43F0805313647A4B2F
:102F30001B6C03F08053BB60BB680123FB75774BB0
:102F40001B6803F48073002B18D1744B1B68734A01
:102F500043F480731360FFF717F8386108E0FFF758
:102F600013F802463B69D31A022B01D903230CE163
:102F70006A4B1B6803F48073002BF0D07B689B685E
:102F8000012B06D1644B1B6F634A43F001031367A7
:102F90001CE07B689B68052B0CD15F4B1B6F5E4A66
:102FA00043F0040313675C4B1B6F5B4A43F0010360
:102FB00013670BE0584B1B6F574A23F0010313674D
:102FC000554B1B6F544A23F0040313677B689B68BF
:102FD000002B15D0FEF7D8FF38610AE0FEF7D4FFCA
:102FE00002463B69D31A41F28832934201D9032346
:102FF000CBE0494B1B6F03F00203002BEED014E033
:10300000FEF7C2FF38610AE0FEF7BEFF02463B69E9
:10301000D31A41F28832934201D90323B5E03E4BE3
:103020001B6F03F00203002BEED1FB7D012B05D1BA
:10303000394B1B6C384A23F0805313647B689B69BF
:10304000002B00F0A180344B9B6803F00C03082B8D
:103050005CD07B689B69022B41D1314B00221A6006
:10306000FEF792FF386108E0FEF78EFF02463B69EB
:10307000D31A022B01D9032387E0274B1B6803F0E7
:103080000073002BF0D17B68DA697B681B6A1A43F6
:103090007B685B6A9B011A437B689B6A5B08013B08
:1030A0001B041A437B68DB6A1B061B4913434B60F6
:1030B0001B4B01221A60FEF767FF386108E0FEF73C
:1030C00063FF02463B69D31A022B01D903235CE05C
:1030D000114B1B6803F00073002BF0D054E0104B31
:1030E00000221A60FEF750FF386108E0FEF74CFF3F
:1030F00002463B69D31A022B01D9032345E0064B54
:103100001B6803F00073002BF0D13DE07B689B69E6
:10311000012B07D1012338E0003802400070004045
:10312000600047421B4B5B68FB607B689B69012B1F
:1031300028D0FB6803F480027B68DB699A4221D1C6
:10314000FB6803F03F027B681B6A9A421AD1FA6857
:1031500047F6C07313407A68526A9201934211D1C4
:10316000FB6803F440327B689B6A5B08013B1B04ED
:103170009A4207D1FB6803F070627B68DB6A1B062A
:103180009A4201D0012300E0002318461837BD46BB
:1031900080BD00BF0038024080B584B000AF7860C9
:1031A00039607B68002B01D10123CCE0684B1B68A0
:1031B00003F007033A689A420CD9654B3A68D2B2D9
:1031C0001A70634B1B6803F007033A689A4201D0F8
:1031D0000123B8E07B681B6803F00203002B20D0BA
:1031E0007B681B6803F00403002B05D0594B9B68D8
:1031F000584A43F4E05393607B681B6803F008036C
:10320000002B05D0534B9B68524A43F460439360B4
:10321000504B9B6823F0F0027B689B684D49134339
:103220008B607B681B6803F00103002B44D07B6834
:103230005B68012B07D1474B1B6803F40033002B5D
:1032400019D101237FE07B685B68022B03D07B6888
:103250005B68032B07D13F4B1B6803F00073002B07
:1032600009D101236FE03B4B1B6803F00203002BE5
:1032700001D1012367E0374B9B6823F003027B6891
:103280005B68344913438B60FEF77EFEF8600AE00A
:10329000FEF77AFE0246FB68D31A41F28832934267
:1032A00001D903234FE02B4B9B6803F00C027B6892
:1032B0005B689B009A42EBD1254B1B6803F0070328
:1032C0003A689A420CD2224B3A68D2B21A70204B1A
:1032D0001B6803F007033A689A4201D0012332E0E9
:1032E0007B681B6803F00403002B08D0194B9B6814
:1032F00023F4E0527B68DB68164913438B607B68DC
:103300001B6803F00803002B09D0124B9B6823F4C1
:1033100060427B681B69DB000E4913438B6000F041
:1033200021F802460B4B9B681B0903F00F030A4967
:10333000CB5C22FA03F3094A1360094B1B68184659
:10334000FEF7DEFD002318461037BD4680BD00BFE6
:10335000003C02400038024048D80008000000202D
:10336000040000202DE9B04F94B000AF00237B642F
:103370000023FB6400233B640023BB64794B9B6800
:1033800003F00C03082B0DD0082B00F2E180002B7A
:1033900002D0042B03D0DBE0734BBB64DBE0734B48
:1033A000BB64D8E06F4B5B6803F03F037B646D4BFD
:1033B0005B6803F48003002B63D06A4B5B689B0956
:1033C0000022BB63FA63BB6BC3F308033B630023B8
:1033D0007B63D7E90C4522462B464FF000004FF0A7
:1033E0000001590141EAD261500102460B462146D3
:1033F000511A3961294663EB01037B614FF00002EA
:103400004FF00003D7E904AB59468B01514643EA1C
:10341000916351468A015146B2EB0108594663EB6C
:1034200001094FF000024FF000034FEAC90343EADD
:1034300058734FEAC80290469946234618EB030397
:10344000BB602B4649EB0303FB604FF000024FF0DB
:103450000003D7E9024529464B02214643EAD153EE
:1034600021464A02104619467B6C0022BB62FA6272
:10347000D7E90A23FDF710FC02460B461346FB640E
:1034800058E0384B5B689B09002218461146C0F390
:1034900008033B6200237B62D7E9088942464B461A
:1034A0004FF000004FF00001590141EAD261500194
:1034B00002460B464146B2EB010A494663EB010B5B
:1034C0004FF000024FF000034FEA8B1343EA9A6378
:1034D0004FEA8A12B2EB0A0463EB0B054FF00002CD
:1034E0004FF00003EB0043EA5473E20014461D461C
:1034F0004346E3183B604B4645EB03037B604FF0CC
:1035000000024FF00003D7E9004529468B0221460F
:1035100043EA915321468A02104619467B6C0022E9
:10352000BB61FA61D7E90623FDF7B6FB02460B46FD
:103530001346FB640B4B5B681B0C03F00303013366
:103540005B003B64FA6C3B6CB2FBF3F3BB6402E0E0
:10355000054BBB6400BFBB6C18465037BD46BDE889
:10356000B08F00BF003802400024F40000127A003F
:1035700080B400AF034B1B681846BD465DF8047B62
:10358000704700BF0000002080B500AFFFF7F0FFDC
:103590000246054B9B689B0A03F007030349CB5C7B
:1035A00022FA03F3184680BD0038024058D80008BC
:1035B00080B500AFFFF7DCFF0246054B9B685B0B55
:1035C00003F007030349CB5C22FA03F3184680BDDE
:1035D0000038024058D8000880B582B000AF78604B
:1035E0007B68002B01D101237BE07B685B6A002BA9
:1035F00008D17B685B68B3F5827F09D07B680022C5
:10360000DA6105E07B6800221A617B6800225A615A
:103610007B6800229A627B6893F85130DBB2002B02
:1036200006D17B68002283F850207868FEF7BEF947
:103630007B68022283F851207B681B681A687B68CC
:103640001B6822F040021A607B685B6803F4827298
:103650007B689B6803F404431A437B68DB6803F4CC
:1036600000631A437B681B6903F002031A437B68FB
:103670005B6903F001031A437B689B6903F40073E1
:103680001A437B68DB6903F038031A437B681B6AC3
:1036900003F0800342EA03017B689B6A03F4005253
:1036A0007B681B680A431A607B689B691B0C03F0EC
:1036B00004017B685B6A03F010027B681B680A43A5
:1036C0005A607B681B68DA697B681B6822F40062B9
:1036D000DA617B6800225A657B68012283F85120F9
:1036E000002318460837BD4680BD80B588B000AFBE
:1036F000F860B9603B601346FB800023FB77FB68F2
:1037000093F85030012B01D1022326E1FB680122FE
:1037100083F85020FEF738FCB861FB88FB82FB6819
:1037200093F85130DBB2012B02D00223FB770BE17F
:10373000BB68002B02D0FB88002B02D10123FB7752
:1037400002E1FB68032283F85120FB6800225A65DE
:10375000FB68BA681A63FB68FA889A86FB68FA887D
:10376000DA86FB6800229A63FB6800229A87FB686E
:103770000022DA87FB6800225A64FB6800221A6480
:10378000FB689B68B3F5004F0FD1FB681B681A6894
:10379000FB681B6822F040021A60FB681B681A680D
:1037A000FB681B6842F480421A60FB681B681B6858
:1037B00003F04003402B07D0FB681B681A68FB68C6
:1037C0001B6842F040021A60FB68DB68B3F5006FCB
:1037D0004BD1FB685B68002B02D0FB8A012B3ED1EA
:1037E000FB681B6B1A88FB681B68DA60FB681B6B45
:1037F0009A1CFB681A63FB68DB8E9BB2013B9AB292
:10380000FB68DA862BE0FB681B689B6803F0020309
:10381000022B12D1FB681B6B1A88FB681B68DA60ED
:10382000FB681B6B9A1CFB681A63FB68DB8E9BB200
:10383000013B9AB2FB68DA8611E0FEF7A5FB02466F
:10384000BB69D31A3A689A4203D83B68B3F1FF3F89
:1038500002D13B68002B02D10323FB7774E0FB68A5
:10386000DB8E9BB2002BCED14CE0FB685B68002B5B
:1038700002D0FB8A012B40D1FB681A6BFB681B68E6
:103880000C3312781A70FB681B6B5A1CFB681A63A6
:10389000FB68DB8E9BB2013B9AB2FB68DA862CE0B8
:1038A000FB681B689B6803F00203022B13D1FB68C3
:1038B0001A6BFB681B680C3312781A70FB681B6B61
:1038C0005A1CFB681A63FB68DB8E9BB2013B9AB201
:1038D000FB68DA8611E0FEF757FB0246BB69D31A94
:1038E0003A689A4203D83B68B3F1FF3F02D13B6884
:1038F000002B02D10323FB7726E0FB68DB8E9BB213
:10390000002BCDD1BA693968F86800F0B7FF0346DB
:10391000002B02D0FB6820225A65FB689B68002BB5
:103920000AD100233B61FB681B68DB683B61FB68D5
:103930001B689B683B613B69FB685B6D002B02D099
:103940000123FB7700E000BFFB68012283F85120D0
:10395000FB68002283F85020FB7F18462037BD46C5
:1039600080BD80B588B002AFF860B9603B60134697
:10397000FB800023FB75FB685B68B3F5827F12D187
:10398000FB689B68002B0ED1FB68042283F8512052
:10399000FA883B6800931346BA68B968F86800F083
:1039A000F1F80346EAE0FB6893F85030012B01D1AF
:1039B0000223E3E0FB68012283F85020FEF7E4FADB
:1039C0003861FB6893F85130DBB2012B02D002233F
:1039D000FB75CAE0BB68002B02D0FB88002B02D12C
:1039E0000123FB75C1E0FB68042283F85120FB68CA
:1039F00000225A65FB68BA689A63FB68FA889A875E
:103A0000FB68FA88DA87FB6800221A63FB680022E9
:103A10009A86FB680022DA86FB6800221A64FB683B
:103A200000225A64FB689B68B3F5004F0FD1FB6816
:103A30001B681A68FB681B6822F040021A60FB686A
:103A40001B681A68FB681B6822F480421A60FB68D6
:103A50001B681B6803F04003402B07D0FB681B6802
:103A60001A68FB681B6842F040021A60FB68DB685A
:103A7000002B62D12EE0FB681B689B6803F00103FA
:103A8000012B15D1FB681B6803F10C02FB689B6BD3
:103A90001278D2B21A70FB689B6B5A1CFB689A634F
:103AA000FB68DB8F9BB2013B9AB2FB68DA8711E0BF
:103AB000FEF76AFA02463B69D31A3A689A4203D87B
:103AC0003B68B3F1FF3F02D13B68002B02D10323D7
:103AD000FB754AE0FB68DB8F9BB2002BCBD131E05A
:103AE000FB681B689B6803F00103012B13D1FB6883
:103AF0001B68DA68FB689B6B92B21A80FB689B6B51
:103B00009A1CFB689A63FB68DB8F9BB2013B9AB2FD
:103B1000FB68DA8711E0FEF737FA02463B69D31AF1
:103B20003A689A4203D83B68B3F1FF3F02D13B6841
:103B3000002B02D10323FB7517E0FB68DB8F9BB2E0
:103B4000002BCDD13A693968F86800F031FE0346A0
:103B5000002B02D0FB6820225A65FB685B6D002BAE
:103B600002D00123FB7500E000BFFB68012283F84F
:103B70005120FB68002283F85020FB7D184618373F
:103B8000BD4680BD80B58CB000AFF860B9607A608A
:103B90007B800123FB62002387F82B30FB6893F8BE
:103BA0005030012B01D102238AE1FB68012283F806
:103BB0005020FEF7E9F97862FB6893F8513087F8F6
:103BC0002330FB685B68FB617B887B8397F823303D
:103BD000012B0FD0FB69B3F5827F07D1FB689B688F
:103BE000002B03D197F82330042B03D0022387F84E
:103BF0002B305BE1BB68002B05D07B68002B02D02B
:103C00007B88002B03D1012387F82B304EE1FB6822
:103C100093F85130DBB2042B03D0FB68052283F804
:103C20005120FB6800225A65FB687A689A63FB683A
:103C30007A88DA87FB687A889A87FB68BA681A6399
:103C4000FB687A88DA86FB687A889A86FB680022A5
:103C50001A64FB6800225A64FB681B681B6803F047
:103C60004003402B07D0FB681B681A68FB681B6881
:103C700042F040021A60FB68DB68B3F5006F78D150
:103C8000FB685B68002B02D07B8B012B66D1FB6845
:103C90001B6B1A88FB681B68DA60FB681B6B9A1C3D
:103CA000FB681A63FB68DB8E9BB2013B9AB2FB6830
:103CB000DA8653E0FB681B689B6803F00203022B63
:103CC0001BD1FB68DB8E9BB2002B16D0FB6A012B4D
:103CD00013D1FB681B6B1A88FB681B68DA60FB68F2
:103CE0001B6B9A1CFB681A63FB68DB8E9BB2013B63
:103CF0009AB2FB68DA860023FB62FB681B689B684C
:103D000003F00103012B19D1FB68DB8F9BB2002B61
:103D100014D0FB681B68DA68FB689B6B92B21A8050
:103D2000FB689B6B9A1CFB689A63FB68DB8F9BB2FA
:103D3000013B9AB2FB68DA870123FB62FEF724F9A4
:103D400002467B6AD31ABA6B9A4207D8BB6BB3F1AF
:103D5000FF3F03D0032387F82B30A7E0FB68DB8EFF
:103D60009BB2002BA6D1FB68DB8F9BB2002BA1D1AD
:103D70007CE0FB685B68002B02D07B8B012B6BD156
:103D8000FB681A6BFB681B680C3312781A70FB68AF
:103D90001B6B5A1CFB681A63FB68DB8E9BB2013BF2
:103DA0009AB2FB68DA8657E0FB681B689B6803F0F1
:103DB0000203022B1CD1FB68DB8E9BB2002B17D0B9
:103DC000FB6A012B14D1FB681A6BFB681B680C3370
:103DD00012781A70FB681B6B5A1CFB681A63FB682D
:103DE000DB8E9BB2013B9AB2FB68DA860023FB6252
:103DF000FB681B689B6803F00103012B19D1FB686A
:103E0000DB8F9BB2002B14D0FB681B68DA68FB6861
:103E10009B6BD2B21A70FB689B6B5A1CFB689A634F
:103E2000FB68DB8F9BB2013B9AB2FB68DA87012308
:103E3000FB62FEF7A9F802467B6AD31ABA6B9A4274
:103E400003D8BB6BB3F1FF3F02D1BB6B002B03D197
:103E5000032387F82B3029E0FB68DB8E9BB2002B15
:103E6000A2D1FB68DB8F9BB2002B9DD17A6AB96B24
:103E7000F86800F003FD0346002B06D0012387F805
:103E80002B30FB6820225A6510E0FB689B68002BF2
:103E90000BD100237B61FB681B68DB687B61FB68DF
:103EA0001B689B687B617B6900E000BFFB680122A7
:103EB00083F85120FB68002283F8502097F82B30BC
:103EC00018463037BD4680BD80B586B000AFF8607B
:103ED000B9601346FB800023FB75FB6893F85030F4
:103EE000012B01D102239BE0FB68012283F85020C3
:103EF000FB6893F85130DBB2012B02D00223FB7533
:103F000089E0BB68002B02D0FB88002B02D1012383
:103F1000FB7580E0FB68032283F85120FB680022D8
:103F20005A65FB68BA681A63FB68FA889A86FB6868
:103F3000FA88DA86FB6800229A63FB6800225A64DA
:103F4000FB6800221A64FB6800229A87FB68002243
:103F5000DA87FB689B68B3F5004F0FD1FB681B68DD
:103F60001A68FB681B6822F040021A60FB681B6835
:103F70001A68FB681B6842F480421A60FB689B6CFD
:103F8000294A1A64FB689B6C284ADA63FB689B6CBD
:103F9000274ADA64FB689B6C00221A65FB68986C00
:103FA000FB681B6B1946FB681B680C331A46FB68E1
:103FB000DB8E9BB2FEF7E6F90346002B0CD0FB68C4
:103FC0005B6D43F01002FB685A650123FB75FB68CB
:103FD000012283F851201EE0FB681B681B6803F078
:103FE0004003402B07D0FB681B681A68FB681B68FE
:103FF00042F040021A60FB681B685A68FB681B6845
:1040000042F020025A60FB681B685A68FB681B6814
:1040100042F002025A60FB68002283F85020FB7DC8
:1040200018461837BD4680BD0D4600082D440008CF
:104030006146000880B586B000AFF860B9601346ED
:10404000FB800023FB75FB689B68002B10D1FB688D
:104050005B68B3F5827F0BD1FB68042283F85120A3
:10406000FB88BA68B968F86800F0ACF803469FE0CE
:10407000FB6893F85030012B01D1022398E0FB68D4
:10408000012283F85020FB6893F85130DBB2012BFA
:1040900002D00223FB7586E0BB68002B02D0FB88B0
:1040A000002B02D10123FB757DE0FB68042283F81D
:1040B0005120FB6800225A65FB68BA689A63FB6866
:1040C000FA889A87FB68FA88DA87FB6800221A6404
:1040D000FB6800225A64FB6800229A86FB68002273
:1040E000DA86FB689B68B3F5004F0FD1FB681B684D
:1040F0001A68FB681B6822F040021A60FB681B68A4
:104100001A68FB681B6822F480421A60FB68DB6C4B
:10411000294A1A64FB68DB6C284ADA63FB68DB6CAB
:10412000274ADA64FB68DB6C00221A65FB68D86CEE
:10413000FB681B680C331946FB689B6B1A46FB68CF
:10414000DB8F9BB2FEF71EF90346002B0CD0FB68F9
:104150005B6D43F01002FB685A650123FB75FB6839
:10416000012283F851201EE0FB681B681B6803F0E6
:104170004003402B07D0FB681B681A68FB681B686C
:1041800042F040021A60FB681B685A68FB681B68B3
:1041900042F020025A60FB681B685A68FB681B6883
:1041A00042F001025A60FB68002283F85020FB7D38
:1041B00018461837BD4680BD29460008D54400087A
:1041C0006146000880B586B000AFF860B9607A60DB
:1041D0007B800023FB75FB6893F85030012B01D1E5
:1041E0000223E3E0FB68012283F85020FB6893F888
:1041F0005130BB75FB685B683B61BB7D012B0DD00B
:104200003B69B3F5827F06D1FB689B68002B02D126
:10421000BB7D042B02D00223FB75C2E0BB68002BE0
:1042200005D07B68002B02D07B88002B02D10123B4
:10423000FB75B6E0FB6893F85130DBB2042B03D07A
:10424000FB68052283F85120FB6800225A65FB6851
:10425000BA681A63FB687A889A86FB687A88DA8675
:10426000FB687A689A63FB687A889A87FB687A8821
:10427000DA87FB6800221A64FB6800225A64FB6834
:1042800093F85130DBB2042B08D1FB68DB6C494A50
:104290001A64FB68DB6C484ADA6307E0FB68DB6C96
:1042A000464A1A64FB68DB6C454ADA63FB68DB6CE0
:1042B000444ADA64FB68DB6C00221A65FB68D86C40
:1042C000FB681B680C331946FB689B6B1A46FB683E
:1042D000DB8F9BB2FEF756F80346002B0CD0FB6831
:1042E0005B6D43F01002FB685A650123FB75FB68A8
:1042F000012283F8512054E0FB681B685A68FB6870
:104300001B6842F001025A60FB689B6C00221A6431
:10431000FB689B6C0022DA63FB689B6C0022DA640A
:10432000FB689B6C00221A65FB68986CFB681B6B32
:104330001946FB681B680C331A46FB68DB8E9BB280
:10434000FEF720F80346002B0CD0FB685B6D43F0B2
:104350001002FB685A650123FB75FB68012283F894
:1043600051201EE0FB681B681B6803F04003402BD4
:1043700007D0FB681B681A68FB681B6842F04002A4
:104380001A60FB681B685A68FB681B6842F02002D1
:104390005A60FB681B685A68FB681B6842F002029F
:1043A0005A60FB68002283F85020FB7D18461837BE
:1043B000BD4680BD29460008D54400084546000892
:1043C0007D4500086146000880B483B000AF786086
:1043D00000BF0C37BD465DF8047B704780B483B0E6
:1043E00000AF786000BF0C37BD465DF8047B7047B6
:1043F00080B483B000AF786000BF0C37BD465DF875
:10440000047B704780B483B000AF786000BF0C3786
:10441000BD465DF8047B704780B483B000AF786020
:1044200000BF0C37BD465DF8047B704780B586B091
:1044300000AF78607B689B6B7B61FDF7A5FD386101
:104440007B681B681B6803F48073B3F5807F3BD0E7
:104450007B691B685A687B691B6822F020025A60DE
:104460007B691B685A687B691B6822F002025A60EC
:104470003A696421786900F001FA0346002B05D0FF
:104480007B695B6D43F020027B695A657B699B68A1
:10449000002B0AD10023FB607B691B68DB68FB6093
:1044A0007B691B689B68FB60FB687B690022DA867E
:1044B0007B69012283F851207B695B6D002B03D05F
:1044C0007869FFF7A9FF02E07869FDF729F8183746
:1044D000BD4680BD80B584B000AF78607B689B6BC3
:1044E000FB60FDF751FDB8607B681B681B6803F437
:1044F0008073B3F5807F3BD0FB681B685A68FB680C
:104500001B6822F020025A60FB689B68002B0DD1CB
:10451000FB685B68B3F5827F08D1FB681B685A684B
:10452000FB681B6822F003025A6007E0FB681B6807
:104530005A68FB681B6822F001025A60BA6864215D
:10454000F86800F035F90346002B02D0FB68202202
:104550005A65FB680022DA87FB68012283F8512044
:10456000FB685B6D002B03D0F868FFF755FF02E096
:10457000F868FCF7E5FF1037BD4680BD80B584B014
:1045800000AF78607B689B6BFB60FDF7FDFCB8605B
:104590007B681B681B6803F48073B3F5807F2FD0A2
:1045A000FB681B685A68FB681B6822F020025A608F
:1045B000BA686421F86800F061F90346002B05D061
:1045C000FB685B6D43F02002FB685A65FB681B6863
:1045D0005A68FB681B6822F003025A60FB680022DD
:1045E000DA86FB680022DA87FB68012283F8512013
:1045F000FB685B6D002B03D0F868FFF70DFF02E04E
:10460000F868FFF7E1FE1037BD4680BD80B584B085
:1046100000AF78607B689B6BFB60F868FFF7DEFE9D
:1046200000BF1037BD4680BD80B584B000AF786054
:104630007B689B6BFB60F868FFF7DAFE00BF103702
:10464000BD4680BD80B584B000AF78607B689B6B51
:10465000FB60F868FFF7D6FE00BF1037BD4680BD8F
:1046600080B584B000AF78607B689B6BFB60FB68B3
:104670001B685A68FB681B6822F003025A60FB68DB
:104680005B6D43F01002FB685A65FB68012283F8FA
:104690005120F868FFF7C0FE00BF1037BD4680BD4F
:1046A00080B588B000AFF860B9603B601346FB711D
:1046B000FDF76AFC0246BB6A9B1A3A681344FB6129
:1046C000FDF762FCB861394B1B685B011B0DFA6991
:1046D00002FB03F37B6154E03B68B3F1FF3F50D032
:1046E000FDF752FC0246BB69D31AFA699A4202D915
:1046F000FB69002B3DD1FB681B685A68FB681B688F
:1047000022F0E0025A60FB685B68B3F5827F11D14A
:10471000FB689B68B3F5004F04D0FB689B68B3F55A
:10472000806F07D1FB681B681A68FB681B6822F062
:1047300040021A60FB689B6AB3F5005F0FD1FB680B
:104740001B681A68FB681B6822F400521A60FB6839
:104750001B681A68FB681B6842F400521A60FB6809
:10476000012283F85120FB68002283F850200323A4
:1047700017E07B69002B01D10023FB617B69013BC2
:104780007B61FB681B689A68BB681340BA689A42F1
:104790000CBF01230023DBB21A46FB799A429BD15E
:1047A000002318462037BD4680BD00BF0000002012
:1047B00080B586B002AFF860B9607A60FB685B686C
:1047C000B3F5827F11D1FB689B68B3F5004F04D02D
:1047D000FB689B68B3F5806F07D1FB681B681A689C
:1047E000FB681B6822F040021A60FB685B68B3F547
:1047F000827F2AD1FB689B68B3F5806F12D07B68FB
:104800000093BB6800228021F868FFF749FF034648
:10481000002B2DD0FB685B6D43F02002FB685A65CE
:10482000032326E07B680093BB6800220121F8681F
:10483000FFF736FF0346002B1AD0FB685B6D43F091
:104840002002FB685A65032313E07B680093BB6872
:1048500000220121F868FFF723FF0346002B07D051
:10486000FB685B6D43F02002FB685A65032300E0A0
:10487000002318461037BD4680BD000080B588B0C3
:1048800002AFF860B9607A601B4B1B681B4AA2FB41
:1048900003235B0D4FF47A7202FB03F37B61FB6829
:1048A0005B68B3F5827F12D17B680093BB680022FE
:1048B0008021F868FFF7F4FE0346002B16D0FB6852
:1048C0005B6D43F02002FB685A6503230FE07B69B0
:1048D000002B0AD07B69013B7B61FB681B689B68EE
:1048E00003F08003802BF2D000E000BF00231846C5
:1048F0001837BD4680BD00BF00000020819F5E16B6
:1049000080B582B000AF78607B68002B01D10123B5
:1049100041E07B6893F83D30DBB2002B06D17B6829
:10492000002283F83C207868FDF70CF97B680222AE
:1049300083F83D207B681A687B680433194610466B
:1049400000F0F0F97B68012283F846207B680122A1
:1049500083F83E207B68012283F83F207B68012298
:1049600083F840207B68012283F841207B68012284
:1049700083F842207B68012283F843207B68012270
:1049800083F844207B68012283F845207B6801225C
:1049900083F83D20002318460837BD4680BD00003F
:1049A00080B485B000AF78607B6893F83D30DBB2AF
:1049B000012B01D0012344E07B68022283F83D20D3
:1049C0007B681B68DA687B681B6842F00102DA606A
:1049D0007B681B681E4A934218D07B681B68B3F142
:1049E000804F13D07B681B681A4A93420ED07B68B5
:1049F0001B68194A934209D07B681B68174A934287
:104A000004D07B681B68164A934211D17B681B68EF
:104A10009B6803F00703FB60FB68062B10D07B68E4
:104A20001B681A687B681B6842F001021A6007E085
:104A30007B681B681A687B681B6842F001021A6079
:104A4000002318461437BD465DF8047B704700BF4D
:104A5000000001400004004000080040000C00403D
:104A60000040014080B483B000AF78607B681B6871
:104A7000DA687B681B6822F00102DA607B681B68D9
:104A80001A6A41F211131340002B0FD17B681B6887
:104A90001A6A40F244431340002B07D17B681B681D
:104AA0001A687B681B6822F001021A607B68012289
:104AB00083F83D20002318460C37BD465DF8047B83
:104AC000704780B582B000AF78607B681B681B6957
:104AD00003F00203022B22D17B681B68DB6803F022
:104AE0000203022B1BD17B681B686FF002021A6164
:104AF0007B6801221A777B681B689B6903F00303BC
:104B0000002B03D0786800F0EEF805E0786800F03C
:104B1000E0F8786800F0F1F87B6800221A777B688B
:104B20001B681B6903F00403042B22D17B681B68FC
:104B3000DB6803F00403042B1BD17B681B686FF058
:104B400004021A617B6802221A777B681B689B69E2
:104B500003F44073002B03D0786800F0C4F805E03C
:104B6000786800F0B6F8786800F0C7F87B68002233
:104B70001A777B681B681B6903F00803082B22D196
:104B80007B681B68DB6803F00803082B1BD17B687C
:104B90001B686FF008021A617B6804221A777B6831
:104BA0001B68DB6903F00303002B03D0786800F077
:104BB0009AF805E0786800F08CF8786800F09DF8C5
:104BC0007B6800221A777B681B681B6903F010035F
:104BD000102B22D17B681B68DB6803F01003102BBD
:104BE0001BD17B681B686FF010021A617B6808227A
:104BF0001A777B681B68DB6903F44073002B03D0D2
:104C0000786800F070F805E0786800F062F878687D
:104C100000F073F87B6800221A777B681B681B69B9
:104C200003F00103012B0ED17B681B68DB6803F0E6
:104C30000103012B07D17B681B686FF001021A6129
:104C40007868FCF7BFFD7B681B681B6903F0800375
:104C5000802B0ED17B681B68DB6803F08003802B00
:104C600007D17B681B686FF080021A61786800F0DA
:104C7000E3F87B681B681B6903F04003402B0ED1EF
:104C80007B681B68DB6803F04003402B07D17B681F
:104C90001B686FF040021A61786800F038F87B6892
:104CA0001B681B6903F02003202B0ED17B681B6857
:104CB000DB6803F02003202B07D17B681B686FF0B3
:104CC00020021A61786800F0ADF800BF0837BD46D1
:104CD00080BD80B483B000AF786000BF0C37BD46A4
:104CE0005DF8047B704780B483B000AF786000BF8C
:104CF0000C37BD465DF8047B704780B483B000AFCD
:104D0000786000BF0C37BD465DF8047B704780B407
:104D100083B000AF786000BF0C37BD465DF8047B00
:104D20007047000080B485B000AF786039607B6860
:104D30001B68FB607B68344A93420FD07B68B3F1F9
:104D4000804F0BD07B68314A934207D07B68304A52
:104D5000934203D07B682F4A934208D1FB6823F02B
:104D60007003FB603B685B68FA681343FB607B6819
:104D7000254A93421BD07B68B3F1804F17D07B68E4
:104D8000224A934213D07B68214A93420FD07B681A
:104D9000204A93420BD07B681F4A934207D07B681E
:104DA0001E4A934203D07B681D4A934208D1FB6898
:104DB00023F44073FB603B68DB68FA681343FB60D5
:104DC000FB6823F080023B685B691343FB607B68F0
:104DD000FA681A603B689A687B68DA623B681A680E
:104DE0007B689A627B68084A934203D13B681A69E0
:104DF0007B681A637B6801225A6100BF1437BD4685
:104E00005DF8047B704700BF0000014000040040D3
:104E100000080040000C00400040014000440140F8
:104E20000048014080B483B000AF786000BF0C3709
:104E3000BD465DF8047B704780B483B000AF7860F6
:104E400000BF0C37BD465DF8047B704780B582B06B
:104E500000AF78607B68002B01D101233FE07B68C5
:104E600093F83D30DBB2002B06D17B68002283F83B
:104E70003C207868FCF78EFE7B68242283F83D2076
:104E80007B681B68DA687B681B6822F40052DA6072
:104E9000786800F029F97B681B681A697B681B68D1
:104EA00022F490421A617B681B685A697B681B6810
:104EB00022F02A025A617B681B68DA687B681B68EB
:104EC00042F40052DA607B6800221A647B68202278
:104ED00083F83D207B68202283F83E20002318467B
:104EE0000837BD4680BD80B58AB002AFF860B960B2
:104EF0003B601346FB8000237B61FB6893F83D30E9
:104F0000DBB2202B7CD1BB68002B02D0FB88002BAE
:104F100001D1012375E0FB6893F83C30012B01D1EE
:104F200002236EE0FB68012283F83C20FB6800222C
:104F30001A64FB68212283F83D20FDF725F878618B
:104F4000FB68FA889A84FB68FA88DA84FB689B68B5
:104F5000B3F5805F08D1FB681B69002B04D10023E7
:104F6000FB61BB68BB6103E0BB68FB610023BB6105
:104F7000FB68002283F83C202AE03B6800937B69B1
:104F800000228021F86800F040F80346002B01D091
:104F9000032336E0FB69002B0BD1BB691B881A4643
:104FA000FB681B68C2F308025A60BB690233BB612D
:104FB00007E0FB691A78FB681B685A60FB690133DC
:104FC000FB61FB68DB8C9BB2013B9AB2FB68DA8425
:104FD000FB68DB8C9BB2002BCFD13B6800937B69D5
:104FE00000224021F86800F010F80346002B01D0A1
:104FF000032306E0FB68202283F83D20002300E025
:10500000022318462037BD4680BD80B590B000AF62
:10501000F860B9603B601346FB7150E0BB6CB3F1C4
:10502000FF3F4CD0BB6C002B07D0FCF7ADFF024616
:105030003B68D31ABA6C9A4241D2FB681B680C33A6
:10504000BB62BB6A53E8003F7B627B6A23F4D07388
:10505000FB63FB681B680C33FA6B7A633B63396B49
:105060007A6B41E80023FB62FB6A002BE5D1FB6809
:105070001B6814337B617B6953E8003F3B613B69EC
:1050800023F00103BB63FB681B681433BA6B3A62FD
:10509000FB61F9693A6A41E80023BB61BB69002BF7
:1050A000E5D1FB68202283F83D20FB68202283F8AD
:1050B0003E20FB68002283F83C2003230FE0FB68BE
:1050C0001B681A68BB681340BA689A420CBF012378
:1050D0000023DBB21A46FB799A429FD00023184680
:1050E0004037BD4680BD00002DE9B04FC0B000AFD5
:1050F000C7F8F400D7F8F4301B681B6923F440505C
:10510000D7F8F430D968D7F8F4301A6840EA0103C8
:105110001361D7F8F4309A68D7F8F4301B691A4352
:10512000D7F8F4305B691A43D7F8F430DB691343DE
:10513000C7F8F830D7F8F4301B68DB6823F4164161
:1051400021F00C01D7F8F4301A68D7F8F8300B4387
:10515000D360D7F8F4301B685B6923F44070D7F84C
:10516000F4309969D7F8F4301A6840EA01035361C2
:10517000D7F8F4301A688F4B9A4205D0D7F8F4303C
:105180001A688D4B9A4204D1FEF712FAC7F8FC0058
:1051900003E0FEF7F9F9C7F8FC00D7F8F430DB6953
:1051A000B3F5004F40F00C81D7F8FC300022C7F86F
:1051B000E830C7F8EC20D7E93A4522462B4691184B
:1051C000B9655B41FB65D7E91623214612EB01085F
:1051D000294643EB01094FF000024FF000034FEA6C
:1051E000C90343EA58734FEAC802904699462346DA
:1051F00018EB0303C7F8E0302B4649EB0303C7F86D
:10520000E430D7F8F4305B680022C7F8D830C7F82C
:10521000DC20D7E936120B46DB183B65134642EB20
:1052200003037B65D7E91423D7E93801FBF734FD85
:1052300002460B46614BA3FB02235B091C01D7F816
:10524000FC300022C7F8D030C7F8D420D7E9348921
:1052500042464B469118B9645B41FB64D7E912237F
:10526000414612EB010A494643EB010B4FF00002A5
:105270004FF000034FEACB0343EA5A734FEACA02E6
:1052800092469B4643461AEB0303C7F8C8304B4689
:105290004BEB0303C7F8CC30D7F8F4305B6800223F
:1052A000C7F8C030C7F8C420D7E930120B46DB1866
:1052B0003B64134642EB03037B64D7E91023D7E931
:1052C0003201FBF7E9FC02460B4611463B4BA3FBC0
:1052D00001235B09642202FB03F3CB1ADB0003F119
:1052E0003202364BA3FB02235B095B0003F4F87325
:1052F0001C44D7F8FC300022C7F8B830C7F8BC20EF
:10530000D7E92E8942464B469118B9635B41FB634E
:10531000D7E90E2341465118396349464B417B6317
:105320004FF000024FF00003D7E90CAB5946CB0019
:10533000514643EA51735146CA0010461946034686
:1053400042469B18C7F8B0304B460A4642EB03036F
:10535000C7F8B430D7F8F4305B680022C7F8A8303B
:10536000C7F8AC20D7E92A120B46DB18BB621346FC
:1053700042EB0303FB62D7E90A23D7E92C01FBF7D1
:105380008BFC02460B460D4BA3FB02135B09642109
:1053900001FB03F3D31ADB003233084AA2FB0323D9
:1053A0005B0903F00702D7F8F4301B6822449A60C7
:1053B00006E100BF00100140001401401F85EB51C1
:1053C000D7F8FC300022C7F8A030C7F8A420D7E9EE
:1053D000288942464B46911839625B417B62D7E986
:1053E000082341465418494643EB01054FF000029B
:1053F0004FF00003EB0043EA5473E20014461D46ED
:105400004346E318C7F898304B4645EB0303C7F80B
:105410009C30D7F8F4305B680022C7F89030C7F8AA
:1054200094204FF000024FF00003D7E924452946AD
:105430008B00214643EA917321468A00D7E9260171
:10544000FBF72AFC02460B46604BA3FB02235B09D9
:105450001C01D7F8FC300022C7F88830C7F88C2030
:10546000D7E9228942464B469118B9615B41FB61FD
:10547000D7E9062341465118396149464B417B61C2
:105480004FF000024FF00003D7E904AB5946CB00C0
:10549000514643EA51735146CA0010461946034625
:1054A00042469B18C7F880304B460A4642EB03033E
:1054B000C7F88430D7F8F4305B680022BB67FA671E
:1054C0004FF000024FF00003D7E91E8949468B00D8
:1054D000414643EA917341468A00D7E92001FBF730
:1054E000DBFB02460B461146384BA3FB01235B094D
:1054F000642202FB03F3CB1A1B013233334AA2FBB3
:1055000003235B0903F0F0031C44D7F8FC300022AE
:105510003B677A67D7E91C8942464B469118B960C8
:105520005B41FB60D7E90223414651183960494687
:105530004B417B604FF000024FF00003D7E900AB16
:105540005946CB00514643EA51735146CA001046B2
:105550001946034642469B18BB664B460A4642EB39
:105560000303FB66D7F8F4305B6800223B667A667B
:105570004FF000024FF00003D7E9188949468B002D
:10558000414643EA917341468A00D7E91A01FBF785
:1055900083FB02460B460D4BA3FB02135B09642100
:1055A00001FB03F3D31A1B013233084AA2FB032386
:1055B0005B0903F00F02D7F8F4301B6822449A60AD
:1055C00000BF07F58077BD46BDE8B08F1F85EB5162
:1055D00080B483B000AF03463960FB7197F90730A0
:1055E000002B0ADB3B68DAB20C4997F9073012014D
:1055F000D2B20B4483F800230AE03B68DAB20849D0
:10560000FB7903F00F03043B1201D2B20B441A766C
:1056100000BF0C37BD465DF8047B704700E100E039
:1056200000ED00E080B500AF00216FF00400FFF74F
:10563000CFFF00BF80BD000080B483B000AFEFF3A8
:1056400005833B603B68002B03D06FF005037B6054
:105650000CE00A4B1B68002B05D1084B01221A6095
:1056600000237B6002E04FF0FF337B607B681846CD
:105670000C37BD465DF8047B704700BFB80C0020B6
:1056800080B582B000AFEFF305833B603B68002B31
:1056900003D06FF005037B6010E00B4B1B68012B00
:1056A00009D1FFF7BFFF084B02221A6001F0A2FCEC
:1056B00000237B6002E04FF0FF337B607B6818467D
:1056C0000837BD4680BD00BFB80C002080B58EB045
:1056D00004AFF860B9607A6000233B61EFF30583A3
:1056E0007B617B69002B7ED1FB68002B7BD0802304
:1056F0003B621823FB6100237B624FF0FF33BB61E9
:105700007B68002B45D07B681B68002B02D07B6830
:105710001B687B627B689B69002B02D07B689B695E
:10572000FB61FB69002B08D0FB69382B05D87B682F
:105730005B6803F00103002B01D0002354E07B6879
:105740005B69002B03D07B685B699B083B627B68CD
:105750009B68002B0ED07B68DB68A72B0AD97B687F
:105760001B69002B06D07B685B69002B02D00123EC
:10577000BB6110E07B689B68002B0CD17B68DB6809
:10578000002B08D17B681B69002B04D10023BB616F
:1057900001E00023BB61BB69012B10D17B681B6951
:1057A0007A68926802920193FB690093BB683A6A37
:1057B000796AF86801F032FA03463B6113E0BB698D
:1057C000002B10D13B6A9AB207F110030193FB69D9
:1057D0000093BB68796AF86801F07DFA0346012BF3
:1057E00001D000233B613B6918462837BD4680BD88
:1057F00080B58AB002AFF860B9607A600023FB61BF
:10580000EFF305833B613B69002B75D1FB68002BEF
:1058100072D0BA68FB689A426ED84FF0FF33BB6112
:105820007B68002B15D07B689B68002B06D07B68BB
:10583000DB684F2B02D90123BB610CE07B689B68BE
:10584000002B08D17B68DB68002B04D10023BB61EF
:1058500001E00023BB61BB69B3F1FF3F4CD0FB68A3
:10586000012B28D1BB69012B0AD17B689B680322DD
:10587000009200220021012000F02AFAF86105E0E0
:1058800003220021012000F09BFAF861FB69002B44
:1058900022D0BB68002B1FD0002300220021F86912
:1058A00000F056FB0346012B16D0F86900F0E2FF2A
:1058B0000023FB6110E0BB69012B08D17B689B686A
:1058C0001A46B968F86800F0D8FAF86104E0B968D7
:1058D000F86800F009FBF861FB69002B0CD07B68CD
:1058E000002B03D07B681B687B6101E000237B6198
:1058F0007969F86901F00AF9FB6918462037BD4655
:1059000080BD000080B586B000AF786039607B68EC
:105910003B6100237B613B69002B03D16FF00303E4
:105920007B6139E0EFF30583FB60FB68002B22D03D
:105930003B68002B03D06FF003037B612CE0002356
:10594000BB6007F108031A460021386900F012FF16
:105950000346012B03D06FF002037B611CE0BB68A0
:10596000002B19D00F4B4FF080521A60BFF34F8FAE
:10597000BFF36F8F10E03968386900F0EFFD034620
:10598000012B09D03B68002B03D06FF001037B6132
:1059900002E06FF002037B617B6918461837BD4651
:1059A00080BD00BF04ED00E080B586B000AF786038
:1059B0007B683B6100237B613B69002B03D16FF067
:1059C00003037B612CE0EFF30583FB60FB68002B96
:1059D0001AD00023BB6007F108031946386900F0AC
:1059E00050FC0346012B03D06FF002037B6117E0EC
:1059F000BB68002B14D00D4B4FF080521A60BFF3E0
:105A00004F8FBFF36F8F0BE0002300220021386916
:105A100000F09EFA0346012B02D06FF002037B6177
:105A20007B6918461837BD4680BD00BF04ED00E015
:105A300080B485B000AFF860B9607A60FB68074A4F
:105A40001A60BB68064A1A607B6880221A6000BF31
:105A50001437BD465DF8047B704700BFBC0C0020C6
:105A6000640D002080B485B000AFF860B9607A6042
:105A7000FB68074A1A60BB68064A1A607B684FF4E5
:105A800080721A6000BF1437BD465DF8047B704712
:105A9000640F00200C10002080B483B000AF786049
:105AA0007B6803F108027B685A607B684FF0FF3225
:105AB0009A607B6803F108027B68DA607B6803F117
:105AC00008027B681A617B6800221A6000BF0C37ED
:105AD000BD465DF8047B704780B483B000AF78604A
